{
	"contracts/Test.sol": {
		"MyFunction": {
			"abi": [
				{
					"inputs": [
						{
							"internalType": "uint256",
							"name": "_x",
							"type": "uint256"
						},
						{
							"internalType": "uint256",
							"name": "_y",
							"type": "uint256"
						}
					],
					"name": "myPureFunc",
					"outputs": [
						{
							"internalType": "uint256",
							"name": "xy",
							"type": "uint256"
						}
					],
					"stateMutability": "pure",
					"type": "function"
				}
			],
			"devdoc": {
				"kind": "dev",
				"methods": {},
				"version": 1
			},
			"evm": {
				"assembly": "    /* \"contracts/Test.sol\":74:339  contract MyFunction{\r... */\n  mstore(0x40, 0x80)\n    /* \"contracts/Test.sol\":117:119  42 */\n  0x2a\n    /* \"contracts/Test.sol\":100:119  uint256 myUint = 42 */\n  0x00\n  sstore\n    /* \"contracts/Test.sol\":126:153  string myString = \"Ihtsham\" */\n  mload(0x40)\n  dup1\n  0x40\n  add\n  0x40\n  mstore\n  dup1\n  0x07\n  dup2\n  mstore\n  0x20\n  add\n  0x4968747368616d00000000000000000000000000000000000000000000000000\n  dup2\n  mstore\n  pop\n  0x01\n  swap1\n  dup1\n  mload\n  swap1\n  0x20\n  add\n  swap1\n  tag_1\n  swap3\n  swap2\n  swap1\n  tag_2\n  jump\t// in\ntag_1:\n  pop\n    /* \"contracts/Test.sol\":174:178  true */\n  0x01\n    /* \"contracts/Test.sol\":160:178  bool myBool = true */\n  0x02\n  exp(0x0100, 0x00)\n  dup2\n  sload\n  dup2\n  0xff\n  mul\n  not\n  and\n  swap1\n  dup4\n  iszero\n  iszero\n  mul\n  or\n  swap1\n  sstore\n  pop\n    /* \"contracts/Test.sol\":185:210  uint256[] myArr = [3,3,3] */\n  mload(0x40)\n  dup1\n  0x60\n  add\n  0x40\n  mstore\n  dup1\n    /* \"contracts/Test.sol\":204:205  3 */\n  0x03\n    /* \"contracts/Test.sol\":185:210  uint256[] myArr = [3,3,3] */\n  0xff\n  and\n  dup2\n  mstore\n  0x20\n  add\n    /* \"contracts/Test.sol\":206:207  3 */\n  0x03\n    /* \"contracts/Test.sol\":185:210  uint256[] myArr = [3,3,3] */\n  0xff\n  and\n  dup2\n  mstore\n  0x20\n  add\n    /* \"contracts/Test.sol\":208:209  3 */\n  0x03\n    /* \"contracts/Test.sol\":185:210  uint256[] myArr = [3,3,3] */\n  0xff\n  and\n  dup2\n  mstore\n  pop\n  0x03\n  swap1\n  0x03\n  tag_3\n  swap3\n  swap2\n  swap1\n  tag_4\n  jump\t// in\ntag_3:\n  pop\n    /* \"contracts/Test.sol\":74:339  contract MyFunction{\r... */\n  callvalue\n  dup1\n  iszero\n  tag_5\n  jumpi\n  0x00\n  dup1\n  revert\ntag_5:\n  pop\n  jump(tag_6)\ntag_2:\n  dup3\n  dup1\n  sload\n  tag_7\n  swap1\n  tag_8\n  jump\t// in\ntag_7:\n  swap1\n  0x00\n  mstore\n  keccak256(0x00, 0x20)\n  swap1\n  0x1f\n  add\n  0x20\n  swap1\n  div\n  dup2\n  add\n  swap3\n  dup3\n  tag_10\n  jumpi\n  0x00\n  dup6\n  sstore\n  jump(tag_9)\ntag_10:\n  dup3\n  0x1f\n  lt\n  tag_11\n  jumpi\n  dup1\n  mload\n  not(0xff)\n  and\n  dup4\n  dup1\n  add\n  or\n  dup6\n  sstore\n  jump(tag_9)\ntag_11:\n  dup3\n  dup1\n  add\n  0x01\n  add\n  dup6\n  sstore\n  dup3\n  iszero\n  tag_9\n  jumpi\n  swap2\n  dup3\n  add\ntag_12:\n  dup3\n  dup2\n  gt\n  iszero\n  tag_13\n  jumpi\n  dup3\n  mload\n  dup3\n  sstore\n  swap2\n  0x20\n  add\n  swap2\n  swap1\n  0x01\n  add\n  swap1\n  jump(tag_12)\ntag_13:\ntag_9:\n  pop\n  swap1\n  pop\n  tag_14\n  swap2\n  swap1\n  tag_15\n  jump\t// in\ntag_14:\n  pop\n  swap1\n  jump\t// out\ntag_4:\n  dup3\n  dup1\n  sload\n  dup3\n  dup3\n  sstore\n  swap1\n  0x00\n  mstore\n  keccak256(0x00, 0x20)\n  swap1\n  dup2\n  add\n  swap3\n  dup3\n  iszero\n  tag_16\n  jumpi\n  swap2\n  0x20\n  mul\n  dup3\n  add\ntag_17:\n  dup3\n  dup2\n  gt\n  iszero\n  tag_18\n  jumpi\n  dup3\n  mload\n  dup3\n  swap1\n  0xff\n  and\n  swap1\n  sstore\n  swap2\n  0x20\n  add\n  swap2\n  swap1\n  0x01\n  add\n  swap1\n  jump(tag_17)\ntag_18:\ntag_16:\n  pop\n  swap1\n  pop\n  tag_19\n  swap2\n  swap1\n  tag_15\n  jump\t// in\ntag_19:\n  pop\n  swap1\n  jump\t// out\ntag_15:\ntag_20:\n  dup1\n  dup3\n  gt\n  iszero\n  tag_21\n  jumpi\n  0x00\n  dup2\n  0x00\n  swap1\n  sstore\n  pop\n  0x01\n  add\n  jump(tag_20)\ntag_21:\n  pop\n  swap1\n  jump\t// out\n    /* \"#utility.yul\":7:327   */\ntag_8:\n    /* \"#utility.yul\":51:57   */\n  0x00\n    /* \"#utility.yul\":88:89   */\n  0x02\n    /* \"#utility.yul\":82:86   */\n  dup3\n    /* \"#utility.yul\":78:90   */\n  div\n    /* \"#utility.yul\":68:90   */\n  swap1\n  pop\n    /* \"#utility.yul\":135:136   */\n  0x01\n    /* \"#utility.yul\":129:133   */\n  dup3\n    /* \"#utility.yul\":125:137   */\n  and\n    /* \"#utility.yul\":156:174   */\n  dup1\n    /* \"#utility.yul\":146:227   */\n  tag_24\n  jumpi\n    /* \"#utility.yul\":212:216   */\n  0x7f\n    /* \"#utility.yul\":204:210   */\n  dup3\n    /* \"#utility.yul\":200:217   */\n  and\n    /* \"#utility.yul\":190:217   */\n  swap2\n  pop\n    /* \"#utility.yul\":146:227   */\ntag_24:\n    /* \"#utility.yul\":274:276   */\n  0x20\n    /* \"#utility.yul\":266:272   */\n  dup3\n    /* \"#utility.yul\":263:277   */\n  lt\n    /* \"#utility.yul\":243:261   */\n  dup2\n    /* \"#utility.yul\":240:278   */\n  eq\n    /* \"#utility.yul\":237:321   */\n  iszero\n  tag_25\n  jumpi\n    /* \"#utility.yul\":293:311   */\n  tag_26\n  tag_27\n  jump\t// in\ntag_26:\n    /* \"#utility.yul\":237:321   */\ntag_25:\n    /* \"#utility.yul\":58:327   */\n  pop\n    /* \"#utility.yul\":7:327   */\n  swap2\n  swap1\n  pop\n  jump\t// out\n    /* \"#utility.yul\":333:513   */\ntag_27:\n    /* \"#utility.yul\":381:458   */\n  0x4e487b7100000000000000000000000000000000000000000000000000000000\n    /* \"#utility.yul\":378:379   */\n  0x00\n    /* \"#utility.yul\":371:459   */\n  mstore\n    /* \"#utility.yul\":478:482   */\n  0x22\n    /* \"#utility.yul\":475:476   */\n  0x04\n    /* \"#utility.yul\":468:483   */\n  mstore\n    /* \"#utility.yul\":502:506   */\n  0x24\n    /* \"#utility.yul\":499:500   */\n  0x00\n    /* \"#utility.yul\":492:507   */\n  revert\n    /* \"contracts/Test.sol\":74:339  contract MyFunction{\r... */\ntag_6:\n  dataSize(sub_0)\n  dup1\n  dataOffset(sub_0)\n  0x00\n  codecopy\n  0x00\n  return\nstop\n\nsub_0: assembly {\n        /* \"contracts/Test.sol\":74:339  contract MyFunction{\r... */\n      mstore(0x40, 0x80)\n      callvalue\n      dup1\n      iszero\n      tag_1\n      jumpi\n      0x00\n      dup1\n      revert\n    tag_1:\n      pop\n      jumpi(tag_2, lt(calldatasize, 0x04))\n      shr(0xe0, calldataload(0x00))\n      dup1\n      0x9e5ddd8b\n      eq\n      tag_3\n      jumpi\n    tag_2:\n      0x00\n      dup1\n      revert\n        /* \"contracts/Test.sol\":217:330  function myPureFunc(uint256 _x, uint256 _y) public pure returns (uint256 xy){\r... */\n    tag_3:\n      tag_4\n      0x04\n      dup1\n      calldatasize\n      sub\n      dup2\n      add\n      swap1\n      tag_5\n      swap2\n      swap1\n      tag_6\n      jump\t// in\n    tag_5:\n      tag_7\n      jump\t// in\n    tag_4:\n      mload(0x40)\n      tag_8\n      swap2\n      swap1\n      tag_9\n      jump\t// in\n    tag_8:\n      mload(0x40)\n      dup1\n      swap2\n      sub\n      swap1\n      return\n    tag_7:\n        /* \"contracts/Test.sol\":282:292  uint256 xy */\n      0x00\n        /* \"contracts/Test.sol\":316:318  _y */\n      dup2\n        /* \"contracts/Test.sol\":311:313  _x */\n      dup4\n        /* \"contracts/Test.sol\":311:318  _x + _y */\n      tag_11\n      swap2\n      swap1\n      tag_12\n      jump\t// in\n    tag_11:\n        /* \"contracts/Test.sol\":304:318  return _x + _y */\n      swap1\n      pop\n        /* \"contracts/Test.sol\":217:330  function myPureFunc(uint256 _x, uint256 _y) public pure returns (uint256 xy){\r... */\n      swap3\n      swap2\n      pop\n      pop\n      jump\t// out\n        /* \"#utility.yul\":7:146   */\n    tag_14:\n        /* \"#utility.yul\":53:58   */\n      0x00\n        /* \"#utility.yul\":91:97   */\n      dup2\n        /* \"#utility.yul\":78:98   */\n      calldataload\n        /* \"#utility.yul\":69:98   */\n      swap1\n      pop\n        /* \"#utility.yul\":107:140   */\n      tag_16\n        /* \"#utility.yul\":134:139   */\n      dup2\n        /* \"#utility.yul\":107:140   */\n      tag_17\n      jump\t// in\n    tag_16:\n        /* \"#utility.yul\":7:146   */\n      swap3\n      swap2\n      pop\n      pop\n      jump\t// out\n        /* \"#utility.yul\":152:626   */\n    tag_6:\n        /* \"#utility.yul\":220:226   */\n      0x00\n        /* \"#utility.yul\":228:234   */\n      dup1\n        /* \"#utility.yul\":277:279   */\n      0x40\n        /* \"#utility.yul\":265:274   */\n      dup4\n        /* \"#utility.yul\":256:263   */\n      dup6\n        /* \"#utility.yul\":252:275   */\n      sub\n        /* \"#utility.yul\":248:280   */\n      slt\n        /* \"#utility.yul\":245:364   */\n      iszero\n      tag_19\n      jumpi\n        /* \"#utility.yul\":283:362   */\n      tag_20\n      tag_21\n      jump\t// in\n    tag_20:\n        /* \"#utility.yul\":245:364   */\n    tag_19:\n        /* \"#utility.yul\":403:404   */\n      0x00\n        /* \"#utility.yul\":428:481   */\n      tag_22\n        /* \"#utility.yul\":473:480   */\n      dup6\n        /* \"#utility.yul\":464:470   */\n      dup3\n        /* \"#utility.yul\":453:462   */\n      dup7\n        /* \"#utility.yul\":449:471   */\n      add\n        /* \"#utility.yul\":428:481   */\n      tag_14\n      jump\t// in\n    tag_22:\n        /* \"#utility.yul\":418:481   */\n      swap3\n      pop\n        /* \"#utility.yul\":374:491   */\n      pop\n        /* \"#utility.yul\":530:532   */\n      0x20\n        /* \"#utility.yul\":556:609   */\n      tag_23\n        /* \"#utility.yul\":601:608   */\n      dup6\n        /* \"#utility.yul\":592:598   */\n      dup3\n        /* \"#utility.yul\":581:590   */\n      dup7\n        /* \"#utility.yul\":577:599   */\n      add\n        /* \"#utility.yul\":556:609   */\n      tag_14\n      jump\t// in\n    tag_23:\n        /* \"#utility.yul\":546:609   */\n      swap2\n      pop\n        /* \"#utility.yul\":501:619   */\n      pop\n        /* \"#utility.yul\":152:626   */\n      swap3\n      pop\n      swap3\n      swap1\n      pop\n      jump\t// out\n        /* \"#utility.yul\":632:750   */\n    tag_24:\n        /* \"#utility.yul\":719:743   */\n      tag_26\n        /* \"#utility.yul\":737:742   */\n      dup2\n        /* \"#utility.yul\":719:743   */\n      tag_27\n      jump\t// in\n    tag_26:\n        /* \"#utility.yul\":714:717   */\n      dup3\n        /* \"#utility.yul\":707:744   */\n      mstore\n        /* \"#utility.yul\":632:750   */\n      pop\n      pop\n      jump\t// out\n        /* \"#utility.yul\":756:978   */\n    tag_9:\n        /* \"#utility.yul\":849:853   */\n      0x00\n        /* \"#utility.yul\":887:889   */\n      0x20\n        /* \"#utility.yul\":876:885   */\n      dup3\n        /* \"#utility.yul\":872:890   */\n      add\n        /* \"#utility.yul\":864:890   */\n      swap1\n      pop\n        /* \"#utility.yul\":900:971   */\n      tag_29\n        /* \"#utility.yul\":968:969   */\n      0x00\n        /* \"#utility.yul\":957:966   */\n      dup4\n        /* \"#utility.yul\":953:970   */\n      add\n        /* \"#utility.yul\":944:950   */\n      dup5\n        /* \"#utility.yul\":900:971   */\n      tag_24\n      jump\t// in\n    tag_29:\n        /* \"#utility.yul\":756:978   */\n      swap3\n      swap2\n      pop\n      pop\n      jump\t// out\n        /* \"#utility.yul\":1065:1370   */\n    tag_12:\n        /* \"#utility.yul\":1105:1108   */\n      0x00\n        /* \"#utility.yul\":1124:1144   */\n      tag_33\n        /* \"#utility.yul\":1142:1143   */\n      dup3\n        /* \"#utility.yul\":1124:1144   */\n      tag_27\n      jump\t// in\n    tag_33:\n        /* \"#utility.yul\":1119:1144   */\n      swap2\n      pop\n        /* \"#utility.yul\":1158:1178   */\n      tag_34\n        /* \"#utility.yul\":1176:1177   */\n      dup4\n        /* \"#utility.yul\":1158:1178   */\n      tag_27\n      jump\t// in\n    tag_34:\n        /* \"#utility.yul\":1153:1178   */\n      swap3\n      pop\n        /* \"#utility.yul\":1312:1313   */\n      dup3\n        /* \"#utility.yul\":1244:1310   */\n      0xffffffffffffffffffffffffffffffffffffffffffffffffffffffffffffffff\n        /* \"#utility.yul\":1240:1314   */\n      sub\n        /* \"#utility.yul\":1237:1238   */\n      dup3\n        /* \"#utility.yul\":1234:1315   */\n      gt\n        /* \"#utility.yul\":1231:1338   */\n      iszero\n      tag_35\n      jumpi\n        /* \"#utility.yul\":1318:1336   */\n      tag_36\n      tag_37\n      jump\t// in\n    tag_36:\n        /* \"#utility.yul\":1231:1338   */\n    tag_35:\n        /* \"#utility.yul\":1362:1363   */\n      dup3\n        /* \"#utility.yul\":1359:1360   */\n      dup3\n        /* \"#utility.yul\":1355:1364   */\n      add\n        /* \"#utility.yul\":1348:1364   */\n      swap1\n      pop\n        /* \"#utility.yul\":1065:1370   */\n      swap3\n      swap2\n      pop\n      pop\n      jump\t// out\n        /* \"#utility.yul\":1376:1453   */\n    tag_27:\n        /* \"#utility.yul\":1413:1420   */\n      0x00\n        /* \"#utility.yul\":1442:1447   */\n      dup2\n        /* \"#utility.yul\":1431:1447   */\n      swap1\n      pop\n        /* \"#utility.yul\":1376:1453   */\n      swap2\n      swap1\n      pop\n      jump\t// out\n        /* \"#utility.yul\":1459:1639   */\n    tag_37:\n        /* \"#utility.yul\":1507:1584   */\n      0x4e487b7100000000000000000000000000000000000000000000000000000000\n        /* \"#utility.yul\":1504:1505   */\n      0x00\n        /* \"#utility.yul\":1497:1585   */\n      mstore\n        /* \"#utility.yul\":1604:1608   */\n      0x11\n        /* \"#utility.yul\":1601:1602   */\n      0x04\n        /* \"#utility.yul\":1594:1609   */\n      mstore\n        /* \"#utility.yul\":1628:1632   */\n      0x24\n        /* \"#utility.yul\":1625:1626   */\n      0x00\n        /* \"#utility.yul\":1618:1633   */\n      revert\n        /* \"#utility.yul\":1768:1885   */\n    tag_21:\n        /* \"#utility.yul\":1877:1878   */\n      0x00\n        /* \"#utility.yul\":1874:1875   */\n      dup1\n        /* \"#utility.yul\":1867:1879   */\n      revert\n        /* \"#utility.yul\":1891:2013   */\n    tag_17:\n        /* \"#utility.yul\":1964:1988   */\n      tag_44\n        /* \"#utility.yul\":1982:1987   */\n      dup2\n        /* \"#utility.yul\":1964:1988   */\n      tag_27\n      jump\t// in\n    tag_44:\n        /* \"#utility.yul\":1957:1962   */\n      dup2\n        /* \"#utility.yul\":1954:1989   */\n      eq\n        /* \"#utility.yul\":1944:2007   */\n      tag_45\n      jumpi\n        /* \"#utility.yul\":2003:2004   */\n      0x00\n        /* \"#utility.yul\":2000:2001   */\n      dup1\n        /* \"#utility.yul\":1993:2005   */\n      revert\n        /* \"#utility.yul\":1944:2007   */\n    tag_45:\n        /* \"#utility.yul\":1891:2013   */\n      pop\n      jump\t// out\n\n    auxdata: 0xa2646970667358221220666d664ac7529d5ed83888ea4e78507bcda34ef79173ed8d75cac11177980f2564736f6c63430008070033\n}\n",
				"bytecode": {
					"linkReferences": {},
					"object": "6080604052602a6000556040518060400160405280600781526020017f4968747368616d00000000000000000000000000000000000000000000000000815250600190805190602001906100549291906100ba565b506001600260006101000a81548160ff0219169083151502179055506040518060600160405280600360ff168152602001600360ff168152602001600360ff1681525060039060036100a7929190610140565b503480156100b457600080fd5b50610210565b8280546100c6906101af565b90600052602060002090601f0160209004810192826100e8576000855561012f565b82601f1061010157805160ff191683800117855561012f565b8280016001018555821561012f579182015b8281111561012e578251825591602001919060010190610113565b5b50905061013c9190610192565b5090565b828054828255906000526020600020908101928215610181579160200282015b82811115610180578251829060ff16905591602001919060010190610160565b5b50905061018e9190610192565b5090565b5b808211156101ab576000816000905550600101610193565b5090565b600060028204905060018216806101c757607f821691505b602082108114156101db576101da6101e1565b5b50919050565b7f4e487b7100000000000000000000000000000000000000000000000000000000600052602260045260246000fd5b6101d68061021f6000396000f3fe608060405234801561001057600080fd5b506004361061002b5760003560e01c80639e5ddd8b14610030575b600080fd5b61004a6004803603810190610045919061008b565b610060565b60405161005791906100da565b60405180910390f35b6000818361006e91906100f5565b905092915050565b60008135905061008581610189565b92915050565b600080604083850312156100a2576100a1610184565b5b60006100b085828601610076565b92505060206100c185828601610076565b9150509250929050565b6100d48161014b565b82525050565b60006020820190506100ef60008301846100cb565b92915050565b60006101008261014b565b915061010b8361014b565b9250827fffffffffffffffffffffffffffffffffffffffffffffffffffffffffffffffff038211156101405761013f610155565b5b828201905092915050565b6000819050919050565b7f4e487b7100000000000000000000000000000000000000000000000000000000600052601160045260246000fd5b600080fd5b6101928161014b565b811461019d57600080fd5b5056fea2646970667358221220666d664ac7529d5ed83888ea4e78507bcda34ef79173ed8d75cac11177980f2564736f6c63430008070033",
					"opcodes": "PUSH1 0x80 PUSH1 0x40 MSTORE PUSH1 0x2A PUSH1 0x0 SSTORE PUSH1 0x40 MLOAD DUP1 PUSH1 0x40 ADD PUSH1 0x40 MSTORE DUP1 PUSH1 0x7 DUP2 MSTORE PUSH1 0x20 ADD PUSH32 0x4968747368616D00000000000000000000000000000000000000000000000000 DUP2 MSTORE POP PUSH1 0x1 SWAP1 DUP1 MLOAD SWAP1 PUSH1 0x20 ADD SWAP1 PUSH2 0x54 SWAP3 SWAP2 SWAP1 PUSH2 0xBA JUMP JUMPDEST POP PUSH1 0x1 PUSH1 0x2 PUSH1 0x0 PUSH2 0x100 EXP DUP2 SLOAD DUP2 PUSH1 0xFF MUL NOT AND SWAP1 DUP4 ISZERO ISZERO MUL OR SWAP1 SSTORE POP PUSH1 0x40 MLOAD DUP1 PUSH1 0x60 ADD PUSH1 0x40 MSTORE DUP1 PUSH1 0x3 PUSH1 0xFF AND DUP2 MSTORE PUSH1 0x20 ADD PUSH1 0x3 PUSH1 0xFF AND DUP2 MSTORE PUSH1 0x20 ADD PUSH1 0x3 PUSH1 0xFF AND DUP2 MSTORE POP PUSH1 0x3 SWAP1 PUSH1 0x3 PUSH2 0xA7 SWAP3 SWAP2 SWAP1 PUSH2 0x140 JUMP JUMPDEST POP CALLVALUE DUP1 ISZERO PUSH2 0xB4 JUMPI PUSH1 0x0 DUP1 REVERT JUMPDEST POP PUSH2 0x210 JUMP JUMPDEST DUP3 DUP1 SLOAD PUSH2 0xC6 SWAP1 PUSH2 0x1AF JUMP JUMPDEST SWAP1 PUSH1 0x0 MSTORE PUSH1 0x20 PUSH1 0x0 KECCAK256 SWAP1 PUSH1 0x1F ADD PUSH1 0x20 SWAP1 DIV DUP2 ADD SWAP3 DUP3 PUSH2 0xE8 JUMPI PUSH1 0x0 DUP6 SSTORE PUSH2 0x12F JUMP JUMPDEST DUP3 PUSH1 0x1F LT PUSH2 0x101 JUMPI DUP1 MLOAD PUSH1 0xFF NOT AND DUP4 DUP1 ADD OR DUP6 SSTORE PUSH2 0x12F JUMP JUMPDEST DUP3 DUP1 ADD PUSH1 0x1 ADD DUP6 SSTORE DUP3 ISZERO PUSH2 0x12F JUMPI SWAP2 DUP3 ADD JUMPDEST DUP3 DUP2 GT ISZERO PUSH2 0x12E JUMPI DUP3 MLOAD DUP3 SSTORE SWAP2 PUSH1 0x20 ADD SWAP2 SWAP1 PUSH1 0x1 ADD SWAP1 PUSH2 0x113 JUMP JUMPDEST JUMPDEST POP SWAP1 POP PUSH2 0x13C SWAP2 SWAP1 PUSH2 0x192 JUMP JUMPDEST POP SWAP1 JUMP JUMPDEST DUP3 DUP1 SLOAD DUP3 DUP3 SSTORE SWAP1 PUSH1 0x0 MSTORE PUSH1 0x20 PUSH1 0x0 KECCAK256 SWAP1 DUP2 ADD SWAP3 DUP3 ISZERO PUSH2 0x181 JUMPI SWAP2 PUSH1 0x20 MUL DUP3 ADD JUMPDEST DUP3 DUP2 GT ISZERO PUSH2 0x180 JUMPI DUP3 MLOAD DUP3 SWAP1 PUSH1 0xFF AND SWAP1 SSTORE SWAP2 PUSH1 0x20 ADD SWAP2 SWAP1 PUSH1 0x1 ADD SWAP1 PUSH2 0x160 JUMP JUMPDEST JUMPDEST POP SWAP1 POP PUSH2 0x18E SWAP2 SWAP1 PUSH2 0x192 JUMP JUMPDEST POP SWAP1 JUMP JUMPDEST JUMPDEST DUP1 DUP3 GT ISZERO PUSH2 0x1AB JUMPI PUSH1 0x0 DUP2 PUSH1 0x0 SWAP1 SSTORE POP PUSH1 0x1 ADD PUSH2 0x193 JUMP JUMPDEST POP SWAP1 JUMP JUMPDEST PUSH1 0x0 PUSH1 0x2 DUP3 DIV SWAP1 POP PUSH1 0x1 DUP3 AND DUP1 PUSH2 0x1C7 JUMPI PUSH1 0x7F DUP3 AND SWAP2 POP JUMPDEST PUSH1 0x20 DUP3 LT DUP2 EQ ISZERO PUSH2 0x1DB JUMPI PUSH2 0x1DA PUSH2 0x1E1 JUMP JUMPDEST JUMPDEST POP SWAP2 SWAP1 POP JUMP JUMPDEST PUSH32 0x4E487B7100000000000000000000000000000000000000000000000000000000 PUSH1 0x0 MSTORE PUSH1 0x22 PUSH1 0x4 MSTORE PUSH1 0x24 PUSH1 0x0 REVERT JUMPDEST PUSH2 0x1D6 DUP1 PUSH2 0x21F PUSH1 0x0 CODECOPY PUSH1 0x0 RETURN INVALID PUSH1 0x80 PUSH1 0x40 MSTORE CALLVALUE DUP1 ISZERO PUSH2 0x10 JUMPI PUSH1 0x0 DUP1 REVERT JUMPDEST POP PUSH1 0x4 CALLDATASIZE LT PUSH2 0x2B JUMPI PUSH1 0x0 CALLDATALOAD PUSH1 0xE0 SHR DUP1 PUSH4 0x9E5DDD8B EQ PUSH2 0x30 JUMPI JUMPDEST PUSH1 0x0 DUP1 REVERT JUMPDEST PUSH2 0x4A PUSH1 0x4 DUP1 CALLDATASIZE SUB DUP2 ADD SWAP1 PUSH2 0x45 SWAP2 SWAP1 PUSH2 0x8B JUMP JUMPDEST PUSH2 0x60 JUMP JUMPDEST PUSH1 0x40 MLOAD PUSH2 0x57 SWAP2 SWAP1 PUSH2 0xDA JUMP JUMPDEST PUSH1 0x40 MLOAD DUP1 SWAP2 SUB SWAP1 RETURN JUMPDEST PUSH1 0x0 DUP2 DUP4 PUSH2 0x6E SWAP2 SWAP1 PUSH2 0xF5 JUMP JUMPDEST SWAP1 POP SWAP3 SWAP2 POP POP JUMP JUMPDEST PUSH1 0x0 DUP2 CALLDATALOAD SWAP1 POP PUSH2 0x85 DUP2 PUSH2 0x189 JUMP JUMPDEST SWAP3 SWAP2 POP POP JUMP JUMPDEST PUSH1 0x0 DUP1 PUSH1 0x40 DUP4 DUP6 SUB SLT ISZERO PUSH2 0xA2 JUMPI PUSH2 0xA1 PUSH2 0x184 JUMP JUMPDEST JUMPDEST PUSH1 0x0 PUSH2 0xB0 DUP6 DUP3 DUP7 ADD PUSH2 0x76 JUMP JUMPDEST SWAP3 POP POP PUSH1 0x20 PUSH2 0xC1 DUP6 DUP3 DUP7 ADD PUSH2 0x76 JUMP JUMPDEST SWAP2 POP POP SWAP3 POP SWAP3 SWAP1 POP JUMP JUMPDEST PUSH2 0xD4 DUP2 PUSH2 0x14B JUMP JUMPDEST DUP3 MSTORE POP POP JUMP JUMPDEST PUSH1 0x0 PUSH1 0x20 DUP3 ADD SWAP1 POP PUSH2 0xEF PUSH1 0x0 DUP4 ADD DUP5 PUSH2 0xCB JUMP JUMPDEST SWAP3 SWAP2 POP POP JUMP JUMPDEST PUSH1 0x0 PUSH2 0x100 DUP3 PUSH2 0x14B JUMP JUMPDEST SWAP2 POP PUSH2 0x10B DUP4 PUSH2 0x14B JUMP JUMPDEST SWAP3 POP DUP3 PUSH32 0xFFFFFFFFFFFFFFFFFFFFFFFFFFFFFFFFFFFFFFFFFFFFFFFFFFFFFFFFFFFFFFFF SUB DUP3 GT ISZERO PUSH2 0x140 JUMPI PUSH2 0x13F PUSH2 0x155 JUMP JUMPDEST JUMPDEST DUP3 DUP3 ADD SWAP1 POP SWAP3 SWAP2 POP POP JUMP JUMPDEST PUSH1 0x0 DUP2 SWAP1 POP SWAP2 SWAP1 POP JUMP JUMPDEST PUSH32 0x4E487B7100000000000000000000000000000000000000000000000000000000 PUSH1 0x0 MSTORE PUSH1 0x11 PUSH1 0x4 MSTORE PUSH1 0x24 PUSH1 0x0 REVERT JUMPDEST PUSH1 0x0 DUP1 REVERT JUMPDEST PUSH2 0x192 DUP2 PUSH2 0x14B JUMP JUMPDEST DUP2 EQ PUSH2 0x19D JUMPI PUSH1 0x0 DUP1 REVERT JUMPDEST POP JUMP INVALID LOG2 PUSH5 0x6970667358 0x22 SLT KECCAK256 PUSH7 0x6D664AC7529D5E 0xD8 CODESIZE DUP9 0xEA 0x4E PUSH25 0x507BCDA34EF79173ED8D75CAC11177980F2564736F6C634300 ADDMOD SMOD STOP CALLER "
				},
				"gasEstimates": {
					"creation": {
						"codeDepositCost": "94000",
						"executionCost": "infinite",
						"totalCost": "infinite"
					},
					"external": {
						"myPureFunc(uint256,uint256)": "infinite"
					}
				},
				"methodIdentifiers": {
					"myPureFunc(uint256,uint256)": "9e5ddd8b"
				}
			},
			"storageLayout": {
				"storage": [
					{
						"astId": 4,
						"contract": "contracts/Test.sol:MyFunction",
						"label": "myUint",
						"offset": 0,
						"slot": "0",
						"type": "t_uint256"
					},
					{
						"astId": 7,
						"contract": "contracts/Test.sol:MyFunction",
						"label": "myString",
						"offset": 0,
						"slot": "1",
						"type": "t_string_storage"
					},
					{
						"astId": 10,
						"contract": "contracts/Test.sol:MyFunction",
						"label": "myBool",
						"offset": 0,
						"slot": "2",
						"type": "t_bool"
					},
					{
						"astId": 17,
						"contract": "contracts/Test.sol:MyFunction",
						"label": "myArr",
						"offset": 0,
						"slot": "3",
						"type": "t_array(t_uint256)dyn_storage"
					}
				],
				"types": {
					"t_array(t_uint256)dyn_storage": {
						"base": "t_uint256",
						"encoding": "dynamic_array",
						"label": "uint256[]",
						"numberOfBytes": "32"
					},
					"t_bool": {
						"encoding": "inplace",
						"label": "bool",
						"numberOfBytes": "1"
					},
					"t_string_storage": {
						"encoding": "bytes",
						"label": "string",
						"numberOfBytes": "32"
					},
					"t_uint256": {
						"encoding": "inplace",
						"label": "uint256",
						"numberOfBytes": "32"
					}
				}
			},
			"userdoc": {
				"kind": "user",
				"methods": {},
				"version": 1
			}
		}
	}
}