{
	"contracts/Token.sol": {
		"Token": {
			"abi": [
				{
					"inputs": [],
					"stateMutability": "nonpayable",
					"type": "constructor"
				},
				{
					"anonymous": false,
					"inputs": [
						{
							"indexed": true,
							"internalType": "address",
							"name": "owner",
							"type": "address"
						},
						{
							"indexed": true,
							"internalType": "address",
							"name": "spender",
							"type": "address"
						},
						{
							"indexed": false,
							"internalType": "uint256",
							"name": "value",
							"type": "uint256"
						}
					],
					"name": "Approve",
					"type": "event"
				},
				{
					"anonymous": false,
					"inputs": [
						{
							"indexed": true,
							"internalType": "address",
							"name": "from",
							"type": "address"
						},
						{
							"indexed": true,
							"internalType": "address",
							"name": "to",
							"type": "address"
						},
						{
							"indexed": false,
							"internalType": "uint256",
							"name": "value",
							"type": "uint256"
						}
					],
					"name": "Transfer",
					"type": "event"
				},
				{
					"inputs": [
						{
							"internalType": "address",
							"name": "",
							"type": "address"
						},
						{
							"internalType": "address",
							"name": "",
							"type": "address"
						}
					],
					"name": "allowance",
					"outputs": [
						{
							"internalType": "uint256",
							"name": "",
							"type": "uint256"
						}
					],
					"stateMutability": "view",
					"type": "function"
				},
				{
					"inputs": [
						{
							"internalType": "address",
							"name": "_spender",
							"type": "address"
						},
						{
							"internalType": "uint256",
							"name": "_value",
							"type": "uint256"
						}
					],
					"name": "approve",
					"outputs": [
						{
							"internalType": "bool",
							"name": "success",
							"type": "bool"
						}
					],
					"stateMutability": "nonpayable",
					"type": "function"
				},
				{
					"inputs": [
						{
							"internalType": "address",
							"name": "",
							"type": "address"
						}
					],
					"name": "balanceOf",
					"outputs": [
						{
							"internalType": "uint256",
							"name": "",
							"type": "uint256"
						}
					],
					"stateMutability": "view",
					"type": "function"
				},
				{
					"inputs": [
						{
							"internalType": "uint256",
							"name": "_amount",
							"type": "uint256"
						}
					],
					"name": "burn",
					"outputs": [
						{
							"internalType": "bool",
							"name": "success",
							"type": "bool"
						}
					],
					"stateMutability": "nonpayable",
					"type": "function"
				},
				{
					"inputs": [],
					"name": "decimals",
					"outputs": [
						{
							"internalType": "uint8",
							"name": "",
							"type": "uint8"
						}
					],
					"stateMutability": "view",
					"type": "function"
				},
				{
					"inputs": [],
					"name": "getOwner",
					"outputs": [
						{
							"internalType": "address",
							"name": "",
							"type": "address"
						}
					],
					"stateMutability": "view",
					"type": "function"
				},
				{
					"inputs": [
						{
							"internalType": "uint256",
							"name": "_amount",
							"type": "uint256"
						}
					],
					"name": "mint",
					"outputs": [
						{
							"internalType": "bool",
							"name": "success",
							"type": "bool"
						}
					],
					"stateMutability": "nonpayable",
					"type": "function"
				},
				{
					"inputs": [],
					"name": "name",
					"outputs": [
						{
							"internalType": "string",
							"name": "",
							"type": "string"
						}
					],
					"stateMutability": "view",
					"type": "function"
				},
				{
					"inputs": [],
					"name": "owner",
					"outputs": [
						{
							"internalType": "address payable",
							"name": "",
							"type": "address"
						}
					],
					"stateMutability": "view",
					"type": "function"
				},
				{
					"inputs": [],
					"name": "symbol",
					"outputs": [
						{
							"internalType": "string",
							"name": "",
							"type": "string"
						}
					],
					"stateMutability": "view",
					"type": "function"
				},
				{
					"inputs": [],
					"name": "totalSupply",
					"outputs": [
						{
							"internalType": "uint256",
							"name": "",
							"type": "uint256"
						}
					],
					"stateMutability": "view",
					"type": "function"
				},
				{
					"inputs": [
						{
							"internalType": "address",
							"name": "_to",
							"type": "address"
						},
						{
							"internalType": "uint256",
							"name": "_value",
							"type": "uint256"
						}
					],
					"name": "transfer",
					"outputs": [
						{
							"internalType": "bool",
							"name": "success",
							"type": "bool"
						}
					],
					"stateMutability": "nonpayable",
					"type": "function"
				},
				{
					"inputs": [
						{
							"internalType": "address",
							"name": "_from",
							"type": "address"
						},
						{
							"internalType": "address",
							"name": "_to",
							"type": "address"
						},
						{
							"internalType": "uint256",
							"name": "_value",
							"type": "uint256"
						}
					],
					"name": "transferFrom",
					"outputs": [
						{
							"internalType": "bool",
							"name": "success",
							"type": "bool"
						}
					],
					"stateMutability": "nonpayable",
					"type": "function"
				}
			],
			"devdoc": {
				"kind": "dev",
				"methods": {},
				"version": 1
			},
			"evm": {
				"assembly": "    /* \"contracts/Token.sol\":65:4229  contract Token {\r... */\n  mstore(0x40, 0x80)\n    /* \"contracts/Token.sol\":1018:1753  constructor() {\r... */\n  callvalue\n  dup1\n  iszero\n  tag_1\n  jumpi\n  0x00\n  dup1\n  revert\ntag_1:\n  pop\n    /* \"contracts/Token.sol\":1043:1063  name = \"RandomToken\" */\n  mload(0x40)\n  dup1\n  0x40\n  add\n  0x40\n  mstore\n  dup1\n  0x0b\n  dup2\n  mstore\n  0x20\n  add\n  0x52616e646f6d546f6b656e000000000000000000000000000000000000000000\n  dup2\n  mstore\n  pop\n    /* \"contracts/Token.sol\":1043:1047  name */\n  0x00\n    /* \"contracts/Token.sol\":1043:1063  name = \"RandomToken\" */\n  swap1\n  dup1\n  mload\n  swap1\n  0x20\n  add\n  swap1\n  tag_4\n  swap3\n  swap2\n  swap1\n  tag_5\n  jump\t// in\ntag_4:\n  pop\n    /* \"contracts/Token.sol\":1115:1129  symbol = \"RDT\" */\n  mload(0x40)\n  dup1\n  0x40\n  add\n  0x40\n  mstore\n  dup1\n  0x03\n  dup2\n  mstore\n  0x20\n  add\n  0x5244540000000000000000000000000000000000000000000000000000000000\n  dup2\n  mstore\n  pop\n    /* \"contracts/Token.sol\":1115:1121  symbol */\n  0x01\n    /* \"contracts/Token.sol\":1115:1129  symbol = \"RDT\" */\n  swap1\n  dup1\n  mload\n  swap1\n  0x20\n  add\n  swap1\n  tag_6\n  swap3\n  swap2\n  swap1\n  tag_5\n  jump\t// in\ntag_6:\n  pop\n    /* \"contracts/Token.sol\":1192:1194  18 */\n  0x12\n    /* \"contracts/Token.sol\":1181:1189  decimals */\n  0x02\n  0x00\n    /* \"contracts/Token.sol\":1181:1194  decimals = 18 */\n  0x0100\n  exp\n  dup2\n  sload\n  dup2\n  0xff\n  mul\n  not\n  and\n  swap1\n  dup4\n  0xff\n  and\n  mul\n  or\n  swap1\n  sstore\n  pop\n    /* \"contracts/Token.sol\":1242:1264  uint256 _initialSupply */\n  0x00\n    /* \"contracts/Token.sol\":1267:1277  1000000000 */\n  0x3b9aca00\n    /* \"contracts/Token.sol\":1242:1277  uint256 _initialSupply = 1000000000 */\n  swap1\n  pop\n    /* \"contracts/Token.sol\":1408:1418  msg.sender */\n  caller\n    /* \"contracts/Token.sol\":1392:1397  owner */\n  0x04\n  0x00\n    /* \"contracts/Token.sol\":1392:1419  owner = payable(msg.sender) */\n  0x0100\n  exp\n  dup2\n  sload\n  dup2\n  0xffffffffffffffffffffffffffffffffffffffff\n  mul\n  not\n  and\n  swap1\n  dup4\n  0xffffffffffffffffffffffffffffffffffffffff\n  and\n  mul\n  or\n  swap1\n  sstore\n  pop\n    /* \"contracts/Token.sol\":1451:1465  _initialSupply */\n  dup1\n    /* \"contracts/Token.sol\":1432:1441  balanceOf */\n  0x05\n    /* \"contracts/Token.sol\":1432:1448  balanceOf[owner] */\n  0x00\n    /* \"contracts/Token.sol\":1442:1447  owner */\n  0x04\n  0x00\n  swap1\n  sload\n  swap1\n  0x0100\n  exp\n  swap1\n  div\n  0xffffffffffffffffffffffffffffffffffffffff\n  and\n    /* \"contracts/Token.sol\":1432:1448  balanceOf[owner] */\n  0xffffffffffffffffffffffffffffffffffffffff\n  and\n  0xffffffffffffffffffffffffffffffffffffffff\n  and\n  dup2\n  mstore\n  0x20\n  add\n  swap1\n  dup2\n  mstore\n  0x20\n  add\n  0x00\n  keccak256\n    /* \"contracts/Token.sol\":1432:1465  balanceOf[owner] = _initialSupply */\n  dup2\n  swap1\n  sstore\n  pop\n    /* \"contracts/Token.sol\":1523:1537  _initialSupply */\n  dup1\n    /* \"contracts/Token.sol\":1509:1520  totalSupply */\n  0x03\n    /* \"contracts/Token.sol\":1509:1537  totalSupply = _initialSupply */\n  dup2\n  swap1\n  sstore\n  pop\n    /* \"contracts/Token.sol\":1718:1728  msg.sender */\n  caller\n    /* \"contracts/Token.sol\":1697:1745  Transfer(address(0), msg.sender, _initialSupply) */\n  0xffffffffffffffffffffffffffffffffffffffff\n  and\n    /* \"contracts/Token.sol\":1714:1715  0 */\n  0x00\n    /* \"contracts/Token.sol\":1697:1745  Transfer(address(0), msg.sender, _initialSupply) */\n  0xffffffffffffffffffffffffffffffffffffffff\n  and\n  0xddf252ad1be2c89b69c2b068fc378daa952ba7f163c4a11628f55a4df523b3ef\n    /* \"contracts/Token.sol\":1730:1744  _initialSupply */\n  dup4\n    /* \"contracts/Token.sol\":1697:1745  Transfer(address(0), msg.sender, _initialSupply) */\n  mload(0x40)\n  tag_7\n  swap2\n  swap1\n  tag_8\n  jump\t// in\ntag_7:\n  mload(0x40)\n  dup1\n  swap2\n  sub\n  swap1\n  log3\n    /* \"contracts/Token.sol\":1032:1753  {\r... */\n  pop\n    /* \"contracts/Token.sol\":65:4229  contract Token {\r... */\n  jump(tag_9)\ntag_5:\n  dup3\n  dup1\n  sload\n  tag_10\n  swap1\n  tag_11\n  jump\t// in\ntag_10:\n  swap1\n  0x00\n  mstore\n  keccak256(0x00, 0x20)\n  swap1\n  0x1f\n  add\n  0x20\n  swap1\n  div\n  dup2\n  add\n  swap3\n  dup3\n  tag_13\n  jumpi\n  0x00\n  dup6\n  sstore\n  jump(tag_12)\ntag_13:\n  dup3\n  0x1f\n  lt\n  tag_14\n  jumpi\n  dup1\n  mload\n  not(0xff)\n  and\n  dup4\n  dup1\n  add\n  or\n  dup6\n  sstore\n  jump(tag_12)\ntag_14:\n  dup3\n  dup1\n  add\n  0x01\n  add\n  dup6\n  sstore\n  dup3\n  iszero\n  tag_12\n  jumpi\n  swap2\n  dup3\n  add\ntag_15:\n  dup3\n  dup2\n  gt\n  iszero\n  tag_16\n  jumpi\n  dup3\n  mload\n  dup3\n  sstore\n  swap2\n  0x20\n  add\n  swap2\n  swap1\n  0x01\n  add\n  swap1\n  jump(tag_15)\ntag_16:\ntag_12:\n  pop\n  swap1\n  pop\n  tag_17\n  swap2\n  swap1\n  tag_18\n  jump\t// in\ntag_17:\n  pop\n  swap1\n  jump\t// out\ntag_18:\ntag_19:\n  dup1\n  dup3\n  gt\n  iszero\n  tag_20\n  jumpi\n  0x00\n  dup2\n  0x00\n  swap1\n  sstore\n  pop\n  0x01\n  add\n  jump(tag_19)\ntag_20:\n  pop\n  swap1\n  jump\t// out\n    /* \"#utility.yul\":7:125   */\ntag_22:\n    /* \"#utility.yul\":94:118   */\n  tag_24\n    /* \"#utility.yul\":112:117   */\n  dup2\n    /* \"#utility.yul\":94:118   */\n  tag_25\n  jump\t// in\ntag_24:\n    /* \"#utility.yul\":89:92   */\n  dup3\n    /* \"#utility.yul\":82:119   */\n  mstore\n    /* \"#utility.yul\":7:125   */\n  pop\n  pop\n  jump\t// out\n    /* \"#utility.yul\":131:353   */\ntag_8:\n    /* \"#utility.yul\":224:228   */\n  0x00\n    /* \"#utility.yul\":262:264   */\n  0x20\n    /* \"#utility.yul\":251:260   */\n  dup3\n    /* \"#utility.yul\":247:265   */\n  add\n    /* \"#utility.yul\":239:265   */\n  swap1\n  pop\n    /* \"#utility.yul\":275:346   */\n  tag_27\n    /* \"#utility.yul\":343:344   */\n  0x00\n    /* \"#utility.yul\":332:341   */\n  dup4\n    /* \"#utility.yul\":328:345   */\n  add\n    /* \"#utility.yul\":319:325   */\n  dup5\n    /* \"#utility.yul\":275:346   */\n  tag_22\n  jump\t// in\ntag_27:\n    /* \"#utility.yul\":131:353   */\n  swap3\n  swap2\n  pop\n  pop\n  jump\t// out\n    /* \"#utility.yul\":359:436   */\ntag_25:\n    /* \"#utility.yul\":396:403   */\n  0x00\n    /* \"#utility.yul\":425:430   */\n  dup2\n    /* \"#utility.yul\":414:430   */\n  swap1\n  pop\n    /* \"#utility.yul\":359:436   */\n  swap2\n  swap1\n  pop\n  jump\t// out\n    /* \"#utility.yul\":442:762   */\ntag_11:\n    /* \"#utility.yul\":486:492   */\n  0x00\n    /* \"#utility.yul\":523:524   */\n  0x02\n    /* \"#utility.yul\":517:521   */\n  dup3\n    /* \"#utility.yul\":513:525   */\n  div\n    /* \"#utility.yul\":503:525   */\n  swap1\n  pop\n    /* \"#utility.yul\":570:571   */\n  0x01\n    /* \"#utility.yul\":564:568   */\n  dup3\n    /* \"#utility.yul\":560:572   */\n  and\n    /* \"#utility.yul\":591:609   */\n  dup1\n    /* \"#utility.yul\":581:662   */\n  tag_30\n  jumpi\n    /* \"#utility.yul\":647:651   */\n  0x7f\n    /* \"#utility.yul\":639:645   */\n  dup3\n    /* \"#utility.yul\":635:652   */\n  and\n    /* \"#utility.yul\":625:652   */\n  swap2\n  pop\n    /* \"#utility.yul\":581:662   */\ntag_30:\n    /* \"#utility.yul\":709:711   */\n  0x20\n    /* \"#utility.yul\":701:707   */\n  dup3\n    /* \"#utility.yul\":698:712   */\n  lt\n    /* \"#utility.yul\":678:696   */\n  dup2\n    /* \"#utility.yul\":675:713   */\n  eq\n    /* \"#utility.yul\":672:756   */\n  iszero\n  tag_31\n  jumpi\n    /* \"#utility.yul\":728:746   */\n  tag_32\n  tag_33\n  jump\t// in\ntag_32:\n    /* \"#utility.yul\":672:756   */\ntag_31:\n    /* \"#utility.yul\":493:762   */\n  pop\n    /* \"#utility.yul\":442:762   */\n  swap2\n  swap1\n  pop\n  jump\t// out\n    /* \"#utility.yul\":768:948   */\ntag_33:\n    /* \"#utility.yul\":816:893   */\n  0x4e487b7100000000000000000000000000000000000000000000000000000000\n    /* \"#utility.yul\":813:814   */\n  0x00\n    /* \"#utility.yul\":806:894   */\n  mstore\n    /* \"#utility.yul\":913:917   */\n  0x22\n    /* \"#utility.yul\":910:911   */\n  0x04\n    /* \"#utility.yul\":903:918   */\n  mstore\n    /* \"#utility.yul\":937:941   */\n  0x24\n    /* \"#utility.yul\":934:935   */\n  0x00\n    /* \"#utility.yul\":927:942   */\n  revert\n    /* \"contracts/Token.sol\":65:4229  contract Token {\r... */\ntag_9:\n  dataSize(sub_0)\n  dup1\n  dataOffset(sub_0)\n  0x00\n  codecopy\n  0x00\n  return\nstop\n\nsub_0: assembly {\n        /* \"contracts/Token.sol\":65:4229  contract Token {\r... */\n      mstore(0x40, 0x80)\n      callvalue\n      dup1\n      iszero\n      tag_1\n      jumpi\n      0x00\n      dup1\n      revert\n    tag_1:\n      pop\n      jumpi(tag_2, lt(calldatasize, 0x04))\n      shr(0xe0, calldataload(0x00))\n      dup1\n      0x70a08231\n      gt\n      tag_16\n      jumpi\n      dup1\n      0x95d89b41\n      gt\n      tag_17\n      jumpi\n      dup1\n      0x95d89b41\n      eq\n      tag_12\n      jumpi\n      dup1\n      0xa0712d68\n      eq\n      tag_13\n      jumpi\n      dup1\n      0xa9059cbb\n      eq\n      tag_14\n      jumpi\n      dup1\n      0xdd62ed3e\n      eq\n      tag_15\n      jumpi\n      jump(tag_2)\n    tag_17:\n      dup1\n      0x70a08231\n      eq\n      tag_9\n      jumpi\n      dup1\n      0x893d20e8\n      eq\n      tag_10\n      jumpi\n      dup1\n      0x8da5cb5b\n      eq\n      tag_11\n      jumpi\n      jump(tag_2)\n    tag_16:\n      dup1\n      0x06fdde03\n      eq\n      tag_3\n      jumpi\n      dup1\n      0x095ea7b3\n      eq\n      tag_4\n      jumpi\n      dup1\n      0x18160ddd\n      eq\n      tag_5\n      jumpi\n      dup1\n      0x23b872dd\n      eq\n      tag_6\n      jumpi\n      dup1\n      0x313ce567\n      eq\n      tag_7\n      jumpi\n      dup1\n      0x42966c68\n      eq\n      tag_8\n      jumpi\n    tag_2:\n      0x00\n      dup1\n      revert\n        /* \"contracts/Token.sol\":87:105  string public name */\n    tag_3:\n      tag_18\n      tag_19\n      jump\t// in\n    tag_18:\n      mload(0x40)\n      tag_20\n      swap2\n      swap1\n      tag_21\n      jump\t// in\n    tag_20:\n      mload(0x40)\n      dup1\n      swap2\n      sub\n      swap1\n      return\n        /* \"contracts/Token.sol\":3222:3503  function approve(address _spender, uint256 _value) public returns (bool success) {\r... */\n    tag_4:\n      tag_22\n      0x04\n      dup1\n      calldatasize\n      sub\n      dup2\n      add\n      swap1\n      tag_23\n      swap2\n      swap1\n      tag_24\n      jump\t// in\n    tag_23:\n      tag_25\n      jump\t// in\n    tag_22:\n      mload(0x40)\n      tag_26\n      swap2\n      swap1\n      tag_27\n      jump\t// in\n    tag_26:\n      mload(0x40)\n      dup1\n      swap2\n      sub\n      swap1\n      return\n        /* \"contracts/Token.sol\":272:298  uint256 public totalSupply */\n    tag_5:\n      tag_28\n      tag_29\n      jump\t// in\n    tag_28:\n      mload(0x40)\n      tag_30\n      swap2\n      swap1\n      tag_31\n      jump\t// in\n    tag_30:\n      mload(0x40)\n      dup1\n      swap2\n      sub\n      swap1\n      return\n        /* \"contracts/Token.sol\":2429:3216  function transferFrom(address _from, address _to, uint256 _value)\r... */\n    tag_6:\n      tag_32\n      0x04\n      dup1\n      calldatasize\n      sub\n      dup2\n      add\n      swap1\n      tag_33\n      swap2\n      swap1\n      tag_34\n      jump\t// in\n    tag_33:\n      tag_35\n      jump\t// in\n    tag_32:\n      mload(0x40)\n      tag_36\n      swap2\n      swap1\n      tag_27\n      jump\t// in\n    tag_36:\n      mload(0x40)\n      dup1\n      swap2\n      sub\n      swap1\n      return\n        /* \"contracts/Token.sol\":203:224  uint8 public decimals */\n    tag_7:\n      tag_37\n      tag_38\n      jump\t// in\n    tag_37:\n      mload(0x40)\n      tag_39\n      swap2\n      swap1\n      tag_40\n      jump\t// in\n    tag_39:\n      mload(0x40)\n      dup1\n      swap2\n      sub\n      swap1\n      return\n        /* \"contracts/Token.sol\":3808:4226  function burn(uint256 _amount) public returns (bool success) {\r... */\n    tag_8:\n      tag_41\n      0x04\n      dup1\n      calldatasize\n      sub\n      dup2\n      add\n      swap1\n      tag_42\n      swap2\n      swap1\n      tag_43\n      jump\t// in\n    tag_42:\n      tag_44\n      jump\t// in\n    tag_41:\n      mload(0x40)\n      tag_45\n      swap2\n      swap1\n      tag_27\n      jump\t// in\n    tag_45:\n      mload(0x40)\n      dup1\n      swap2\n      sub\n      swap1\n      return\n        /* \"contracts/Token.sol\":464:509  mapping (address => uint256) public balanceOf */\n    tag_9:\n      tag_46\n      0x04\n      dup1\n      calldatasize\n      sub\n      dup2\n      add\n      swap1\n      tag_47\n      swap2\n      swap1\n      tag_48\n      jump\t// in\n    tag_47:\n      tag_49\n      jump\t// in\n    tag_46:\n      mload(0x40)\n      tag_50\n      swap2\n      swap1\n      tag_31\n      jump\t// in\n    tag_50:\n      mload(0x40)\n      dup1\n      swap2\n      sub\n      swap1\n      return\n        /* \"contracts/Token.sol\":1759:1840  function getOwner() public view returns (address) {\r... */\n    tag_10:\n      tag_51\n      tag_52\n      jump\t// in\n    tag_51:\n      mload(0x40)\n      tag_53\n      swap2\n      swap1\n      tag_54\n      jump\t// in\n    tag_53:\n      mload(0x40)\n      dup1\n      swap2\n      sub\n      swap1\n      return\n        /* \"contracts/Token.sol\":343:371  address payable public owner */\n    tag_11:\n      tag_55\n      tag_56\n      jump\t// in\n    tag_55:\n      mload(0x40)\n      tag_57\n      swap2\n      swap1\n      tag_58\n      jump\t// in\n    tag_57:\n      mload(0x40)\n      dup1\n      swap2\n      sub\n      swap1\n      return\n        /* \"contracts/Token.sol\":143:163  string public symbol */\n    tag_12:\n      tag_59\n      tag_60\n      jump\t// in\n    tag_59:\n      mload(0x40)\n      tag_61\n      swap2\n      swap1\n      tag_21\n      jump\t// in\n    tag_61:\n      mload(0x40)\n      dup1\n      swap2\n      sub\n      swap1\n      return\n        /* \"contracts/Token.sol\":3509:3802  function mint(uint256 _amount) public returns (bool success) {\r... */\n    tag_13:\n      tag_62\n      0x04\n      dup1\n      calldatasize\n      sub\n      dup2\n      add\n      swap1\n      tag_63\n      swap2\n      swap1\n      tag_43\n      jump\t// in\n    tag_63:\n      tag_64\n      jump\t// in\n    tag_62:\n      mload(0x40)\n      tag_65\n      swap2\n      swap1\n      tag_27\n      jump\t// in\n    tag_65:\n      mload(0x40)\n      dup1\n      swap2\n      sub\n      swap1\n      return\n        /* \"contracts/Token.sol\":1846:2423  function transfer(address _to, uint256 _value) public returns (bool success) {\r... */\n    tag_14:\n      tag_66\n      0x04\n      dup1\n      calldatasize\n      sub\n      dup2\n      add\n      swap1\n      tag_67\n      swap2\n      swap1\n      tag_24\n      jump\t// in\n    tag_67:\n      tag_68\n      jump\t// in\n    tag_66:\n      mload(0x40)\n      tag_69\n      swap2\n      swap1\n      tag_27\n      jump\t// in\n    tag_69:\n      mload(0x40)\n      dup1\n      swap2\n      sub\n      swap1\n      return\n        /* \"contracts/Token.sol\":578:644  mapping (address => mapping (address => uint256)) public allowance */\n    tag_15:\n      tag_70\n      0x04\n      dup1\n      calldatasize\n      sub\n      dup2\n      add\n      swap1\n      tag_71\n      swap2\n      swap1\n      tag_72\n      jump\t// in\n    tag_71:\n      tag_73\n      jump\t// in\n    tag_70:\n      mload(0x40)\n      tag_74\n      swap2\n      swap1\n      tag_31\n      jump\t// in\n    tag_74:\n      mload(0x40)\n      dup1\n      swap2\n      sub\n      swap1\n      return\n        /* \"contracts/Token.sol\":87:105  string public name */\n    tag_19:\n      0x00\n      dup1\n      sload\n      tag_75\n      swap1\n      tag_76\n      jump\t// in\n    tag_75:\n      dup1\n      0x1f\n      add\n      0x20\n      dup1\n      swap2\n      div\n      mul\n      0x20\n      add\n      mload(0x40)\n      swap1\n      dup2\n      add\n      0x40\n      mstore\n      dup1\n      swap3\n      swap2\n      swap1\n      dup2\n      dup2\n      mstore\n      0x20\n      add\n      dup3\n      dup1\n      sload\n      tag_77\n      swap1\n      tag_76\n      jump\t// in\n    tag_77:\n      dup1\n      iszero\n      tag_78\n      jumpi\n      dup1\n      0x1f\n      lt\n      tag_79\n      jumpi\n      0x0100\n      dup1\n      dup4\n      sload\n      div\n      mul\n      dup4\n      mstore\n      swap2\n      0x20\n      add\n      swap2\n      jump(tag_78)\n    tag_79:\n      dup3\n      add\n      swap2\n      swap1\n      0x00\n      mstore\n      keccak256(0x00, 0x20)\n      swap1\n    tag_80:\n      dup2\n      sload\n      dup2\n      mstore\n      swap1\n      0x01\n      add\n      swap1\n      0x20\n      add\n      dup1\n      dup4\n      gt\n      tag_80\n      jumpi\n      dup3\n      swap1\n      sub\n      0x1f\n      and\n      dup3\n      add\n      swap2\n    tag_78:\n      pop\n      pop\n      pop\n      pop\n      pop\n      dup2\n      jump\t// out\n        /* \"contracts/Token.sol\":3222:3503  function approve(address _spender, uint256 _value) public returns (bool success) {\r... */\n    tag_25:\n        /* \"contracts/Token.sol\":3289:3301  bool success */\n      0x00\n        /* \"contracts/Token.sol\":3331:3332  0 */\n      dup1\n        /* \"contracts/Token.sol\":3322:3328  _value */\n      dup3\n        /* \"contracts/Token.sol\":3322:3332  _value > 0 */\n      gt\n        /* \"contracts/Token.sol\":3314:3365  require(_value > 0, \"Value must be greater than 0\") */\n      tag_82\n      jumpi\n      mload(0x40)\n      0x08c379a000000000000000000000000000000000000000000000000000000000\n      dup2\n      mstore\n      0x04\n      add\n      tag_83\n      swap1\n      tag_84\n      jump\t// in\n    tag_83:\n      mload(0x40)\n      dup1\n      swap2\n      sub\n      swap1\n      revert\n    tag_82:\n        /* \"contracts/Token.sol\":3412:3418  _value */\n      dup2\n        /* \"contracts/Token.sol\":3378:3387  allowance */\n      0x06\n        /* \"contracts/Token.sol\":3378:3399  allowance[msg.sender] */\n      0x00\n        /* \"contracts/Token.sol\":3388:3398  msg.sender */\n      caller\n        /* \"contracts/Token.sol\":3378:3399  allowance[msg.sender] */\n      0xffffffffffffffffffffffffffffffffffffffff\n      and\n      0xffffffffffffffffffffffffffffffffffffffff\n      and\n      dup2\n      mstore\n      0x20\n      add\n      swap1\n      dup2\n      mstore\n      0x20\n      add\n      0x00\n      keccak256\n        /* \"contracts/Token.sol\":3378:3409  allowance[msg.sender][_spender] */\n      0x00\n        /* \"contracts/Token.sol\":3400:3408  _spender */\n      dup6\n        /* \"contracts/Token.sol\":3378:3409  allowance[msg.sender][_spender] */\n      0xffffffffffffffffffffffffffffffffffffffff\n      and\n      0xffffffffffffffffffffffffffffffffffffffff\n      and\n      dup2\n      mstore\n      0x20\n      add\n      swap1\n      dup2\n      mstore\n      0x20\n      add\n      0x00\n      keccak256\n        /* \"contracts/Token.sol\":3378:3418  allowance[msg.sender][_spender] = _value */\n      dup2\n      swap1\n      sstore\n      pop\n        /* \"contracts/Token.sol\":3456:3464  _spender */\n      dup3\n        /* \"contracts/Token.sol\":3436:3473  Approve(msg.sender, _spender, _value) */\n      0xffffffffffffffffffffffffffffffffffffffff\n      and\n        /* \"contracts/Token.sol\":3444:3454  msg.sender */\n      caller\n        /* \"contracts/Token.sol\":3436:3473  Approve(msg.sender, _spender, _value) */\n      0xffffffffffffffffffffffffffffffffffffffff\n      and\n      0x6e11fb1b7f119e3f2fa29896ef5fdf8b8a2d0d4df6fe90ba8668e7d8b2ffa25e\n        /* \"contracts/Token.sol\":3466:3472  _value */\n      dup5\n        /* \"contracts/Token.sol\":3436:3473  Approve(msg.sender, _spender, _value) */\n      mload(0x40)\n      tag_85\n      swap2\n      swap1\n      tag_31\n      jump\t// in\n    tag_85:\n      mload(0x40)\n      dup1\n      swap2\n      sub\n      swap1\n      log3\n        /* \"contracts/Token.sol\":3491:3495  true */\n      0x01\n        /* \"contracts/Token.sol\":3484:3495  return true */\n      swap1\n      pop\n        /* \"contracts/Token.sol\":3222:3503  function approve(address _spender, uint256 _value) public returns (bool success) {\r... */\n      swap3\n      swap2\n      pop\n      pop\n      jump\t// out\n        /* \"contracts/Token.sol\":272:298  uint256 public totalSupply */\n    tag_29:\n      sload(0x03)\n      dup2\n      jump\t// out\n        /* \"contracts/Token.sol\":2429:3216  function transferFrom(address _from, address _to, uint256 _value)\r... */\n    tag_35:\n        /* \"contracts/Token.sol\":2518:2530  bool success */\n      0x00\n        /* \"contracts/Token.sol\":2543:2564  uint256 senderBalance */\n      dup1\n        /* \"contracts/Token.sol\":2567:2576  balanceOf */\n      0x05\n        /* \"contracts/Token.sol\":2567:2588  balanceOf[msg.sender] */\n      0x00\n        /* \"contracts/Token.sol\":2577:2587  msg.sender */\n      caller\n        /* \"contracts/Token.sol\":2567:2588  balanceOf[msg.sender] */\n      0xffffffffffffffffffffffffffffffffffffffff\n      and\n      0xffffffffffffffffffffffffffffffffffffffff\n      and\n      dup2\n      mstore\n      0x20\n      add\n      swap1\n      dup2\n      mstore\n      0x20\n      add\n      0x00\n      keccak256\n      sload\n        /* \"contracts/Token.sol\":2543:2588  uint256 senderBalance = balanceOf[msg.sender] */\n      swap1\n      pop\n        /* \"contracts/Token.sol\":2599:2620  uint256 fromAllowance */\n      0x00\n        /* \"contracts/Token.sol\":2623:2632  allowance */\n      0x06\n        /* \"contracts/Token.sol\":2623:2639  allowance[_from] */\n      0x00\n        /* \"contracts/Token.sol\":2633:2638  _from */\n      dup8\n        /* \"contracts/Token.sol\":2623:2639  allowance[_from] */\n      0xffffffffffffffffffffffffffffffffffffffff\n      and\n      0xffffffffffffffffffffffffffffffffffffffff\n      and\n      dup2\n      mstore\n      0x20\n      add\n      swap1\n      dup2\n      mstore\n      0x20\n      add\n      0x00\n      keccak256\n        /* \"contracts/Token.sol\":2623:2651  allowance[_from][msg.sender] */\n      0x00\n        /* \"contracts/Token.sol\":2640:2650  msg.sender */\n      caller\n        /* \"contracts/Token.sol\":2623:2651  allowance[_from][msg.sender] */\n      0xffffffffffffffffffffffffffffffffffffffff\n      and\n      0xffffffffffffffffffffffffffffffffffffffff\n      and\n      dup2\n      mstore\n      0x20\n      add\n      swap1\n      dup2\n      mstore\n      0x20\n      add\n      0x00\n      keccak256\n      sload\n        /* \"contracts/Token.sol\":2599:2651  uint256 fromAllowance = allowance[_from][msg.sender] */\n      swap1\n      pop\n        /* \"contracts/Token.sol\":2662:2685  uint256 receiverBalance */\n      0x00\n        /* \"contracts/Token.sol\":2688:2697  balanceOf */\n      0x05\n        /* \"contracts/Token.sol\":2688:2702  balanceOf[_to] */\n      0x00\n        /* \"contracts/Token.sol\":2698:2701  _to */\n      dup8\n        /* \"contracts/Token.sol\":2688:2702  balanceOf[_to] */\n      0xffffffffffffffffffffffffffffffffffffffff\n      and\n      0xffffffffffffffffffffffffffffffffffffffff\n      and\n      dup2\n      mstore\n      0x20\n      add\n      swap1\n      dup2\n      mstore\n      0x20\n      add\n      0x00\n      keccak256\n      sload\n        /* \"contracts/Token.sol\":2662:2702  uint256 receiverBalance = balanceOf[_to] */\n      swap1\n      pop\n        /* \"contracts/Token.sol\":2738:2739  0 */\n      0x00\n        /* \"contracts/Token.sol\":2723:2740  _to != address(0) */\n      0xffffffffffffffffffffffffffffffffffffffff\n      and\n        /* \"contracts/Token.sol\":2723:2726  _to */\n      dup7\n        /* \"contracts/Token.sol\":2723:2740  _to != address(0) */\n      0xffffffffffffffffffffffffffffffffffffffff\n      and\n      eq\n      iszero\n        /* \"contracts/Token.sol\":2715:2769  require(_to != address(0), \"Receiver address invalid\") */\n      tag_87\n      jumpi\n      mload(0x40)\n      0x08c379a000000000000000000000000000000000000000000000000000000000\n      dup2\n      mstore\n      0x04\n      add\n      tag_88\n      swap1\n      tag_89\n      jump\t// in\n    tag_88:\n      mload(0x40)\n      dup1\n      swap2\n      sub\n      swap1\n      revert\n    tag_87:\n        /* \"contracts/Token.sol\":2798:2799  0 */\n      0x00\n        /* \"contracts/Token.sol\":2788:2794  _value */\n      dup6\n        /* \"contracts/Token.sol\":2788:2799  _value >= 0 */\n      lt\n      iszero\n        /* \"contracts/Token.sol\":2780:2839  require(_value >= 0, \"Value must be greater or equal to 0\") */\n      tag_90\n      jumpi\n      mload(0x40)\n      0x08c379a000000000000000000000000000000000000000000000000000000000\n      dup2\n      mstore\n      0x04\n      add\n      tag_91\n      swap1\n      tag_92\n      jump\t// in\n    tag_91:\n      mload(0x40)\n      dup1\n      swap2\n      sub\n      swap1\n      revert\n    tag_90:\n        /* \"contracts/Token.sol\":2874:2880  _value */\n      dup5\n        /* \"contracts/Token.sol\":2858:2871  senderBalance */\n      dup4\n        /* \"contracts/Token.sol\":2858:2880  senderBalance > _value */\n      gt\n        /* \"contracts/Token.sol\":2850:2903  require(senderBalance > _value, \"Not enough balance\") */\n      tag_93\n      jumpi\n      mload(0x40)\n      0x08c379a000000000000000000000000000000000000000000000000000000000\n      dup2\n      mstore\n      0x04\n      add\n      tag_94\n      swap1\n      tag_95\n      jump\t// in\n    tag_94:\n      mload(0x40)\n      dup1\n      swap2\n      sub\n      swap1\n      revert\n    tag_93:\n        /* \"contracts/Token.sol\":2939:2945  _value */\n      dup5\n        /* \"contracts/Token.sol\":2922:2935  fromAllowance */\n      dup3\n        /* \"contracts/Token.sol\":2922:2945  fromAllowance >= _value */\n      lt\n      iszero\n        /* \"contracts/Token.sol\":2914:2970  require(fromAllowance >= _value, \"Not enough allowance\") */\n      tag_96\n      jumpi\n      mload(0x40)\n      0x08c379a000000000000000000000000000000000000000000000000000000000\n      dup2\n      mstore\n      0x04\n      add\n      tag_97\n      swap1\n      tag_98\n      jump\t// in\n    tag_97:\n      mload(0x40)\n      dup1\n      swap2\n      sub\n      swap1\n      revert\n    tag_96:\n        /* \"contracts/Token.sol\":3018:3024  _value */\n      dup5\n        /* \"contracts/Token.sol\":3002:3015  senderBalance */\n      dup4\n        /* \"contracts/Token.sol\":3002:3024  senderBalance - _value */\n      tag_99\n      swap2\n      swap1\n      tag_100\n      jump\t// in\n    tag_99:\n        /* \"contracts/Token.sol\":2983:2992  balanceOf */\n      0x05\n        /* \"contracts/Token.sol\":2983:2999  balanceOf[_from] */\n      0x00\n        /* \"contracts/Token.sol\":2993:2998  _from */\n      dup10\n        /* \"contracts/Token.sol\":2983:2999  balanceOf[_from] */\n      0xffffffffffffffffffffffffffffffffffffffff\n      and\n      0xffffffffffffffffffffffffffffffffffffffff\n      and\n      dup2\n      mstore\n      0x20\n      add\n      swap1\n      dup2\n      mstore\n      0x20\n      add\n      0x00\n      keccak256\n        /* \"contracts/Token.sol\":2983:3024  balanceOf[_from] = senderBalance - _value */\n      dup2\n      swap1\n      sstore\n      pop\n        /* \"contracts/Token.sol\":3070:3076  _value */\n      dup5\n        /* \"contracts/Token.sol\":3052:3067  receiverBalance */\n      dup2\n        /* \"contracts/Token.sol\":3052:3076  receiverBalance + _value */\n      tag_101\n      swap2\n      swap1\n      tag_102\n      jump\t// in\n    tag_101:\n        /* \"contracts/Token.sol\":3035:3044  balanceOf */\n      0x05\n        /* \"contracts/Token.sol\":3035:3049  balanceOf[_to] */\n      0x00\n        /* \"contracts/Token.sol\":3045:3048  _to */\n      dup9\n        /* \"contracts/Token.sol\":3035:3049  balanceOf[_to] */\n      0xffffffffffffffffffffffffffffffffffffffff\n      and\n      0xffffffffffffffffffffffffffffffffffffffff\n      and\n      dup2\n      mstore\n      0x20\n      add\n      swap1\n      dup2\n      mstore\n      0x20\n      add\n      0x00\n      keccak256\n        /* \"contracts/Token.sol\":3035:3076  balanceOf[_to] = receiverBalance + _value */\n      dup2\n      swap1\n      sstore\n      pop\n        /* \"contracts/Token.sol\":3134:3140  _value */\n      dup5\n        /* \"contracts/Token.sol\":3118:3131  fromAllowance */\n      dup3\n        /* \"contracts/Token.sol\":3118:3140  fromAllowance - _value */\n      tag_103\n      swap2\n      swap1\n      tag_100\n      jump\t// in\n    tag_103:\n        /* \"contracts/Token.sol\":3087:3096  allowance */\n      0x06\n        /* \"contracts/Token.sol\":3087:3103  allowance[_from] */\n      0x00\n        /* \"contracts/Token.sol\":3097:3102  _from */\n      dup10\n        /* \"contracts/Token.sol\":3087:3103  allowance[_from] */\n      0xffffffffffffffffffffffffffffffffffffffff\n      and\n      0xffffffffffffffffffffffffffffffffffffffff\n      and\n      dup2\n      mstore\n      0x20\n      add\n      swap1\n      dup2\n      mstore\n      0x20\n      add\n      0x00\n      keccak256\n        /* \"contracts/Token.sol\":3087:3115  allowance[_from][msg.sender] */\n      0x00\n        /* \"contracts/Token.sol\":3104:3114  msg.sender */\n      caller\n        /* \"contracts/Token.sol\":3087:3115  allowance[_from][msg.sender] */\n      0xffffffffffffffffffffffffffffffffffffffff\n      and\n      0xffffffffffffffffffffffffffffffffffffffff\n      and\n      dup2\n      mstore\n      0x20\n      add\n      swap1\n      dup2\n      mstore\n      0x20\n      add\n      0x00\n      keccak256\n        /* \"contracts/Token.sol\":3087:3140  allowance[_from][msg.sender] = fromAllowance - _value */\n      dup2\n      swap1\n      sstore\n      pop\n        /* \"contracts/Token.sol\":3174:3177  _to */\n      dup6\n        /* \"contracts/Token.sol\":3158:3186  Transfer(_from, _to, _value) */\n      0xffffffffffffffffffffffffffffffffffffffff\n      and\n        /* \"contracts/Token.sol\":3167:3172  _from */\n      dup8\n        /* \"contracts/Token.sol\":3158:3186  Transfer(_from, _to, _value) */\n      0xffffffffffffffffffffffffffffffffffffffff\n      and\n      0xddf252ad1be2c89b69c2b068fc378daa952ba7f163c4a11628f55a4df523b3ef\n        /* \"contracts/Token.sol\":3179:3185  _value */\n      dup8\n        /* \"contracts/Token.sol\":3158:3186  Transfer(_from, _to, _value) */\n      mload(0x40)\n      tag_104\n      swap2\n      swap1\n      tag_31\n      jump\t// in\n    tag_104:\n      mload(0x40)\n      dup1\n      swap2\n      sub\n      swap1\n      log3\n        /* \"contracts/Token.sol\":3204:3208  true */\n      0x01\n        /* \"contracts/Token.sol\":3197:3208  return true */\n      swap4\n      pop\n      pop\n      pop\n      pop\n        /* \"contracts/Token.sol\":2429:3216  function transferFrom(address _from, address _to, uint256 _value)\r... */\n      swap4\n      swap3\n      pop\n      pop\n      pop\n      jump\t// out\n        /* \"contracts/Token.sol\":203:224  uint8 public decimals */\n    tag_38:\n      0x02\n      0x00\n      swap1\n      sload\n      swap1\n      0x0100\n      exp\n      swap1\n      div\n      0xff\n      and\n      dup2\n      jump\t// out\n        /* \"contracts/Token.sol\":3808:4226  function burn(uint256 _amount) public returns (bool success) {\r... */\n    tag_44:\n        /* \"contracts/Token.sol\":3855:3867  bool success */\n      0x00\n        /* \"contracts/Token.sol\":3908:3909  0 */\n      dup1\n        /* \"contracts/Token.sol\":3886:3910  msg.sender != address(0) */\n      0xffffffffffffffffffffffffffffffffffffffff\n      and\n        /* \"contracts/Token.sol\":3886:3896  msg.sender */\n      caller\n        /* \"contracts/Token.sol\":3886:3910  msg.sender != address(0) */\n      0xffffffffffffffffffffffffffffffffffffffff\n      and\n      eq\n      iszero\n        /* \"contracts/Token.sol\":3878:3937  require(msg.sender != address(0), \"Invalid burn recipient\") */\n      tag_106\n      jumpi\n      mload(0x40)\n      0x08c379a000000000000000000000000000000000000000000000000000000000\n      dup2\n      mstore\n      0x04\n      add\n      tag_107\n      swap1\n      tag_108\n      jump\t// in\n    tag_107:\n      mload(0x40)\n      dup1\n      swap2\n      sub\n      swap1\n      revert\n    tag_106:\n        /* \"contracts/Token.sol\":3948:3970  uint256 accountBalance */\n      0x00\n        /* \"contracts/Token.sol\":3973:3982  balanceOf */\n      0x05\n        /* \"contracts/Token.sol\":3973:3994  balanceOf[msg.sender] */\n      0x00\n        /* \"contracts/Token.sol\":3983:3993  msg.sender */\n      caller\n        /* \"contracts/Token.sol\":3973:3994  balanceOf[msg.sender] */\n      0xffffffffffffffffffffffffffffffffffffffff\n      and\n      0xffffffffffffffffffffffffffffffffffffffff\n      and\n      dup2\n      mstore\n      0x20\n      add\n      swap1\n      dup2\n      mstore\n      0x20\n      add\n      0x00\n      keccak256\n      sload\n        /* \"contracts/Token.sol\":3948:3994  uint256 accountBalance = balanceOf[msg.sender] */\n      swap1\n      pop\n        /* \"contracts/Token.sol\":4028:4035  _amount */\n      dup3\n        /* \"contracts/Token.sol\":4011:4025  accountBalance */\n      dup2\n        /* \"contracts/Token.sol\":4011:4035  accountBalance > _amount */\n      gt\n        /* \"contracts/Token.sol\":4003:4067  require(accountBalance > _amount, \"Burn amount exceeds balance\") */\n      tag_109\n      jumpi\n      mload(0x40)\n      0x08c379a000000000000000000000000000000000000000000000000000000000\n      dup2\n      mstore\n      0x04\n      add\n      tag_110\n      swap1\n      tag_111\n      jump\t// in\n    tag_110:\n      mload(0x40)\n      dup1\n      swap2\n      sub\n      swap1\n      revert\n    tag_109:\n        /* \"contracts/Token.sol\":4103:4110  _amount */\n      dup3\n        /* \"contracts/Token.sol\":4078:4087  balanceOf */\n      0x05\n        /* \"contracts/Token.sol\":4078:4099  balanceOf[msg.sender] */\n      0x00\n        /* \"contracts/Token.sol\":4088:4098  msg.sender */\n      caller\n        /* \"contracts/Token.sol\":4078:4099  balanceOf[msg.sender] */\n      0xffffffffffffffffffffffffffffffffffffffff\n      and\n      0xffffffffffffffffffffffffffffffffffffffff\n      and\n      dup2\n      mstore\n      0x20\n      add\n      swap1\n      dup2\n      mstore\n      0x20\n      add\n      0x00\n      keccak256\n      0x00\n        /* \"contracts/Token.sol\":4078:4110  balanceOf[msg.sender] -= _amount */\n      dup3\n      dup3\n      sload\n      tag_112\n      swap2\n      swap1\n      tag_100\n      jump\t// in\n    tag_112:\n      swap3\n      pop\n      pop\n      dup2\n      swap1\n      sstore\n      pop\n        /* \"contracts/Token.sol\":4134:4141  _amount */\n      dup3\n        /* \"contracts/Token.sol\":4119:4130  totalSupply */\n      0x03\n      0x00\n        /* \"contracts/Token.sol\":4119:4141  totalSupply -= _amount */\n      dup3\n      dup3\n      sload\n      tag_113\n      swap2\n      swap1\n      tag_100\n      jump\t// in\n    tag_113:\n      swap3\n      pop\n      pop\n      dup2\n      swap1\n      sstore\n      pop\n        /* \"contracts/Token.sol\":4186:4187  0 */\n      0x00\n        /* \"contracts/Token.sol\":4157:4198  Transfer(msg.sender, address(0), _amount) */\n      0xffffffffffffffffffffffffffffffffffffffff\n      and\n        /* \"contracts/Token.sol\":4166:4176  msg.sender */\n      caller\n        /* \"contracts/Token.sol\":4157:4198  Transfer(msg.sender, address(0), _amount) */\n      0xffffffffffffffffffffffffffffffffffffffff\n      and\n      0xddf252ad1be2c89b69c2b068fc378daa952ba7f163c4a11628f55a4df523b3ef\n        /* \"contracts/Token.sol\":4190:4197  _amount */\n      dup6\n        /* \"contracts/Token.sol\":4157:4198  Transfer(msg.sender, address(0), _amount) */\n      mload(0x40)\n      tag_114\n      swap2\n      swap1\n      tag_31\n      jump\t// in\n    tag_114:\n      mload(0x40)\n      dup1\n      swap2\n      sub\n      swap1\n      log3\n        /* \"contracts/Token.sol\":4214:4218  true */\n      0x01\n        /* \"contracts/Token.sol\":4207:4218  return true */\n      swap2\n      pop\n      pop\n        /* \"contracts/Token.sol\":3808:4226  function burn(uint256 _amount) public returns (bool success) {\r... */\n      swap2\n      swap1\n      pop\n      jump\t// out\n        /* \"contracts/Token.sol\":464:509  mapping (address => uint256) public balanceOf */\n    tag_49:\n      mstore(0x20, 0x05)\n      dup1\n      0x00\n      mstore\n      keccak256(0x00, 0x40)\n      0x00\n      swap2\n      pop\n      swap1\n      pop\n      sload\n      dup2\n      jump\t// out\n        /* \"contracts/Token.sol\":1759:1840  function getOwner() public view returns (address) {\r... */\n    tag_52:\n        /* \"contracts/Token.sol\":1800:1807  address */\n      0x00\n        /* \"contracts/Token.sol\":1827:1832  owner */\n      0x04\n      0x00\n      swap1\n      sload\n      swap1\n      0x0100\n      exp\n      swap1\n      div\n      0xffffffffffffffffffffffffffffffffffffffff\n      and\n        /* \"contracts/Token.sol\":1820:1832  return owner */\n      swap1\n      pop\n        /* \"contracts/Token.sol\":1759:1840  function getOwner() public view returns (address) {\r... */\n      swap1\n      jump\t// out\n        /* \"contracts/Token.sol\":343:371  address payable public owner */\n    tag_56:\n      0x04\n      0x00\n      swap1\n      sload\n      swap1\n      0x0100\n      exp\n      swap1\n      div\n      0xffffffffffffffffffffffffffffffffffffffff\n      and\n      dup2\n      jump\t// out\n        /* \"contracts/Token.sol\":143:163  string public symbol */\n    tag_60:\n      0x01\n      dup1\n      sload\n      tag_116\n      swap1\n      tag_76\n      jump\t// in\n    tag_116:\n      dup1\n      0x1f\n      add\n      0x20\n      dup1\n      swap2\n      div\n      mul\n      0x20\n      add\n      mload(0x40)\n      swap1\n      dup2\n      add\n      0x40\n      mstore\n      dup1\n      swap3\n      swap2\n      swap1\n      dup2\n      dup2\n      mstore\n      0x20\n      add\n      dup3\n      dup1\n      sload\n      tag_117\n      swap1\n      tag_76\n      jump\t// in\n    tag_117:\n      dup1\n      iszero\n      tag_118\n      jumpi\n      dup1\n      0x1f\n      lt\n      tag_119\n      jumpi\n      0x0100\n      dup1\n      dup4\n      sload\n      div\n      mul\n      dup4\n      mstore\n      swap2\n      0x20\n      add\n      swap2\n      jump(tag_118)\n    tag_119:\n      dup3\n      add\n      swap2\n      swap1\n      0x00\n      mstore\n      keccak256(0x00, 0x20)\n      swap1\n    tag_120:\n      dup2\n      sload\n      dup2\n      mstore\n      swap1\n      0x01\n      add\n      swap1\n      0x20\n      add\n      dup1\n      dup4\n      gt\n      tag_120\n      jumpi\n      dup3\n      swap1\n      sub\n      0x1f\n      and\n      dup3\n      add\n      swap2\n    tag_118:\n      pop\n      pop\n      pop\n      pop\n      pop\n      dup2\n      jump\t// out\n        /* \"contracts/Token.sol\":3509:3802  function mint(uint256 _amount) public returns (bool success) {\r... */\n    tag_64:\n        /* \"contracts/Token.sol\":3556:3568  bool success */\n      0x00\n        /* \"contracts/Token.sol\":3603:3608  owner */\n      0x04\n      0x00\n      swap1\n      sload\n      swap1\n      0x0100\n      exp\n      swap1\n      div\n      0xffffffffffffffffffffffffffffffffffffffff\n      and\n        /* \"contracts/Token.sol\":3589:3608  msg.sender == owner */\n      0xffffffffffffffffffffffffffffffffffffffff\n      and\n        /* \"contracts/Token.sol\":3589:3599  msg.sender */\n      caller\n        /* \"contracts/Token.sol\":3589:3608  msg.sender == owner */\n      0xffffffffffffffffffffffffffffffffffffffff\n      and\n      eq\n        /* \"contracts/Token.sol\":3581:3635  require(msg.sender == owner, \"Operation unauthorised\") */\n      tag_122\n      jumpi\n      mload(0x40)\n      0x08c379a000000000000000000000000000000000000000000000000000000000\n      dup2\n      mstore\n      0x04\n      add\n      tag_123\n      swap1\n      tag_124\n      jump\t// in\n    tag_123:\n      mload(0x40)\n      dup1\n      swap2\n      sub\n      swap1\n      revert\n    tag_122:\n        /* \"contracts/Token.sol\":3663:3670  _amount */\n      dup2\n        /* \"contracts/Token.sol\":3648:3659  totalSupply */\n      0x03\n      0x00\n        /* \"contracts/Token.sol\":3648:3670  totalSupply += _amount */\n      dup3\n      dup3\n      sload\n      tag_125\n      swap2\n      swap1\n      tag_102\n      jump\t// in\n    tag_125:\n      swap3\n      pop\n      pop\n      dup2\n      swap1\n      sstore\n      pop\n        /* \"contracts/Token.sol\":3706:3713  _amount */\n      dup2\n        /* \"contracts/Token.sol\":3681:3690  balanceOf */\n      0x05\n        /* \"contracts/Token.sol\":3681:3702  balanceOf[msg.sender] */\n      0x00\n        /* \"contracts/Token.sol\":3691:3701  msg.sender */\n      caller\n        /* \"contracts/Token.sol\":3681:3702  balanceOf[msg.sender] */\n      0xffffffffffffffffffffffffffffffffffffffff\n      and\n      0xffffffffffffffffffffffffffffffffffffffff\n      and\n      dup2\n      mstore\n      0x20\n      add\n      swap1\n      dup2\n      mstore\n      0x20\n      add\n      0x00\n      keccak256\n      0x00\n        /* \"contracts/Token.sol\":3681:3713  balanceOf[msg.sender] += _amount */\n      dup3\n      dup3\n      sload\n      tag_126\n      swap2\n      swap1\n      tag_102\n      jump\t// in\n    tag_126:\n      swap3\n      pop\n      pop\n      dup2\n      swap1\n      sstore\n      pop\n        /* \"contracts/Token.sol\":3752:3762  msg.sender */\n      caller\n        /* \"contracts/Token.sol\":3731:3772  Transfer(address(0), msg.sender, _amount) */\n      0xffffffffffffffffffffffffffffffffffffffff\n      and\n        /* \"contracts/Token.sol\":3748:3749  0 */\n      0x00\n        /* \"contracts/Token.sol\":3731:3772  Transfer(address(0), msg.sender, _amount) */\n      0xffffffffffffffffffffffffffffffffffffffff\n      and\n      0xddf252ad1be2c89b69c2b068fc378daa952ba7f163c4a11628f55a4df523b3ef\n        /* \"contracts/Token.sol\":3764:3771  _amount */\n      dup5\n        /* \"contracts/Token.sol\":3731:3772  Transfer(address(0), msg.sender, _amount) */\n      mload(0x40)\n      tag_127\n      swap2\n      swap1\n      tag_31\n      jump\t// in\n    tag_127:\n      mload(0x40)\n      dup1\n      swap2\n      sub\n      swap1\n      log3\n        /* \"contracts/Token.sol\":3790:3794  true */\n      0x01\n        /* \"contracts/Token.sol\":3783:3794  return true */\n      swap1\n      pop\n        /* \"contracts/Token.sol\":3509:3802  function mint(uint256 _amount) public returns (bool success) {\r... */\n      swap2\n      swap1\n      pop\n      jump\t// out\n        /* \"contracts/Token.sol\":1846:2423  function transfer(address _to, uint256 _value) public returns (bool success) {\r... */\n    tag_68:\n        /* \"contracts/Token.sol\":1909:1921  bool success */\n      0x00\n        /* \"contracts/Token.sol\":1934:1955  uint256 senderBalance */\n      dup1\n        /* \"contracts/Token.sol\":1958:1967  balanceOf */\n      0x05\n        /* \"contracts/Token.sol\":1958:1979  balanceOf[msg.sender] */\n      0x00\n        /* \"contracts/Token.sol\":1968:1978  msg.sender */\n      caller\n        /* \"contracts/Token.sol\":1958:1979  balanceOf[msg.sender] */\n      0xffffffffffffffffffffffffffffffffffffffff\n      and\n      0xffffffffffffffffffffffffffffffffffffffff\n      and\n      dup2\n      mstore\n      0x20\n      add\n      swap1\n      dup2\n      mstore\n      0x20\n      add\n      0x00\n      keccak256\n      sload\n        /* \"contracts/Token.sol\":1934:1979  uint256 senderBalance = balanceOf[msg.sender] */\n      swap1\n      pop\n        /* \"contracts/Token.sol\":1990:2013  uint256 receiverBalance */\n      0x00\n        /* \"contracts/Token.sol\":2016:2025  balanceOf */\n      0x05\n        /* \"contracts/Token.sol\":2016:2030  balanceOf[_to] */\n      0x00\n        /* \"contracts/Token.sol\":2026:2029  _to */\n      dup7\n        /* \"contracts/Token.sol\":2016:2030  balanceOf[_to] */\n      0xffffffffffffffffffffffffffffffffffffffff\n      and\n      0xffffffffffffffffffffffffffffffffffffffff\n      and\n      dup2\n      mstore\n      0x20\n      add\n      swap1\n      dup2\n      mstore\n      0x20\n      add\n      0x00\n      keccak256\n      sload\n        /* \"contracts/Token.sol\":1990:2030  uint256 receiverBalance = balanceOf[_to] */\n      swap1\n      pop\n        /* \"contracts/Token.sol\":2066:2067  0 */\n      0x00\n        /* \"contracts/Token.sol\":2051:2068  _to != address(0) */\n      0xffffffffffffffffffffffffffffffffffffffff\n      and\n        /* \"contracts/Token.sol\":2051:2054  _to */\n      dup6\n        /* \"contracts/Token.sol\":2051:2068  _to != address(0) */\n      0xffffffffffffffffffffffffffffffffffffffff\n      and\n      eq\n      iszero\n        /* \"contracts/Token.sol\":2043:2097  require(_to != address(0), \"Receiver address invalid\") */\n      tag_129\n      jumpi\n      mload(0x40)\n      0x08c379a000000000000000000000000000000000000000000000000000000000\n      dup2\n      mstore\n      0x04\n      add\n      tag_130\n      swap1\n      tag_89\n      jump\t// in\n    tag_130:\n      mload(0x40)\n      dup1\n      swap2\n      sub\n      swap1\n      revert\n    tag_129:\n        /* \"contracts/Token.sol\":2126:2127  0 */\n      0x00\n        /* \"contracts/Token.sol\":2116:2122  _value */\n      dup5\n        /* \"contracts/Token.sol\":2116:2127  _value >= 0 */\n      lt\n      iszero\n        /* \"contracts/Token.sol\":2108:2167  require(_value >= 0, \"Value must be greater or equal to 0\") */\n      tag_131\n      jumpi\n      mload(0x40)\n      0x08c379a000000000000000000000000000000000000000000000000000000000\n      dup2\n      mstore\n      0x04\n      add\n      tag_132\n      swap1\n      tag_92\n      jump\t// in\n    tag_132:\n      mload(0x40)\n      dup1\n      swap2\n      sub\n      swap1\n      revert\n    tag_131:\n        /* \"contracts/Token.sol\":2202:2208  _value */\n      dup4\n        /* \"contracts/Token.sol\":2186:2199  senderBalance */\n      dup3\n        /* \"contracts/Token.sol\":2186:2208  senderBalance > _value */\n      gt\n        /* \"contracts/Token.sol\":2178:2231  require(senderBalance > _value, \"Not enough balance\") */\n      tag_133\n      jumpi\n      mload(0x40)\n      0x08c379a000000000000000000000000000000000000000000000000000000000\n      dup2\n      mstore\n      0x04\n      add\n      tag_134\n      swap1\n      tag_95\n      jump\t// in\n    tag_134:\n      mload(0x40)\n      dup1\n      swap2\n      sub\n      swap1\n      revert\n    tag_133:\n        /* \"contracts/Token.sol\":2284:2290  _value */\n      dup4\n        /* \"contracts/Token.sol\":2268:2281  senderBalance */\n      dup3\n        /* \"contracts/Token.sol\":2268:2290  senderBalance - _value */\n      tag_135\n      swap2\n      swap1\n      tag_100\n      jump\t// in\n    tag_135:\n        /* \"contracts/Token.sol\":2244:2253  balanceOf */\n      0x05\n        /* \"contracts/Token.sol\":2244:2265  balanceOf[msg.sender] */\n      0x00\n        /* \"contracts/Token.sol\":2254:2264  msg.sender */\n      caller\n        /* \"contracts/Token.sol\":2244:2265  balanceOf[msg.sender] */\n      0xffffffffffffffffffffffffffffffffffffffff\n      and\n      0xffffffffffffffffffffffffffffffffffffffff\n      and\n      dup2\n      mstore\n      0x20\n      add\n      swap1\n      dup2\n      mstore\n      0x20\n      add\n      0x00\n      keccak256\n        /* \"contracts/Token.sol\":2244:2290  balanceOf[msg.sender] = senderBalance - _value */\n      dup2\n      swap1\n      sstore\n      pop\n        /* \"contracts/Token.sol\":2336:2342  _value */\n      dup4\n        /* \"contracts/Token.sol\":2318:2333  receiverBalance */\n      dup2\n        /* \"contracts/Token.sol\":2318:2342  receiverBalance + _value */\n      tag_136\n      swap2\n      swap1\n      tag_102\n      jump\t// in\n    tag_136:\n        /* \"contracts/Token.sol\":2301:2310  balanceOf */\n      0x05\n        /* \"contracts/Token.sol\":2301:2315  balanceOf[_to] */\n      0x00\n        /* \"contracts/Token.sol\":2311:2314  _to */\n      dup8\n        /* \"contracts/Token.sol\":2301:2315  balanceOf[_to] */\n      0xffffffffffffffffffffffffffffffffffffffff\n      and\n      0xffffffffffffffffffffffffffffffffffffffff\n      and\n      dup2\n      mstore\n      0x20\n      add\n      swap1\n      dup2\n      mstore\n      0x20\n      add\n      0x00\n      keccak256\n        /* \"contracts/Token.sol\":2301:2342  balanceOf[_to] = receiverBalance + _value */\n      dup2\n      swap1\n      sstore\n      pop\n        /* \"contracts/Token.sol\":2381:2384  _to */\n      dup5\n        /* \"contracts/Token.sol\":2360:2393  Transfer(msg.sender, _to, _value) */\n      0xffffffffffffffffffffffffffffffffffffffff\n      and\n        /* \"contracts/Token.sol\":2369:2379  msg.sender */\n      caller\n        /* \"contracts/Token.sol\":2360:2393  Transfer(msg.sender, _to, _value) */\n      0xffffffffffffffffffffffffffffffffffffffff\n      and\n      0xddf252ad1be2c89b69c2b068fc378daa952ba7f163c4a11628f55a4df523b3ef\n        /* \"contracts/Token.sol\":2386:2392  _value */\n      dup7\n        /* \"contracts/Token.sol\":2360:2393  Transfer(msg.sender, _to, _value) */\n      mload(0x40)\n      tag_137\n      swap2\n      swap1\n      tag_31\n      jump\t// in\n    tag_137:\n      mload(0x40)\n      dup1\n      swap2\n      sub\n      swap1\n      log3\n        /* \"contracts/Token.sol\":2411:2415  true */\n      0x01\n        /* \"contracts/Token.sol\":2404:2415  return true */\n      swap3\n      pop\n      pop\n      pop\n        /* \"contracts/Token.sol\":1846:2423  function transfer(address _to, uint256 _value) public returns (bool success) {\r... */\n      swap3\n      swap2\n      pop\n      pop\n      jump\t// out\n        /* \"contracts/Token.sol\":578:644  mapping (address => mapping (address => uint256)) public allowance */\n    tag_73:\n      mstore(0x20, 0x06)\n      dup2\n      0x00\n      mstore\n      mstore(0x20, keccak256(0x00, 0x40))\n      dup1\n      0x00\n      mstore\n      keccak256(0x00, 0x40)\n      0x00\n      swap2\n      pop\n      swap2\n      pop\n      pop\n      sload\n      dup2\n      jump\t// out\n        /* \"#utility.yul\":7:146   */\n    tag_139:\n        /* \"#utility.yul\":53:58   */\n      0x00\n        /* \"#utility.yul\":91:97   */\n      dup2\n        /* \"#utility.yul\":78:98   */\n      calldataload\n        /* \"#utility.yul\":69:98   */\n      swap1\n      pop\n        /* \"#utility.yul\":107:140   */\n      tag_141\n        /* \"#utility.yul\":134:139   */\n      dup2\n        /* \"#utility.yul\":107:140   */\n      tag_142\n      jump\t// in\n    tag_141:\n        /* \"#utility.yul\":7:146   */\n      swap3\n      swap2\n      pop\n      pop\n      jump\t// out\n        /* \"#utility.yul\":152:291   */\n    tag_143:\n        /* \"#utility.yul\":198:203   */\n      0x00\n        /* \"#utility.yul\":236:242   */\n      dup2\n        /* \"#utility.yul\":223:243   */\n      calldataload\n        /* \"#utility.yul\":214:243   */\n      swap1\n      pop\n        /* \"#utility.yul\":252:285   */\n      tag_145\n        /* \"#utility.yul\":279:284   */\n      dup2\n        /* \"#utility.yul\":252:285   */\n      tag_146\n      jump\t// in\n    tag_145:\n        /* \"#utility.yul\":152:291   */\n      swap3\n      swap2\n      pop\n      pop\n      jump\t// out\n        /* \"#utility.yul\":297:626   */\n    tag_48:\n        /* \"#utility.yul\":356:362   */\n      0x00\n        /* \"#utility.yul\":405:407   */\n      0x20\n        /* \"#utility.yul\":393:402   */\n      dup3\n        /* \"#utility.yul\":384:391   */\n      dup5\n        /* \"#utility.yul\":380:403   */\n      sub\n        /* \"#utility.yul\":376:408   */\n      slt\n        /* \"#utility.yul\":373:492   */\n      iszero\n      tag_148\n      jumpi\n        /* \"#utility.yul\":411:490   */\n      tag_149\n      tag_150\n      jump\t// in\n    tag_149:\n        /* \"#utility.yul\":373:492   */\n    tag_148:\n        /* \"#utility.yul\":531:532   */\n      0x00\n        /* \"#utility.yul\":556:609   */\n      tag_151\n        /* \"#utility.yul\":601:608   */\n      dup5\n        /* \"#utility.yul\":592:598   */\n      dup3\n        /* \"#utility.yul\":581:590   */\n      dup6\n        /* \"#utility.yul\":577:599   */\n      add\n        /* \"#utility.yul\":556:609   */\n      tag_139\n      jump\t// in\n    tag_151:\n        /* \"#utility.yul\":546:609   */\n      swap2\n      pop\n        /* \"#utility.yul\":502:619   */\n      pop\n        /* \"#utility.yul\":297:626   */\n      swap3\n      swap2\n      pop\n      pop\n      jump\t// out\n        /* \"#utility.yul\":632:1106   */\n    tag_72:\n        /* \"#utility.yul\":700:706   */\n      0x00\n        /* \"#utility.yul\":708:714   */\n      dup1\n        /* \"#utility.yul\":757:759   */\n      0x40\n        /* \"#utility.yul\":745:754   */\n      dup4\n        /* \"#utility.yul\":736:743   */\n      dup6\n        /* \"#utility.yul\":732:755   */\n      sub\n        /* \"#utility.yul\":728:760   */\n      slt\n        /* \"#utility.yul\":725:844   */\n      iszero\n      tag_153\n      jumpi\n        /* \"#utility.yul\":763:842   */\n      tag_154\n      tag_150\n      jump\t// in\n    tag_154:\n        /* \"#utility.yul\":725:844   */\n    tag_153:\n        /* \"#utility.yul\":883:884   */\n      0x00\n        /* \"#utility.yul\":908:961   */\n      tag_155\n        /* \"#utility.yul\":953:960   */\n      dup6\n        /* \"#utility.yul\":944:950   */\n      dup3\n        /* \"#utility.yul\":933:942   */\n      dup7\n        /* \"#utility.yul\":929:951   */\n      add\n        /* \"#utility.yul\":908:961   */\n      tag_139\n      jump\t// in\n    tag_155:\n        /* \"#utility.yul\":898:961   */\n      swap3\n      pop\n        /* \"#utility.yul\":854:971   */\n      pop\n        /* \"#utility.yul\":1010:1012   */\n      0x20\n        /* \"#utility.yul\":1036:1089   */\n      tag_156\n        /* \"#utility.yul\":1081:1088   */\n      dup6\n        /* \"#utility.yul\":1072:1078   */\n      dup3\n        /* \"#utility.yul\":1061:1070   */\n      dup7\n        /* \"#utility.yul\":1057:1079   */\n      add\n        /* \"#utility.yul\":1036:1089   */\n      tag_139\n      jump\t// in\n    tag_156:\n        /* \"#utility.yul\":1026:1089   */\n      swap2\n      pop\n        /* \"#utility.yul\":981:1099   */\n      pop\n        /* \"#utility.yul\":632:1106   */\n      swap3\n      pop\n      swap3\n      swap1\n      pop\n      jump\t// out\n        /* \"#utility.yul\":1112:1731   */\n    tag_34:\n        /* \"#utility.yul\":1189:1195   */\n      0x00\n        /* \"#utility.yul\":1197:1203   */\n      dup1\n        /* \"#utility.yul\":1205:1211   */\n      0x00\n        /* \"#utility.yul\":1254:1256   */\n      0x60\n        /* \"#utility.yul\":1242:1251   */\n      dup5\n        /* \"#utility.yul\":1233:1240   */\n      dup7\n        /* \"#utility.yul\":1229:1252   */\n      sub\n        /* \"#utility.yul\":1225:1257   */\n      slt\n        /* \"#utility.yul\":1222:1341   */\n      iszero\n      tag_158\n      jumpi\n        /* \"#utility.yul\":1260:1339   */\n      tag_159\n      tag_150\n      jump\t// in\n    tag_159:\n        /* \"#utility.yul\":1222:1341   */\n    tag_158:\n        /* \"#utility.yul\":1380:1381   */\n      0x00\n        /* \"#utility.yul\":1405:1458   */\n      tag_160\n        /* \"#utility.yul\":1450:1457   */\n      dup7\n        /* \"#utility.yul\":1441:1447   */\n      dup3\n        /* \"#utility.yul\":1430:1439   */\n      dup8\n        /* \"#utility.yul\":1426:1448   */\n      add\n        /* \"#utility.yul\":1405:1458   */\n      tag_139\n      jump\t// in\n    tag_160:\n        /* \"#utility.yul\":1395:1458   */\n      swap4\n      pop\n        /* \"#utility.yul\":1351:1468   */\n      pop\n        /* \"#utility.yul\":1507:1509   */\n      0x20\n        /* \"#utility.yul\":1533:1586   */\n      tag_161\n        /* \"#utility.yul\":1578:1585   */\n      dup7\n        /* \"#utility.yul\":1569:1575   */\n      dup3\n        /* \"#utility.yul\":1558:1567   */\n      dup8\n        /* \"#utility.yul\":1554:1576   */\n      add\n        /* \"#utility.yul\":1533:1586   */\n      tag_139\n      jump\t// in\n    tag_161:\n        /* \"#utility.yul\":1523:1586   */\n      swap3\n      pop\n        /* \"#utility.yul\":1478:1596   */\n      pop\n        /* \"#utility.yul\":1635:1637   */\n      0x40\n        /* \"#utility.yul\":1661:1714   */\n      tag_162\n        /* \"#utility.yul\":1706:1713   */\n      dup7\n        /* \"#utility.yul\":1697:1703   */\n      dup3\n        /* \"#utility.yul\":1686:1695   */\n      dup8\n        /* \"#utility.yul\":1682:1704   */\n      add\n        /* \"#utility.yul\":1661:1714   */\n      tag_143\n      jump\t// in\n    tag_162:\n        /* \"#utility.yul\":1651:1714   */\n      swap2\n      pop\n        /* \"#utility.yul\":1606:1724   */\n      pop\n        /* \"#utility.yul\":1112:1731   */\n      swap3\n      pop\n      swap3\n      pop\n      swap3\n      jump\t// out\n        /* \"#utility.yul\":1737:2211   */\n    tag_24:\n        /* \"#utility.yul\":1805:1811   */\n      0x00\n        /* \"#utility.yul\":1813:1819   */\n      dup1\n        /* \"#utility.yul\":1862:1864   */\n      0x40\n        /* \"#utility.yul\":1850:1859   */\n      dup4\n        /* \"#utility.yul\":1841:1848   */\n      dup6\n        /* \"#utility.yul\":1837:1860   */\n      sub\n        /* \"#utility.yul\":1833:1865   */\n      slt\n        /* \"#utility.yul\":1830:1949   */\n      iszero\n      tag_164\n      jumpi\n        /* \"#utility.yul\":1868:1947   */\n      tag_165\n      tag_150\n      jump\t// in\n    tag_165:\n        /* \"#utility.yul\":1830:1949   */\n    tag_164:\n        /* \"#utility.yul\":1988:1989   */\n      0x00\n        /* \"#utility.yul\":2013:2066   */\n      tag_166\n        /* \"#utility.yul\":2058:2065   */\n      dup6\n        /* \"#utility.yul\":2049:2055   */\n      dup3\n        /* \"#utility.yul\":2038:2047   */\n      dup7\n        /* \"#utility.yul\":2034:2056   */\n      add\n        /* \"#utility.yul\":2013:2066   */\n      tag_139\n      jump\t// in\n    tag_166:\n        /* \"#utility.yul\":2003:2066   */\n      swap3\n      pop\n        /* \"#utility.yul\":1959:2076   */\n      pop\n        /* \"#utility.yul\":2115:2117   */\n      0x20\n        /* \"#utility.yul\":2141:2194   */\n      tag_167\n        /* \"#utility.yul\":2186:2193   */\n      dup6\n        /* \"#utility.yul\":2177:2183   */\n      dup3\n        /* \"#utility.yul\":2166:2175   */\n      dup7\n        /* \"#utility.yul\":2162:2184   */\n      add\n        /* \"#utility.yul\":2141:2194   */\n      tag_143\n      jump\t// in\n    tag_167:\n        /* \"#utility.yul\":2131:2194   */\n      swap2\n      pop\n        /* \"#utility.yul\":2086:2204   */\n      pop\n        /* \"#utility.yul\":1737:2211   */\n      swap3\n      pop\n      swap3\n      swap1\n      pop\n      jump\t// out\n        /* \"#utility.yul\":2217:2546   */\n    tag_43:\n        /* \"#utility.yul\":2276:2282   */\n      0x00\n        /* \"#utility.yul\":2325:2327   */\n      0x20\n        /* \"#utility.yul\":2313:2322   */\n      dup3\n        /* \"#utility.yul\":2304:2311   */\n      dup5\n        /* \"#utility.yul\":2300:2323   */\n      sub\n        /* \"#utility.yul\":2296:2328   */\n      slt\n        /* \"#utility.yul\":2293:2412   */\n      iszero\n      tag_169\n      jumpi\n        /* \"#utility.yul\":2331:2410   */\n      tag_170\n      tag_150\n      jump\t// in\n    tag_170:\n        /* \"#utility.yul\":2293:2412   */\n    tag_169:\n        /* \"#utility.yul\":2451:2452   */\n      0x00\n        /* \"#utility.yul\":2476:2529   */\n      tag_171\n        /* \"#utility.yul\":2521:2528   */\n      dup5\n        /* \"#utility.yul\":2512:2518   */\n      dup3\n        /* \"#utility.yul\":2501:2510   */\n      dup6\n        /* \"#utility.yul\":2497:2519   */\n      add\n        /* \"#utility.yul\":2476:2529   */\n      tag_143\n      jump\t// in\n    tag_171:\n        /* \"#utility.yul\":2466:2529   */\n      swap2\n      pop\n        /* \"#utility.yul\":2422:2539   */\n      pop\n        /* \"#utility.yul\":2217:2546   */\n      swap3\n      swap2\n      pop\n      pop\n      jump\t// out\n        /* \"#utility.yul\":2552:2694   */\n    tag_172:\n        /* \"#utility.yul\":2655:2687   */\n      tag_174\n        /* \"#utility.yul\":2681:2686   */\n      dup2\n        /* \"#utility.yul\":2655:2687   */\n      tag_175\n      jump\t// in\n    tag_174:\n        /* \"#utility.yul\":2650:2653   */\n      dup3\n        /* \"#utility.yul\":2643:2688   */\n      mstore\n        /* \"#utility.yul\":2552:2694   */\n      pop\n      pop\n      jump\t// out\n        /* \"#utility.yul\":2700:2818   */\n    tag_176:\n        /* \"#utility.yul\":2787:2811   */\n      tag_178\n        /* \"#utility.yul\":2805:2810   */\n      dup2\n        /* \"#utility.yul\":2787:2811   */\n      tag_179\n      jump\t// in\n    tag_178:\n        /* \"#utility.yul\":2782:2785   */\n      dup3\n        /* \"#utility.yul\":2775:2812   */\n      mstore\n        /* \"#utility.yul\":2700:2818   */\n      pop\n      pop\n      jump\t// out\n        /* \"#utility.yul\":2824:2933   */\n    tag_180:\n        /* \"#utility.yul\":2905:2926   */\n      tag_182\n        /* \"#utility.yul\":2920:2925   */\n      dup2\n        /* \"#utility.yul\":2905:2926   */\n      tag_183\n      jump\t// in\n    tag_182:\n        /* \"#utility.yul\":2900:2903   */\n      dup3\n        /* \"#utility.yul\":2893:2927   */\n      mstore\n        /* \"#utility.yul\":2824:2933   */\n      pop\n      pop\n      jump\t// out\n        /* \"#utility.yul\":2939:3303   */\n    tag_184:\n        /* \"#utility.yul\":3027:3030   */\n      0x00\n        /* \"#utility.yul\":3055:3094   */\n      tag_186\n        /* \"#utility.yul\":3088:3093   */\n      dup3\n        /* \"#utility.yul\":3055:3094   */\n      tag_187\n      jump\t// in\n    tag_186:\n        /* \"#utility.yul\":3110:3181   */\n      tag_188\n        /* \"#utility.yul\":3174:3180   */\n      dup2\n        /* \"#utility.yul\":3169:3172   */\n      dup6\n        /* \"#utility.yul\":3110:3181   */\n      tag_189\n      jump\t// in\n    tag_188:\n        /* \"#utility.yul\":3103:3181   */\n      swap4\n      pop\n        /* \"#utility.yul\":3190:3242   */\n      tag_190\n        /* \"#utility.yul\":3235:3241   */\n      dup2\n        /* \"#utility.yul\":3230:3233   */\n      dup6\n        /* \"#utility.yul\":3223:3227   */\n      0x20\n        /* \"#utility.yul\":3216:3221   */\n      dup7\n        /* \"#utility.yul\":3212:3228   */\n      add\n        /* \"#utility.yul\":3190:3242   */\n      tag_191\n      jump\t// in\n    tag_190:\n        /* \"#utility.yul\":3267:3296   */\n      tag_192\n        /* \"#utility.yul\":3289:3295   */\n      dup2\n        /* \"#utility.yul\":3267:3296   */\n      tag_193\n      jump\t// in\n    tag_192:\n        /* \"#utility.yul\":3262:3265   */\n      dup5\n        /* \"#utility.yul\":3258:3297   */\n      add\n        /* \"#utility.yul\":3251:3297   */\n      swap2\n      pop\n        /* \"#utility.yul\":3031:3303   */\n      pop\n        /* \"#utility.yul\":2939:3303   */\n      swap3\n      swap2\n      pop\n      pop\n      jump\t// out\n        /* \"#utility.yul\":3309:3675   */\n    tag_194:\n        /* \"#utility.yul\":3451:3454   */\n      0x00\n        /* \"#utility.yul\":3472:3539   */\n      tag_196\n        /* \"#utility.yul\":3536:3538   */\n      0x16\n        /* \"#utility.yul\":3531:3534   */\n      dup4\n        /* \"#utility.yul\":3472:3539   */\n      tag_189\n      jump\t// in\n    tag_196:\n        /* \"#utility.yul\":3465:3539   */\n      swap2\n      pop\n        /* \"#utility.yul\":3548:3641   */\n      tag_197\n        /* \"#utility.yul\":3637:3640   */\n      dup3\n        /* \"#utility.yul\":3548:3641   */\n      tag_198\n      jump\t// in\n    tag_197:\n        /* \"#utility.yul\":3666:3668   */\n      0x20\n        /* \"#utility.yul\":3661:3664   */\n      dup3\n        /* \"#utility.yul\":3657:3669   */\n      add\n        /* \"#utility.yul\":3650:3669   */\n      swap1\n      pop\n        /* \"#utility.yul\":3309:3675   */\n      swap2\n      swap1\n      pop\n      jump\t// out\n        /* \"#utility.yul\":3681:4047   */\n    tag_199:\n        /* \"#utility.yul\":3823:3826   */\n      0x00\n        /* \"#utility.yul\":3844:3911   */\n      tag_201\n        /* \"#utility.yul\":3908:3910   */\n      0x23\n        /* \"#utility.yul\":3903:3906   */\n      dup4\n        /* \"#utility.yul\":3844:3911   */\n      tag_189\n      jump\t// in\n    tag_201:\n        /* \"#utility.yul\":3837:3911   */\n      swap2\n      pop\n        /* \"#utility.yul\":3920:4013   */\n      tag_202\n        /* \"#utility.yul\":4009:4012   */\n      dup3\n        /* \"#utility.yul\":3920:4013   */\n      tag_203\n      jump\t// in\n    tag_202:\n        /* \"#utility.yul\":4038:4040   */\n      0x40\n        /* \"#utility.yul\":4033:4036   */\n      dup3\n        /* \"#utility.yul\":4029:4041   */\n      add\n        /* \"#utility.yul\":4022:4041   */\n      swap1\n      pop\n        /* \"#utility.yul\":3681:4047   */\n      swap2\n      swap1\n      pop\n      jump\t// out\n        /* \"#utility.yul\":4053:4419   */\n    tag_204:\n        /* \"#utility.yul\":4195:4198   */\n      0x00\n        /* \"#utility.yul\":4216:4283   */\n      tag_206\n        /* \"#utility.yul\":4280:4282   */\n      0x16\n        /* \"#utility.yul\":4275:4278   */\n      dup4\n        /* \"#utility.yul\":4216:4283   */\n      tag_189\n      jump\t// in\n    tag_206:\n        /* \"#utility.yul\":4209:4283   */\n      swap2\n      pop\n        /* \"#utility.yul\":4292:4385   */\n      tag_207\n        /* \"#utility.yul\":4381:4384   */\n      dup3\n        /* \"#utility.yul\":4292:4385   */\n      tag_208\n      jump\t// in\n    tag_207:\n        /* \"#utility.yul\":4410:4412   */\n      0x20\n        /* \"#utility.yul\":4405:4408   */\n      dup3\n        /* \"#utility.yul\":4401:4413   */\n      add\n        /* \"#utility.yul\":4394:4413   */\n      swap1\n      pop\n        /* \"#utility.yul\":4053:4419   */\n      swap2\n      swap1\n      pop\n      jump\t// out\n        /* \"#utility.yul\":4425:4791   */\n    tag_209:\n        /* \"#utility.yul\":4567:4570   */\n      0x00\n        /* \"#utility.yul\":4588:4655   */\n      tag_211\n        /* \"#utility.yul\":4652:4654   */\n      0x1c\n        /* \"#utility.yul\":4647:4650   */\n      dup4\n        /* \"#utility.yul\":4588:4655   */\n      tag_189\n      jump\t// in\n    tag_211:\n        /* \"#utility.yul\":4581:4655   */\n      swap2\n      pop\n        /* \"#utility.yul\":4664:4757   */\n      tag_212\n        /* \"#utility.yul\":4753:4756   */\n      dup3\n        /* \"#utility.yul\":4664:4757   */\n      tag_213\n      jump\t// in\n    tag_212:\n        /* \"#utility.yul\":4782:4784   */\n      0x20\n        /* \"#utility.yul\":4777:4780   */\n      dup3\n        /* \"#utility.yul\":4773:4785   */\n      add\n        /* \"#utility.yul\":4766:4785   */\n      swap1\n      pop\n        /* \"#utility.yul\":4425:4791   */\n      swap2\n      swap1\n      pop\n      jump\t// out\n        /* \"#utility.yul\":4797:5163   */\n    tag_214:\n        /* \"#utility.yul\":4939:4942   */\n      0x00\n        /* \"#utility.yul\":4960:5027   */\n      tag_216\n        /* \"#utility.yul\":5024:5026   */\n      0x12\n        /* \"#utility.yul\":5019:5022   */\n      dup4\n        /* \"#utility.yul\":4960:5027   */\n      tag_189\n      jump\t// in\n    tag_216:\n        /* \"#utility.yul\":4953:5027   */\n      swap2\n      pop\n        /* \"#utility.yul\":5036:5129   */\n      tag_217\n        /* \"#utility.yul\":5125:5128   */\n      dup3\n        /* \"#utility.yul\":5036:5129   */\n      tag_218\n      jump\t// in\n    tag_217:\n        /* \"#utility.yul\":5154:5156   */\n      0x20\n        /* \"#utility.yul\":5149:5152   */\n      dup3\n        /* \"#utility.yul\":5145:5157   */\n      add\n        /* \"#utility.yul\":5138:5157   */\n      swap1\n      pop\n        /* \"#utility.yul\":4797:5163   */\n      swap2\n      swap1\n      pop\n      jump\t// out\n        /* \"#utility.yul\":5169:5535   */\n    tag_219:\n        /* \"#utility.yul\":5311:5314   */\n      0x00\n        /* \"#utility.yul\":5332:5399   */\n      tag_221\n        /* \"#utility.yul\":5396:5398   */\n      0x18\n        /* \"#utility.yul\":5391:5394   */\n      dup4\n        /* \"#utility.yul\":5332:5399   */\n      tag_189\n      jump\t// in\n    tag_221:\n        /* \"#utility.yul\":5325:5399   */\n      swap2\n      pop\n        /* \"#utility.yul\":5408:5501   */\n      tag_222\n        /* \"#utility.yul\":5497:5500   */\n      dup3\n        /* \"#utility.yul\":5408:5501   */\n      tag_223\n      jump\t// in\n    tag_222:\n        /* \"#utility.yul\":5526:5528   */\n      0x20\n        /* \"#utility.yul\":5521:5524   */\n      dup3\n        /* \"#utility.yul\":5517:5529   */\n      add\n        /* \"#utility.yul\":5510:5529   */\n      swap1\n      pop\n        /* \"#utility.yul\":5169:5535   */\n      swap2\n      swap1\n      pop\n      jump\t// out\n        /* \"#utility.yul\":5541:5907   */\n    tag_224:\n        /* \"#utility.yul\":5683:5686   */\n      0x00\n        /* \"#utility.yul\":5704:5771   */\n      tag_226\n        /* \"#utility.yul\":5768:5770   */\n      0x1b\n        /* \"#utility.yul\":5763:5766   */\n      dup4\n        /* \"#utility.yul\":5704:5771   */\n      tag_189\n      jump\t// in\n    tag_226:\n        /* \"#utility.yul\":5697:5771   */\n      swap2\n      pop\n        /* \"#utility.yul\":5780:5873   */\n      tag_227\n        /* \"#utility.yul\":5869:5872   */\n      dup3\n        /* \"#utility.yul\":5780:5873   */\n      tag_228\n      jump\t// in\n    tag_227:\n        /* \"#utility.yul\":5898:5900   */\n      0x20\n        /* \"#utility.yul\":5893:5896   */\n      dup3\n        /* \"#utility.yul\":5889:5901   */\n      add\n        /* \"#utility.yul\":5882:5901   */\n      swap1\n      pop\n        /* \"#utility.yul\":5541:5907   */\n      swap2\n      swap1\n      pop\n      jump\t// out\n        /* \"#utility.yul\":5913:6279   */\n    tag_229:\n        /* \"#utility.yul\":6055:6058   */\n      0x00\n        /* \"#utility.yul\":6076:6143   */\n      tag_231\n        /* \"#utility.yul\":6140:6142   */\n      0x14\n        /* \"#utility.yul\":6135:6138   */\n      dup4\n        /* \"#utility.yul\":6076:6143   */\n      tag_189\n      jump\t// in\n    tag_231:\n        /* \"#utility.yul\":6069:6143   */\n      swap2\n      pop\n        /* \"#utility.yul\":6152:6245   */\n      tag_232\n        /* \"#utility.yul\":6241:6244   */\n      dup3\n        /* \"#utility.yul\":6152:6245   */\n      tag_233\n      jump\t// in\n    tag_232:\n        /* \"#utility.yul\":6270:6272   */\n      0x20\n        /* \"#utility.yul\":6265:6268   */\n      dup3\n        /* \"#utility.yul\":6261:6273   */\n      add\n        /* \"#utility.yul\":6254:6273   */\n      swap1\n      pop\n        /* \"#utility.yul\":5913:6279   */\n      swap2\n      swap1\n      pop\n      jump\t// out\n        /* \"#utility.yul\":6285:6403   */\n    tag_234:\n        /* \"#utility.yul\":6372:6396   */\n      tag_236\n        /* \"#utility.yul\":6390:6395   */\n      dup2\n        /* \"#utility.yul\":6372:6396   */\n      tag_237\n      jump\t// in\n    tag_236:\n        /* \"#utility.yul\":6367:6370   */\n      dup3\n        /* \"#utility.yul\":6360:6397   */\n      mstore\n        /* \"#utility.yul\":6285:6403   */\n      pop\n      pop\n      jump\t// out\n        /* \"#utility.yul\":6409:6521   */\n    tag_238:\n        /* \"#utility.yul\":6492:6514   */\n      tag_240\n        /* \"#utility.yul\":6508:6513   */\n      dup2\n        /* \"#utility.yul\":6492:6514   */\n      tag_241\n      jump\t// in\n    tag_240:\n        /* \"#utility.yul\":6487:6490   */\n      dup3\n        /* \"#utility.yul\":6480:6515   */\n      mstore\n        /* \"#utility.yul\":6409:6521   */\n      pop\n      pop\n      jump\t// out\n        /* \"#utility.yul\":6527:6749   */\n    tag_54:\n        /* \"#utility.yul\":6620:6624   */\n      0x00\n        /* \"#utility.yul\":6658:6660   */\n      0x20\n        /* \"#utility.yul\":6647:6656   */\n      dup3\n        /* \"#utility.yul\":6643:6661   */\n      add\n        /* \"#utility.yul\":6635:6661   */\n      swap1\n      pop\n        /* \"#utility.yul\":6671:6742   */\n      tag_243\n        /* \"#utility.yul\":6739:6740   */\n      0x00\n        /* \"#utility.yul\":6728:6737   */\n      dup4\n        /* \"#utility.yul\":6724:6741   */\n      add\n        /* \"#utility.yul\":6715:6721   */\n      dup5\n        /* \"#utility.yul\":6671:6742   */\n      tag_176\n      jump\t// in\n    tag_243:\n        /* \"#utility.yul\":6527:6749   */\n      swap3\n      swap2\n      pop\n      pop\n      jump\t// out\n        /* \"#utility.yul\":6755:7009   */\n    tag_58:\n        /* \"#utility.yul\":6864:6868   */\n      0x00\n        /* \"#utility.yul\":6902:6904   */\n      0x20\n        /* \"#utility.yul\":6891:6900   */\n      dup3\n        /* \"#utility.yul\":6887:6905   */\n      add\n        /* \"#utility.yul\":6879:6905   */\n      swap1\n      pop\n        /* \"#utility.yul\":6915:7002   */\n      tag_245\n        /* \"#utility.yul\":6999:7000   */\n      0x00\n        /* \"#utility.yul\":6988:6997   */\n      dup4\n        /* \"#utility.yul\":6984:7001   */\n      add\n        /* \"#utility.yul\":6975:6981   */\n      dup5\n        /* \"#utility.yul\":6915:7002   */\n      tag_172\n      jump\t// in\n    tag_245:\n        /* \"#utility.yul\":6755:7009   */\n      swap3\n      swap2\n      pop\n      pop\n      jump\t// out\n        /* \"#utility.yul\":7015:7225   */\n    tag_27:\n        /* \"#utility.yul\":7102:7106   */\n      0x00\n        /* \"#utility.yul\":7140:7142   */\n      0x20\n        /* \"#utility.yul\":7129:7138   */\n      dup3\n        /* \"#utility.yul\":7125:7143   */\n      add\n        /* \"#utility.yul\":7117:7143   */\n      swap1\n      pop\n        /* \"#utility.yul\":7153:7218   */\n      tag_247\n        /* \"#utility.yul\":7215:7216   */\n      0x00\n        /* \"#utility.yul\":7204:7213   */\n      dup4\n        /* \"#utility.yul\":7200:7217   */\n      add\n        /* \"#utility.yul\":7191:7197   */\n      dup5\n        /* \"#utility.yul\":7153:7218   */\n      tag_180\n      jump\t// in\n    tag_247:\n        /* \"#utility.yul\":7015:7225   */\n      swap3\n      swap2\n      pop\n      pop\n      jump\t// out\n        /* \"#utility.yul\":7231:7544   */\n    tag_21:\n        /* \"#utility.yul\":7344:7348   */\n      0x00\n        /* \"#utility.yul\":7382:7384   */\n      0x20\n        /* \"#utility.yul\":7371:7380   */\n      dup3\n        /* \"#utility.yul\":7367:7385   */\n      add\n        /* \"#utility.yul\":7359:7385   */\n      swap1\n      pop\n        /* \"#utility.yul\":7431:7440   */\n      dup2\n        /* \"#utility.yul\":7425:7429   */\n      dup2\n        /* \"#utility.yul\":7421:7441   */\n      sub\n        /* \"#utility.yul\":7417:7418   */\n      0x00\n        /* \"#utility.yul\":7406:7415   */\n      dup4\n        /* \"#utility.yul\":7402:7419   */\n      add\n        /* \"#utility.yul\":7395:7442   */\n      mstore\n        /* \"#utility.yul\":7459:7537   */\n      tag_249\n        /* \"#utility.yul\":7532:7536   */\n      dup2\n        /* \"#utility.yul\":7523:7529   */\n      dup5\n        /* \"#utility.yul\":7459:7537   */\n      tag_184\n      jump\t// in\n    tag_249:\n        /* \"#utility.yul\":7451:7537   */\n      swap1\n      pop\n        /* \"#utility.yul\":7231:7544   */\n      swap3\n      swap2\n      pop\n      pop\n      jump\t// out\n        /* \"#utility.yul\":7550:7969   */\n    tag_108:\n        /* \"#utility.yul\":7716:7720   */\n      0x00\n        /* \"#utility.yul\":7754:7756   */\n      0x20\n        /* \"#utility.yul\":7743:7752   */\n      dup3\n        /* \"#utility.yul\":7739:7757   */\n      add\n        /* \"#utility.yul\":7731:7757   */\n      swap1\n      pop\n        /* \"#utility.yul\":7803:7812   */\n      dup2\n        /* \"#utility.yul\":7797:7801   */\n      dup2\n        /* \"#utility.yul\":7793:7813   */\n      sub\n        /* \"#utility.yul\":7789:7790   */\n      0x00\n        /* \"#utility.yul\":7778:7787   */\n      dup4\n        /* \"#utility.yul\":7774:7791   */\n      add\n        /* \"#utility.yul\":7767:7814   */\n      mstore\n        /* \"#utility.yul\":7831:7962   */\n      tag_251\n        /* \"#utility.yul\":7957:7961   */\n      dup2\n        /* \"#utility.yul\":7831:7962   */\n      tag_194\n      jump\t// in\n    tag_251:\n        /* \"#utility.yul\":7823:7962   */\n      swap1\n      pop\n        /* \"#utility.yul\":7550:7969   */\n      swap2\n      swap1\n      pop\n      jump\t// out\n        /* \"#utility.yul\":7975:8394   */\n    tag_92:\n        /* \"#utility.yul\":8141:8145   */\n      0x00\n        /* \"#utility.yul\":8179:8181   */\n      0x20\n        /* \"#utility.yul\":8168:8177   */\n      dup3\n        /* \"#utility.yul\":8164:8182   */\n      add\n        /* \"#utility.yul\":8156:8182   */\n      swap1\n      pop\n        /* \"#utility.yul\":8228:8237   */\n      dup2\n        /* \"#utility.yul\":8222:8226   */\n      dup2\n        /* \"#utility.yul\":8218:8238   */\n      sub\n        /* \"#utility.yul\":8214:8215   */\n      0x00\n        /* \"#utility.yul\":8203:8212   */\n      dup4\n        /* \"#utility.yul\":8199:8216   */\n      add\n        /* \"#utility.yul\":8192:8239   */\n      mstore\n        /* \"#utility.yul\":8256:8387   */\n      tag_253\n        /* \"#utility.yul\":8382:8386   */\n      dup2\n        /* \"#utility.yul\":8256:8387   */\n      tag_199\n      jump\t// in\n    tag_253:\n        /* \"#utility.yul\":8248:8387   */\n      swap1\n      pop\n        /* \"#utility.yul\":7975:8394   */\n      swap2\n      swap1\n      pop\n      jump\t// out\n        /* \"#utility.yul\":8400:8819   */\n    tag_124:\n        /* \"#utility.yul\":8566:8570   */\n      0x00\n        /* \"#utility.yul\":8604:8606   */\n      0x20\n        /* \"#utility.yul\":8593:8602   */\n      dup3\n        /* \"#utility.yul\":8589:8607   */\n      add\n        /* \"#utility.yul\":8581:8607   */\n      swap1\n      pop\n        /* \"#utility.yul\":8653:8662   */\n      dup2\n        /* \"#utility.yul\":8647:8651   */\n      dup2\n        /* \"#utility.yul\":8643:8663   */\n      sub\n        /* \"#utility.yul\":8639:8640   */\n      0x00\n        /* \"#utility.yul\":8628:8637   */\n      dup4\n        /* \"#utility.yul\":8624:8641   */\n      add\n        /* \"#utility.yul\":8617:8664   */\n      mstore\n        /* \"#utility.yul\":8681:8812   */\n      tag_255\n        /* \"#utility.yul\":8807:8811   */\n      dup2\n        /* \"#utility.yul\":8681:8812   */\n      tag_204\n      jump\t// in\n    tag_255:\n        /* \"#utility.yul\":8673:8812   */\n      swap1\n      pop\n        /* \"#utility.yul\":8400:8819   */\n      swap2\n      swap1\n      pop\n      jump\t// out\n        /* \"#utility.yul\":8825:9244   */\n    tag_84:\n        /* \"#utility.yul\":8991:8995   */\n      0x00\n        /* \"#utility.yul\":9029:9031   */\n      0x20\n        /* \"#utility.yul\":9018:9027   */\n      dup3\n        /* \"#utility.yul\":9014:9032   */\n      add\n        /* \"#utility.yul\":9006:9032   */\n      swap1\n      pop\n        /* \"#utility.yul\":9078:9087   */\n      dup2\n        /* \"#utility.yul\":9072:9076   */\n      dup2\n        /* \"#utility.yul\":9068:9088   */\n      sub\n        /* \"#utility.yul\":9064:9065   */\n      0x00\n        /* \"#utility.yul\":9053:9062   */\n      dup4\n        /* \"#utility.yul\":9049:9066   */\n      add\n        /* \"#utility.yul\":9042:9089   */\n      mstore\n        /* \"#utility.yul\":9106:9237   */\n      tag_257\n        /* \"#utility.yul\":9232:9236   */\n      dup2\n        /* \"#utility.yul\":9106:9237   */\n      tag_209\n      jump\t// in\n    tag_257:\n        /* \"#utility.yul\":9098:9237   */\n      swap1\n      pop\n        /* \"#utility.yul\":8825:9244   */\n      swap2\n      swap1\n      pop\n      jump\t// out\n        /* \"#utility.yul\":9250:9669   */\n    tag_95:\n        /* \"#utility.yul\":9416:9420   */\n      0x00\n        /* \"#utility.yul\":9454:9456   */\n      0x20\n        /* \"#utility.yul\":9443:9452   */\n      dup3\n        /* \"#utility.yul\":9439:9457   */\n      add\n        /* \"#utility.yul\":9431:9457   */\n      swap1\n      pop\n        /* \"#utility.yul\":9503:9512   */\n      dup2\n        /* \"#utility.yul\":9497:9501   */\n      dup2\n        /* \"#utility.yul\":9493:9513   */\n      sub\n        /* \"#utility.yul\":9489:9490   */\n      0x00\n        /* \"#utility.yul\":9478:9487   */\n      dup4\n        /* \"#utility.yul\":9474:9491   */\n      add\n        /* \"#utility.yul\":9467:9514   */\n      mstore\n        /* \"#utility.yul\":9531:9662   */\n      tag_259\n        /* \"#utility.yul\":9657:9661   */\n      dup2\n        /* \"#utility.yul\":9531:9662   */\n      tag_214\n      jump\t// in\n    tag_259:\n        /* \"#utility.yul\":9523:9662   */\n      swap1\n      pop\n        /* \"#utility.yul\":9250:9669   */\n      swap2\n      swap1\n      pop\n      jump\t// out\n        /* \"#utility.yul\":9675:10094   */\n    tag_89:\n        /* \"#utility.yul\":9841:9845   */\n      0x00\n        /* \"#utility.yul\":9879:9881   */\n      0x20\n        /* \"#utility.yul\":9868:9877   */\n      dup3\n        /* \"#utility.yul\":9864:9882   */\n      add\n        /* \"#utility.yul\":9856:9882   */\n      swap1\n      pop\n        /* \"#utility.yul\":9928:9937   */\n      dup2\n        /* \"#utility.yul\":9922:9926   */\n      dup2\n        /* \"#utility.yul\":9918:9938   */\n      sub\n        /* \"#utility.yul\":9914:9915   */\n      0x00\n        /* \"#utility.yul\":9903:9912   */\n      dup4\n        /* \"#utility.yul\":9899:9916   */\n      add\n        /* \"#utility.yul\":9892:9939   */\n      mstore\n        /* \"#utility.yul\":9956:10087   */\n      tag_261\n        /* \"#utility.yul\":10082:10086   */\n      dup2\n        /* \"#utility.yul\":9956:10087   */\n      tag_219\n      jump\t// in\n    tag_261:\n        /* \"#utility.yul\":9948:10087   */\n      swap1\n      pop\n        /* \"#utility.yul\":9675:10094   */\n      swap2\n      swap1\n      pop\n      jump\t// out\n        /* \"#utility.yul\":10100:10519   */\n    tag_111:\n        /* \"#utility.yul\":10266:10270   */\n      0x00\n        /* \"#utility.yul\":10304:10306   */\n      0x20\n        /* \"#utility.yul\":10293:10302   */\n      dup3\n        /* \"#utility.yul\":10289:10307   */\n      add\n        /* \"#utility.yul\":10281:10307   */\n      swap1\n      pop\n        /* \"#utility.yul\":10353:10362   */\n      dup2\n        /* \"#utility.yul\":10347:10351   */\n      dup2\n        /* \"#utility.yul\":10343:10363   */\n      sub\n        /* \"#utility.yul\":10339:10340   */\n      0x00\n        /* \"#utility.yul\":10328:10337   */\n      dup4\n        /* \"#utility.yul\":10324:10341   */\n      add\n        /* \"#utility.yul\":10317:10364   */\n      mstore\n        /* \"#utility.yul\":10381:10512   */\n      tag_263\n        /* \"#utility.yul\":10507:10511   */\n      dup2\n        /* \"#utility.yul\":10381:10512   */\n      tag_224\n      jump\t// in\n    tag_263:\n        /* \"#utility.yul\":10373:10512   */\n      swap1\n      pop\n        /* \"#utility.yul\":10100:10519   */\n      swap2\n      swap1\n      pop\n      jump\t// out\n        /* \"#utility.yul\":10525:10944   */\n    tag_98:\n        /* \"#utility.yul\":10691:10695   */\n      0x00\n        /* \"#utility.yul\":10729:10731   */\n      0x20\n        /* \"#utility.yul\":10718:10727   */\n      dup3\n        /* \"#utility.yul\":10714:10732   */\n      add\n        /* \"#utility.yul\":10706:10732   */\n      swap1\n      pop\n        /* \"#utility.yul\":10778:10787   */\n      dup2\n        /* \"#utility.yul\":10772:10776   */\n      dup2\n        /* \"#utility.yul\":10768:10788   */\n      sub\n        /* \"#utility.yul\":10764:10765   */\n      0x00\n        /* \"#utility.yul\":10753:10762   */\n      dup4\n        /* \"#utility.yul\":10749:10766   */\n      add\n        /* \"#utility.yul\":10742:10789   */\n      mstore\n        /* \"#utility.yul\":10806:10937   */\n      tag_265\n        /* \"#utility.yul\":10932:10936   */\n      dup2\n        /* \"#utility.yul\":10806:10937   */\n      tag_229\n      jump\t// in\n    tag_265:\n        /* \"#utility.yul\":10798:10937   */\n      swap1\n      pop\n        /* \"#utility.yul\":10525:10944   */\n      swap2\n      swap1\n      pop\n      jump\t// out\n        /* \"#utility.yul\":10950:11172   */\n    tag_31:\n        /* \"#utility.yul\":11043:11047   */\n      0x00\n        /* \"#utility.yul\":11081:11083   */\n      0x20\n        /* \"#utility.yul\":11070:11079   */\n      dup3\n        /* \"#utility.yul\":11066:11084   */\n      add\n        /* \"#utility.yul\":11058:11084   */\n      swap1\n      pop\n        /* \"#utility.yul\":11094:11165   */\n      tag_267\n        /* \"#utility.yul\":11162:11163   */\n      0x00\n        /* \"#utility.yul\":11151:11160   */\n      dup4\n        /* \"#utility.yul\":11147:11164   */\n      add\n        /* \"#utility.yul\":11138:11144   */\n      dup5\n        /* \"#utility.yul\":11094:11165   */\n      tag_234\n      jump\t// in\n    tag_267:\n        /* \"#utility.yul\":10950:11172   */\n      swap3\n      swap2\n      pop\n      pop\n      jump\t// out\n        /* \"#utility.yul\":11178:11392   */\n    tag_40:\n        /* \"#utility.yul\":11267:11271   */\n      0x00\n        /* \"#utility.yul\":11305:11307   */\n      0x20\n        /* \"#utility.yul\":11294:11303   */\n      dup3\n        /* \"#utility.yul\":11290:11308   */\n      add\n        /* \"#utility.yul\":11282:11308   */\n      swap1\n      pop\n        /* \"#utility.yul\":11318:11385   */\n      tag_269\n        /* \"#utility.yul\":11382:11383   */\n      0x00\n        /* \"#utility.yul\":11371:11380   */\n      dup4\n        /* \"#utility.yul\":11367:11384   */\n      add\n        /* \"#utility.yul\":11358:11364   */\n      dup5\n        /* \"#utility.yul\":11318:11385   */\n      tag_238\n      jump\t// in\n    tag_269:\n        /* \"#utility.yul\":11178:11392   */\n      swap3\n      swap2\n      pop\n      pop\n      jump\t// out\n        /* \"#utility.yul\":11479:11578   */\n    tag_187:\n        /* \"#utility.yul\":11531:11537   */\n      0x00\n        /* \"#utility.yul\":11565:11570   */\n      dup2\n        /* \"#utility.yul\":11559:11571   */\n      mload\n        /* \"#utility.yul\":11549:11571   */\n      swap1\n      pop\n        /* \"#utility.yul\":11479:11578   */\n      swap2\n      swap1\n      pop\n      jump\t// out\n        /* \"#utility.yul\":11584:11753   */\n    tag_189:\n        /* \"#utility.yul\":11668:11679   */\n      0x00\n        /* \"#utility.yul\":11702:11708   */\n      dup3\n        /* \"#utility.yul\":11697:11700   */\n      dup3\n        /* \"#utility.yul\":11690:11709   */\n      mstore\n        /* \"#utility.yul\":11742:11746   */\n      0x20\n        /* \"#utility.yul\":11737:11740   */\n      dup3\n        /* \"#utility.yul\":11733:11747   */\n      add\n        /* \"#utility.yul\":11718:11747   */\n      swap1\n      pop\n        /* \"#utility.yul\":11584:11753   */\n      swap3\n      swap2\n      pop\n      pop\n      jump\t// out\n        /* \"#utility.yul\":11759:12064   */\n    tag_102:\n        /* \"#utility.yul\":11799:11802   */\n      0x00\n        /* \"#utility.yul\":11818:11838   */\n      tag_275\n        /* \"#utility.yul\":11836:11837   */\n      dup3\n        /* \"#utility.yul\":11818:11838   */\n      tag_237\n      jump\t// in\n    tag_275:\n        /* \"#utility.yul\":11813:11838   */\n      swap2\n      pop\n        /* \"#utility.yul\":11852:11872   */\n      tag_276\n        /* \"#utility.yul\":11870:11871   */\n      dup4\n        /* \"#utility.yul\":11852:11872   */\n      tag_237\n      jump\t// in\n    tag_276:\n        /* \"#utility.yul\":11847:11872   */\n      swap3\n      pop\n        /* \"#utility.yul\":12006:12007   */\n      dup3\n        /* \"#utility.yul\":11938:12004   */\n      0xffffffffffffffffffffffffffffffffffffffffffffffffffffffffffffffff\n        /* \"#utility.yul\":11934:12008   */\n      sub\n        /* \"#utility.yul\":11931:11932   */\n      dup3\n        /* \"#utility.yul\":11928:12009   */\n      gt\n        /* \"#utility.yul\":11925:12032   */\n      iszero\n      tag_277\n      jumpi\n        /* \"#utility.yul\":12012:12030   */\n      tag_278\n      tag_279\n      jump\t// in\n    tag_278:\n        /* \"#utility.yul\":11925:12032   */\n    tag_277:\n        /* \"#utility.yul\":12056:12057   */\n      dup3\n        /* \"#utility.yul\":12053:12054   */\n      dup3\n        /* \"#utility.yul\":12049:12058   */\n      add\n        /* \"#utility.yul\":12042:12058   */\n      swap1\n      pop\n        /* \"#utility.yul\":11759:12064   */\n      swap3\n      swap2\n      pop\n      pop\n      jump\t// out\n        /* \"#utility.yul\":12070:12261   */\n    tag_100:\n        /* \"#utility.yul\":12110:12114   */\n      0x00\n        /* \"#utility.yul\":12130:12150   */\n      tag_281\n        /* \"#utility.yul\":12148:12149   */\n      dup3\n        /* \"#utility.yul\":12130:12150   */\n      tag_237\n      jump\t// in\n    tag_281:\n        /* \"#utility.yul\":12125:12150   */\n      swap2\n      pop\n        /* \"#utility.yul\":12164:12184   */\n      tag_282\n        /* \"#utility.yul\":12182:12183   */\n      dup4\n        /* \"#utility.yul\":12164:12184   */\n      tag_237\n      jump\t// in\n    tag_282:\n        /* \"#utility.yul\":12159:12184   */\n      swap3\n      pop\n        /* \"#utility.yul\":12203:12204   */\n      dup3\n        /* \"#utility.yul\":12200:12201   */\n      dup3\n        /* \"#utility.yul\":12197:12205   */\n      lt\n        /* \"#utility.yul\":12194:12228   */\n      iszero\n      tag_283\n      jumpi\n        /* \"#utility.yul\":12208:12226   */\n      tag_284\n      tag_279\n      jump\t// in\n    tag_284:\n        /* \"#utility.yul\":12194:12228   */\n    tag_283:\n        /* \"#utility.yul\":12253:12254   */\n      dup3\n        /* \"#utility.yul\":12250:12251   */\n      dup3\n        /* \"#utility.yul\":12246:12255   */\n      sub\n        /* \"#utility.yul\":12238:12255   */\n      swap1\n      pop\n        /* \"#utility.yul\":12070:12261   */\n      swap3\n      swap2\n      pop\n      pop\n      jump\t// out\n        /* \"#utility.yul\":12267:12363   */\n    tag_179:\n        /* \"#utility.yul\":12304:12311   */\n      0x00\n        /* \"#utility.yul\":12333:12357   */\n      tag_286\n        /* \"#utility.yul\":12351:12356   */\n      dup3\n        /* \"#utility.yul\":12333:12357   */\n      tag_287\n      jump\t// in\n    tag_286:\n        /* \"#utility.yul\":12322:12357   */\n      swap1\n      pop\n        /* \"#utility.yul\":12267:12363   */\n      swap2\n      swap1\n      pop\n      jump\t// out\n        /* \"#utility.yul\":12369:12473   */\n    tag_175:\n        /* \"#utility.yul\":12414:12421   */\n      0x00\n        /* \"#utility.yul\":12443:12467   */\n      tag_289\n        /* \"#utility.yul\":12461:12466   */\n      dup3\n        /* \"#utility.yul\":12443:12467   */\n      tag_287\n      jump\t// in\n    tag_289:\n        /* \"#utility.yul\":12432:12467   */\n      swap1\n      pop\n        /* \"#utility.yul\":12369:12473   */\n      swap2\n      swap1\n      pop\n      jump\t// out\n        /* \"#utility.yul\":12479:12569   */\n    tag_183:\n        /* \"#utility.yul\":12513:12520   */\n      0x00\n        /* \"#utility.yul\":12556:12561   */\n      dup2\n        /* \"#utility.yul\":12549:12562   */\n      iszero\n        /* \"#utility.yul\":12542:12563   */\n      iszero\n        /* \"#utility.yul\":12531:12563   */\n      swap1\n      pop\n        /* \"#utility.yul\":12479:12569   */\n      swap2\n      swap1\n      pop\n      jump\t// out\n        /* \"#utility.yul\":12575:12701   */\n    tag_287:\n        /* \"#utility.yul\":12612:12619   */\n      0x00\n        /* \"#utility.yul\":12652:12694   */\n      0xffffffffffffffffffffffffffffffffffffffff\n        /* \"#utility.yul\":12645:12650   */\n      dup3\n        /* \"#utility.yul\":12641:12695   */\n      and\n        /* \"#utility.yul\":12630:12695   */\n      swap1\n      pop\n        /* \"#utility.yul\":12575:12701   */\n      swap2\n      swap1\n      pop\n      jump\t// out\n        /* \"#utility.yul\":12707:12784   */\n    tag_237:\n        /* \"#utility.yul\":12744:12751   */\n      0x00\n        /* \"#utility.yul\":12773:12778   */\n      dup2\n        /* \"#utility.yul\":12762:12778   */\n      swap1\n      pop\n        /* \"#utility.yul\":12707:12784   */\n      swap2\n      swap1\n      pop\n      jump\t// out\n        /* \"#utility.yul\":12790:12876   */\n    tag_241:\n        /* \"#utility.yul\":12825:12832   */\n      0x00\n        /* \"#utility.yul\":12865:12869   */\n      0xff\n        /* \"#utility.yul\":12858:12863   */\n      dup3\n        /* \"#utility.yul\":12854:12870   */\n      and\n        /* \"#utility.yul\":12843:12870   */\n      swap1\n      pop\n        /* \"#utility.yul\":12790:12876   */\n      swap2\n      swap1\n      pop\n      jump\t// out\n        /* \"#utility.yul\":12882:13189   */\n    tag_191:\n        /* \"#utility.yul\":12950:12951   */\n      0x00\n        /* \"#utility.yul\":12960:13073   */\n    tag_295:\n        /* \"#utility.yul\":12974:12980   */\n      dup4\n        /* \"#utility.yul\":12971:12972   */\n      dup2\n        /* \"#utility.yul\":12968:12981   */\n      lt\n        /* \"#utility.yul\":12960:13073   */\n      iszero\n      tag_297\n      jumpi\n        /* \"#utility.yul\":13059:13060   */\n      dup1\n        /* \"#utility.yul\":13054:13057   */\n      dup3\n        /* \"#utility.yul\":13050:13061   */\n      add\n        /* \"#utility.yul\":13044:13062   */\n      mload\n        /* \"#utility.yul\":13040:13041   */\n      dup2\n        /* \"#utility.yul\":13035:13038   */\n      dup5\n        /* \"#utility.yul\":13031:13042   */\n      add\n        /* \"#utility.yul\":13024:13063   */\n      mstore\n        /* \"#utility.yul\":12996:12998   */\n      0x20\n        /* \"#utility.yul\":12993:12994   */\n      dup2\n        /* \"#utility.yul\":12989:12999   */\n      add\n        /* \"#utility.yul\":12984:12999   */\n      swap1\n      pop\n        /* \"#utility.yul\":12960:13073   */\n      jump(tag_295)\n    tag_297:\n        /* \"#utility.yul\":13091:13097   */\n      dup4\n        /* \"#utility.yul\":13088:13089   */\n      dup2\n        /* \"#utility.yul\":13085:13098   */\n      gt\n        /* \"#utility.yul\":13082:13183   */\n      iszero\n      tag_298\n      jumpi\n        /* \"#utility.yul\":13171:13172   */\n      0x00\n        /* \"#utility.yul\":13162:13168   */\n      dup5\n        /* \"#utility.yul\":13157:13160   */\n      dup5\n        /* \"#utility.yul\":13153:13169   */\n      add\n        /* \"#utility.yul\":13146:13173   */\n      mstore\n        /* \"#utility.yul\":13082:13183   */\n    tag_298:\n        /* \"#utility.yul\":12931:13189   */\n      pop\n        /* \"#utility.yul\":12882:13189   */\n      pop\n      pop\n      pop\n      jump\t// out\n        /* \"#utility.yul\":13195:13515   */\n    tag_76:\n        /* \"#utility.yul\":13239:13245   */\n      0x00\n        /* \"#utility.yul\":13276:13277   */\n      0x02\n        /* \"#utility.yul\":13270:13274   */\n      dup3\n        /* \"#utility.yul\":13266:13278   */\n      div\n        /* \"#utility.yul\":13256:13278   */\n      swap1\n      pop\n        /* \"#utility.yul\":13323:13324   */\n      0x01\n        /* \"#utility.yul\":13317:13321   */\n      dup3\n        /* \"#utility.yul\":13313:13325   */\n      and\n        /* \"#utility.yul\":13344:13362   */\n      dup1\n        /* \"#utility.yul\":13334:13415   */\n      tag_300\n      jumpi\n        /* \"#utility.yul\":13400:13404   */\n      0x7f\n        /* \"#utility.yul\":13392:13398   */\n      dup3\n        /* \"#utility.yul\":13388:13405   */\n      and\n        /* \"#utility.yul\":13378:13405   */\n      swap2\n      pop\n        /* \"#utility.yul\":13334:13415   */\n    tag_300:\n        /* \"#utility.yul\":13462:13464   */\n      0x20\n        /* \"#utility.yul\":13454:13460   */\n      dup3\n        /* \"#utility.yul\":13451:13465   */\n      lt\n        /* \"#utility.yul\":13431:13449   */\n      dup2\n        /* \"#utility.yul\":13428:13466   */\n      eq\n        /* \"#utility.yul\":13425:13509   */\n      iszero\n      tag_301\n      jumpi\n        /* \"#utility.yul\":13481:13499   */\n      tag_302\n      tag_303\n      jump\t// in\n    tag_302:\n        /* \"#utility.yul\":13425:13509   */\n    tag_301:\n        /* \"#utility.yul\":13246:13515   */\n      pop\n        /* \"#utility.yul\":13195:13515   */\n      swap2\n      swap1\n      pop\n      jump\t// out\n        /* \"#utility.yul\":13521:13701   */\n    tag_279:\n        /* \"#utility.yul\":13569:13646   */\n      0x4e487b7100000000000000000000000000000000000000000000000000000000\n        /* \"#utility.yul\":13566:13567   */\n      0x00\n        /* \"#utility.yul\":13559:13647   */\n      mstore\n        /* \"#utility.yul\":13666:13670   */\n      0x11\n        /* \"#utility.yul\":13663:13664   */\n      0x04\n        /* \"#utility.yul\":13656:13671   */\n      mstore\n        /* \"#utility.yul\":13690:13694   */\n      0x24\n        /* \"#utility.yul\":13687:13688   */\n      0x00\n        /* \"#utility.yul\":13680:13695   */\n      revert\n        /* \"#utility.yul\":13707:13887   */\n    tag_303:\n        /* \"#utility.yul\":13755:13832   */\n      0x4e487b7100000000000000000000000000000000000000000000000000000000\n        /* \"#utility.yul\":13752:13753   */\n      0x00\n        /* \"#utility.yul\":13745:13833   */\n      mstore\n        /* \"#utility.yul\":13852:13856   */\n      0x22\n        /* \"#utility.yul\":13849:13850   */\n      0x04\n        /* \"#utility.yul\":13842:13857   */\n      mstore\n        /* \"#utility.yul\":13876:13880   */\n      0x24\n        /* \"#utility.yul\":13873:13874   */\n      0x00\n        /* \"#utility.yul\":13866:13881   */\n      revert\n        /* \"#utility.yul\":14016:14133   */\n    tag_150:\n        /* \"#utility.yul\":14125:14126   */\n      0x00\n        /* \"#utility.yul\":14122:14123   */\n      dup1\n        /* \"#utility.yul\":14115:14127   */\n      revert\n        /* \"#utility.yul\":14139:14241   */\n    tag_193:\n        /* \"#utility.yul\":14180:14186   */\n      0x00\n        /* \"#utility.yul\":14231:14233   */\n      0x1f\n        /* \"#utility.yul\":14227:14234   */\n      not\n        /* \"#utility.yul\":14222:14224   */\n      0x1f\n        /* \"#utility.yul\":14215:14220   */\n      dup4\n        /* \"#utility.yul\":14211:14225   */\n      add\n        /* \"#utility.yul\":14207:14235   */\n      and\n        /* \"#utility.yul\":14197:14235   */\n      swap1\n      pop\n        /* \"#utility.yul\":14139:14241   */\n      swap2\n      swap1\n      pop\n      jump\t// out\n        /* \"#utility.yul\":14247:14419   */\n    tag_198:\n        /* \"#utility.yul\":14387:14411   */\n      0x496e76616c6964206275726e20726563697069656e7400000000000000000000\n        /* \"#utility.yul\":14383:14384   */\n      0x00\n        /* \"#utility.yul\":14375:14381   */\n      dup3\n        /* \"#utility.yul\":14371:14385   */\n      add\n        /* \"#utility.yul\":14364:14412   */\n      mstore\n        /* \"#utility.yul\":14247:14419   */\n      pop\n      jump\t// out\n        /* \"#utility.yul\":14425:14647   */\n    tag_203:\n        /* \"#utility.yul\":14565:14599   */\n      0x56616c7565206d7573742062652067726561746572206f7220657175616c2074\n        /* \"#utility.yul\":14561:14562   */\n      0x00\n        /* \"#utility.yul\":14553:14559   */\n      dup3\n        /* \"#utility.yul\":14549:14563   */\n      add\n        /* \"#utility.yul\":14542:14600   */\n      mstore\n        /* \"#utility.yul\":14634:14639   */\n      0x6f20300000000000000000000000000000000000000000000000000000000000\n        /* \"#utility.yul\":14629:14631   */\n      0x20\n        /* \"#utility.yul\":14621:14627   */\n      dup3\n        /* \"#utility.yul\":14617:14632   */\n      add\n        /* \"#utility.yul\":14610:14640   */\n      mstore\n        /* \"#utility.yul\":14425:14647   */\n      pop\n      jump\t// out\n        /* \"#utility.yul\":14653:14825   */\n    tag_208:\n        /* \"#utility.yul\":14793:14817   */\n      0x4f7065726174696f6e20756e617574686f726973656400000000000000000000\n        /* \"#utility.yul\":14789:14790   */\n      0x00\n        /* \"#utility.yul\":14781:14787   */\n      dup3\n        /* \"#utility.yul\":14777:14791   */\n      add\n        /* \"#utility.yul\":14770:14818   */\n      mstore\n        /* \"#utility.yul\":14653:14825   */\n      pop\n      jump\t// out\n        /* \"#utility.yul\":14831:15009   */\n    tag_213:\n        /* \"#utility.yul\":14971:15001   */\n      0x56616c7565206d7573742062652067726561746572207468616e203000000000\n        /* \"#utility.yul\":14967:14968   */\n      0x00\n        /* \"#utility.yul\":14959:14965   */\n      dup3\n        /* \"#utility.yul\":14955:14969   */\n      add\n        /* \"#utility.yul\":14948:15002   */\n      mstore\n        /* \"#utility.yul\":14831:15009   */\n      pop\n      jump\t// out\n        /* \"#utility.yul\":15015:15183   */\n    tag_218:\n        /* \"#utility.yul\":15155:15175   */\n      0x4e6f7420656e6f7567682062616c616e63650000000000000000000000000000\n        /* \"#utility.yul\":15151:15152   */\n      0x00\n        /* \"#utility.yul\":15143:15149   */\n      dup3\n        /* \"#utility.yul\":15139:15153   */\n      add\n        /* \"#utility.yul\":15132:15176   */\n      mstore\n        /* \"#utility.yul\":15015:15183   */\n      pop\n      jump\t// out\n        /* \"#utility.yul\":15189:15363   */\n    tag_223:\n        /* \"#utility.yul\":15329:15355   */\n      0x5265636569766572206164647265737320696e76616c69640000000000000000\n        /* \"#utility.yul\":15325:15326   */\n      0x00\n        /* \"#utility.yul\":15317:15323   */\n      dup3\n        /* \"#utility.yul\":15313:15327   */\n      add\n        /* \"#utility.yul\":15306:15356   */\n      mstore\n        /* \"#utility.yul\":15189:15363   */\n      pop\n      jump\t// out\n        /* \"#utility.yul\":15369:15546   */\n    tag_228:\n        /* \"#utility.yul\":15509:15538   */\n      0x4275726e20616d6f756e7420657863656564732062616c616e63650000000000\n        /* \"#utility.yul\":15505:15506   */\n      0x00\n        /* \"#utility.yul\":15497:15503   */\n      dup3\n        /* \"#utility.yul\":15493:15507   */\n      add\n        /* \"#utility.yul\":15486:15539   */\n      mstore\n        /* \"#utility.yul\":15369:15546   */\n      pop\n      jump\t// out\n        /* \"#utility.yul\":15552:15722   */\n    tag_233:\n        /* \"#utility.yul\":15692:15714   */\n      0x4e6f7420656e6f75676820616c6c6f77616e6365000000000000000000000000\n        /* \"#utility.yul\":15688:15689   */\n      0x00\n        /* \"#utility.yul\":15680:15686   */\n      dup3\n        /* \"#utility.yul\":15676:15690   */\n      add\n        /* \"#utility.yul\":15669:15715   */\n      mstore\n        /* \"#utility.yul\":15552:15722   */\n      pop\n      jump\t// out\n        /* \"#utility.yul\":15728:15850   */\n    tag_142:\n        /* \"#utility.yul\":15801:15825   */\n      tag_319\n        /* \"#utility.yul\":15819:15824   */\n      dup2\n        /* \"#utility.yul\":15801:15825   */\n      tag_179\n      jump\t// in\n    tag_319:\n        /* \"#utility.yul\":15794:15799   */\n      dup2\n        /* \"#utility.yul\":15791:15826   */\n      eq\n        /* \"#utility.yul\":15781:15844   */\n      tag_320\n      jumpi\n        /* \"#utility.yul\":15840:15841   */\n      0x00\n        /* \"#utility.yul\":15837:15838   */\n      dup1\n        /* \"#utility.yul\":15830:15842   */\n      revert\n        /* \"#utility.yul\":15781:15844   */\n    tag_320:\n        /* \"#utility.yul\":15728:15850   */\n      pop\n      jump\t// out\n        /* \"#utility.yul\":15856:15978   */\n    tag_146:\n        /* \"#utility.yul\":15929:15953   */\n      tag_322\n        /* \"#utility.yul\":15947:15952   */\n      dup2\n        /* \"#utility.yul\":15929:15953   */\n      tag_237\n      jump\t// in\n    tag_322:\n        /* \"#utility.yul\":15922:15927   */\n      dup2\n        /* \"#utility.yul\":15919:15954   */\n      eq\n        /* \"#utility.yul\":15909:15972   */\n      tag_323\n      jumpi\n        /* \"#utility.yul\":15968:15969   */\n      0x00\n        /* \"#utility.yul\":15965:15966   */\n      dup1\n        /* \"#utility.yul\":15958:15970   */\n      revert\n        /* \"#utility.yul\":15909:15972   */\n    tag_323:\n        /* \"#utility.yul\":15856:15978   */\n      pop\n      jump\t// out\n\n    auxdata: 0xa2646970667358221220d019016000d55bf575c4f85a061da619c6025749cb8ad36e68b4f1952730191564736f6c63430008070033\n}\n",
				"bytecode": {
					"linkReferences": {},
					"object": "60806040523480156200001157600080fd5b506040518060400160405280600b81526020017f52616e646f6d546f6b656e000000000000000000000000000000000000000000815250600090805190602001906200005f929190620001f0565b506040518060400160405280600381526020017f524454000000000000000000000000000000000000000000000000000000000081525060019080519060200190620000ad929190620001f0565b506012600260006101000a81548160ff021916908360ff1602179055506000633b9aca00905033600460006101000a81548173ffffffffffffffffffffffffffffffffffffffff021916908373ffffffffffffffffffffffffffffffffffffffff1602179055508060056000600460009054906101000a900473ffffffffffffffffffffffffffffffffffffffff1673ffffffffffffffffffffffffffffffffffffffff1673ffffffffffffffffffffffffffffffffffffffff16815260200190815260200160002081905550806003819055503373ffffffffffffffffffffffffffffffffffffffff16600073ffffffffffffffffffffffffffffffffffffffff167fddf252ad1be2c89b69c2b068fc378daa952ba7f163c4a11628f55a4df523b3ef83604051620001e19190620002b1565b60405180910390a3506200033d565b828054620001fe90620002d8565b90600052602060002090601f0160209004810192826200022257600085556200026e565b82601f106200023d57805160ff19168380011785556200026e565b828001600101855582156200026e579182015b828111156200026d57825182559160200191906001019062000250565b5b5090506200027d919062000281565b5090565b5b808211156200029c57600081600090555060010162000282565b5090565b620002ab81620002ce565b82525050565b6000602082019050620002c86000830184620002a0565b92915050565b6000819050919050565b60006002820490506001821680620002f157607f821691505b602082108114156200030857620003076200030e565b5b50919050565b7f4e487b7100000000000000000000000000000000000000000000000000000000600052602260045260246000fd5b6117d6806200034d6000396000f3fe608060405234801561001057600080fd5b50600436106100cf5760003560e01c806370a082311161008c57806395d89b411161006657806395d89b411461022a578063a0712d6814610248578063a9059cbb14610278578063dd62ed3e146102a8576100cf565b806370a08231146101be578063893d20e8146101ee5780638da5cb5b1461020c576100cf565b806306fdde03146100d4578063095ea7b3146100f257806318160ddd1461012257806323b872dd14610140578063313ce5671461017057806342966c681461018e575b600080fd5b6100dc6102d8565b6040516100e991906112c6565b60405180910390f35b61010c6004803603810190610107919061106c565b610366565b60405161011991906112ab565b60405180910390f35b61012a61049a565b60405161013791906113e8565b60405180910390f35b61015a60048036038101906101559190611019565b6104a0565b60405161016791906112ab565b60405180910390f35b610178610880565b6040516101859190611403565b60405180910390f35b6101a860048036038101906101a391906110ac565b610893565b6040516101b591906112ab565b60405180910390f35b6101d860048036038101906101d39190610fac565b610a69565b6040516101e591906113e8565b60405180910390f35b6101f6610a81565b6040516102039190611275565b60405180910390f35b610214610aab565b6040516102219190611290565b60405180910390f35b610232610ad1565b60405161023f91906112c6565b60405180910390f35b610262600480360381019061025d91906110ac565b610b5f565b60405161026f91906112ab565b60405180910390f35b610292600480360381019061028d919061106c565b610ccf565b60405161029f91906112ab565b60405180910390f35b6102c260048036038101906102bd9190610fd9565b610f5d565b6040516102cf91906113e8565b60405180910390f35b600080546102e59061155e565b80601f01602080910402602001604051908101604052809291908181526020018280546103119061155e565b801561035e5780601f106103335761010080835404028352916020019161035e565b820191906000526020600020905b81548152906001019060200180831161034157829003601f168201915b505050505081565b60008082116103aa576040517f08c379a00000000000000000000000000000000000000000000000000000000081526004016103a190611348565b60405180910390fd5b81600660003373ffffffffffffffffffffffffffffffffffffffff1673ffffffffffffffffffffffffffffffffffffffff16815260200190815260200160002060008573ffffffffffffffffffffffffffffffffffffffff1673ffffffffffffffffffffffffffffffffffffffff168152602001908152602001600020819055508273ffffffffffffffffffffffffffffffffffffffff163373ffffffffffffffffffffffffffffffffffffffff167f6e11fb1b7f119e3f2fa29896ef5fdf8b8a2d0d4df6fe90ba8668e7d8b2ffa25e8460405161048891906113e8565b60405180910390a36001905092915050565b60035481565b600080600560003373ffffffffffffffffffffffffffffffffffffffff1673ffffffffffffffffffffffffffffffffffffffff1681526020019081526020016000205490506000600660008773ffffffffffffffffffffffffffffffffffffffff1673ffffffffffffffffffffffffffffffffffffffff16815260200190815260200160002060003373ffffffffffffffffffffffffffffffffffffffff1673ffffffffffffffffffffffffffffffffffffffff1681526020019081526020016000205490506000600560008773ffffffffffffffffffffffffffffffffffffffff1673ffffffffffffffffffffffffffffffffffffffff168152602001908152602001600020549050600073ffffffffffffffffffffffffffffffffffffffff168673ffffffffffffffffffffffffffffffffffffffff16141561061a576040517f08c379a000000000000000000000000000000000000000000000000000000000815260040161061190611388565b60405180910390fd5b600085101561065e576040517f08c379a000000000000000000000000000000000000000000000000000000000815260040161065590611308565b60405180910390fd5b8483116106a0576040517f08c379a000000000000000000000000000000000000000000000000000000000815260040161069790611368565b60405180910390fd5b848210156106e3576040517f08c379a00000000000000000000000000000000000000000000000000000000081526004016106da906113c8565b60405180910390fd5b84836106ef9190611490565b600560008973ffffffffffffffffffffffffffffffffffffffff1673ffffffffffffffffffffffffffffffffffffffff16815260200190815260200160002081905550848161073e919061143a565b600560008873ffffffffffffffffffffffffffffffffffffffff1673ffffffffffffffffffffffffffffffffffffffff16815260200190815260200160002081905550848261078d9190611490565b600660008973ffffffffffffffffffffffffffffffffffffffff1673ffffffffffffffffffffffffffffffffffffffff16815260200190815260200160002060003373ffffffffffffffffffffffffffffffffffffffff1673ffffffffffffffffffffffffffffffffffffffff168152602001908152602001600020819055508573ffffffffffffffffffffffffffffffffffffffff168773ffffffffffffffffffffffffffffffffffffffff167fddf252ad1be2c89b69c2b068fc378daa952ba7f163c4a11628f55a4df523b3ef8760405161086a91906113e8565b60405180910390a3600193505050509392505050565b600260009054906101000a900460ff1681565b60008073ffffffffffffffffffffffffffffffffffffffff163373ffffffffffffffffffffffffffffffffffffffff161415610904576040517f08c379a00000000000000000000000000000000000000000000000000000000081526004016108fb906112e8565b60405180910390fd5b6000600560003373ffffffffffffffffffffffffffffffffffffffff1673ffffffffffffffffffffffffffffffffffffffff16815260200190815260200160002054905082811161098a576040517f08c379a0000000000000000000000000000000000000000000000000000000008152600401610981906113a8565b60405180910390fd5b82600560003373ffffffffffffffffffffffffffffffffffffffff1673ffffffffffffffffffffffffffffffffffffffff16815260200190815260200160002060008282546109d99190611490565b9250508190555082600360008282546109f29190611490565b92505081905550600073ffffffffffffffffffffffffffffffffffffffff163373ffffffffffffffffffffffffffffffffffffffff167fddf252ad1be2c89b69c2b068fc378daa952ba7f163c4a11628f55a4df523b3ef85604051610a5791906113e8565b60405180910390a36001915050919050565b60056020528060005260406000206000915090505481565b6000600460009054906101000a900473ffffffffffffffffffffffffffffffffffffffff16905090565b600460009054906101000a900473ffffffffffffffffffffffffffffffffffffffff1681565b60018054610ade9061155e565b80601f0160208091040260200160405190810160405280929190818152602001828054610b0a9061155e565b8015610b575780601f10610b2c57610100808354040283529160200191610b57565b820191906000526020600020905b815481529060010190602001808311610b3a57829003601f168201915b505050505081565b6000600460009054906101000a900473ffffffffffffffffffffffffffffffffffffffff1673ffffffffffffffffffffffffffffffffffffffff163373ffffffffffffffffffffffffffffffffffffffff1614610bf1576040517f08c379a0000000000000000000000000000000000000000000000000000000008152600401610be890611328565b60405180910390fd5b8160036000828254610c03919061143a565b9250508190555081600560003373ffffffffffffffffffffffffffffffffffffffff1673ffffffffffffffffffffffffffffffffffffffff1681526020019081526020016000206000828254610c59919061143a565b925050819055503373ffffffffffffffffffffffffffffffffffffffff16600073ffffffffffffffffffffffffffffffffffffffff167fddf252ad1be2c89b69c2b068fc378daa952ba7f163c4a11628f55a4df523b3ef84604051610cbe91906113e8565b60405180910390a360019050919050565b600080600560003373ffffffffffffffffffffffffffffffffffffffff1673ffffffffffffffffffffffffffffffffffffffff1681526020019081526020016000205490506000600560008673ffffffffffffffffffffffffffffffffffffffff1673ffffffffffffffffffffffffffffffffffffffff168152602001908152602001600020549050600073ffffffffffffffffffffffffffffffffffffffff168573ffffffffffffffffffffffffffffffffffffffff161415610dc8576040517f08c379a0000000000000000000000000000000000000000000000000000000008152600401610dbf90611388565b60405180910390fd5b6000841015610e0c576040517f08c379a0000000000000000000000000000000000000000000000000000000008152600401610e0390611308565b60405180910390fd5b838211610e4e576040517f08c379a0000000000000000000000000000000000000000000000000000000008152600401610e4590611368565b60405180910390fd5b8382610e5a9190611490565b600560003373ffffffffffffffffffffffffffffffffffffffff1673ffffffffffffffffffffffffffffffffffffffff168152602001908152602001600020819055508381610ea9919061143a565b600560008773ffffffffffffffffffffffffffffffffffffffff1673ffffffffffffffffffffffffffffffffffffffff168152602001908152602001600020819055508473ffffffffffffffffffffffffffffffffffffffff163373ffffffffffffffffffffffffffffffffffffffff167fddf252ad1be2c89b69c2b068fc378daa952ba7f163c4a11628f55a4df523b3ef86604051610f4991906113e8565b60405180910390a360019250505092915050565b6006602052816000526040600020602052806000526040600020600091509150505481565b600081359050610f9181611772565b92915050565b600081359050610fa681611789565b92915050565b600060208284031215610fc257610fc16115ee565b5b6000610fd084828501610f82565b91505092915050565b60008060408385031215610ff057610fef6115ee565b5b6000610ffe85828601610f82565b925050602061100f85828601610f82565b9150509250929050565b600080600060608486031215611032576110316115ee565b5b600061104086828701610f82565b935050602061105186828701610f82565b925050604061106286828701610f97565b9150509250925092565b60008060408385031215611083576110826115ee565b5b600061109185828601610f82565b92505060206110a285828601610f97565b9150509250929050565b6000602082840312156110c2576110c16115ee565b5b60006110d084828501610f97565b91505092915050565b6110e2816114d6565b82525050565b6110f1816114c4565b82525050565b611100816114e8565b82525050565b60006111118261141e565b61111b8185611429565b935061112b81856020860161152b565b611134816115f3565b840191505092915050565b600061114c601683611429565b915061115782611604565b602082019050919050565b600061116f602383611429565b915061117a8261162d565b604082019050919050565b6000611192601683611429565b915061119d8261167c565b602082019050919050565b60006111b5601c83611429565b91506111c0826116a5565b602082019050919050565b60006111d8601283611429565b91506111e3826116ce565b602082019050919050565b60006111fb601883611429565b9150611206826116f7565b602082019050919050565b600061121e601b83611429565b915061122982611720565b602082019050919050565b6000611241601483611429565b915061124c82611749565b602082019050919050565b61126081611514565b82525050565b61126f8161151e565b82525050565b600060208201905061128a60008301846110e8565b92915050565b60006020820190506112a560008301846110d9565b92915050565b60006020820190506112c060008301846110f7565b92915050565b600060208201905081810360008301526112e08184611106565b905092915050565b600060208201905081810360008301526113018161113f565b9050919050565b6000602082019050818103600083015261132181611162565b9050919050565b6000602082019050818103600083015261134181611185565b9050919050565b60006020820190508181036000830152611361816111a8565b9050919050565b60006020820190508181036000830152611381816111cb565b9050919050565b600060208201905081810360008301526113a1816111ee565b9050919050565b600060208201905081810360008301526113c181611211565b9050919050565b600060208201905081810360008301526113e181611234565b9050919050565b60006020820190506113fd6000830184611257565b92915050565b60006020820190506114186000830184611266565b92915050565b600081519050919050565b600082825260208201905092915050565b600061144582611514565b915061145083611514565b9250827fffffffffffffffffffffffffffffffffffffffffffffffffffffffffffffffff0382111561148557611484611590565b5b828201905092915050565b600061149b82611514565b91506114a683611514565b9250828210156114b9576114b8611590565b5b828203905092915050565b60006114cf826114f4565b9050919050565b60006114e1826114f4565b9050919050565b60008115159050919050565b600073ffffffffffffffffffffffffffffffffffffffff82169050919050565b6000819050919050565b600060ff82169050919050565b60005b8381101561154957808201518184015260208101905061152e565b83811115611558576000848401525b50505050565b6000600282049050600182168061157657607f821691505b6020821081141561158a576115896115bf565b5b50919050565b7f4e487b7100000000000000000000000000000000000000000000000000000000600052601160045260246000fd5b7f4e487b7100000000000000000000000000000000000000000000000000000000600052602260045260246000fd5b600080fd5b6000601f19601f8301169050919050565b7f496e76616c6964206275726e20726563697069656e7400000000000000000000600082015250565b7f56616c7565206d7573742062652067726561746572206f7220657175616c207460008201527f6f20300000000000000000000000000000000000000000000000000000000000602082015250565b7f4f7065726174696f6e20756e617574686f726973656400000000000000000000600082015250565b7f56616c7565206d7573742062652067726561746572207468616e203000000000600082015250565b7f4e6f7420656e6f7567682062616c616e63650000000000000000000000000000600082015250565b7f5265636569766572206164647265737320696e76616c69640000000000000000600082015250565b7f4275726e20616d6f756e7420657863656564732062616c616e63650000000000600082015250565b7f4e6f7420656e6f75676820616c6c6f77616e6365000000000000000000000000600082015250565b61177b816114c4565b811461178657600080fd5b50565b61179281611514565b811461179d57600080fd5b5056fea2646970667358221220d019016000d55bf575c4f85a061da619c6025749cb8ad36e68b4f1952730191564736f6c63430008070033",
					"opcodes": "PUSH1 0x80 PUSH1 0x40 MSTORE CALLVALUE DUP1 ISZERO PUSH3 0x11 JUMPI PUSH1 0x0 DUP1 REVERT JUMPDEST POP PUSH1 0x40 MLOAD DUP1 PUSH1 0x40 ADD PUSH1 0x40 MSTORE DUP1 PUSH1 0xB DUP2 MSTORE PUSH1 0x20 ADD PUSH32 0x52616E646F6D546F6B656E000000000000000000000000000000000000000000 DUP2 MSTORE POP PUSH1 0x0 SWAP1 DUP1 MLOAD SWAP1 PUSH1 0x20 ADD SWAP1 PUSH3 0x5F SWAP3 SWAP2 SWAP1 PUSH3 0x1F0 JUMP JUMPDEST POP PUSH1 0x40 MLOAD DUP1 PUSH1 0x40 ADD PUSH1 0x40 MSTORE DUP1 PUSH1 0x3 DUP2 MSTORE PUSH1 0x20 ADD PUSH32 0x5244540000000000000000000000000000000000000000000000000000000000 DUP2 MSTORE POP PUSH1 0x1 SWAP1 DUP1 MLOAD SWAP1 PUSH1 0x20 ADD SWAP1 PUSH3 0xAD SWAP3 SWAP2 SWAP1 PUSH3 0x1F0 JUMP JUMPDEST POP PUSH1 0x12 PUSH1 0x2 PUSH1 0x0 PUSH2 0x100 EXP DUP2 SLOAD DUP2 PUSH1 0xFF MUL NOT AND SWAP1 DUP4 PUSH1 0xFF AND MUL OR SWAP1 SSTORE POP PUSH1 0x0 PUSH4 0x3B9ACA00 SWAP1 POP CALLER PUSH1 0x4 PUSH1 0x0 PUSH2 0x100 EXP DUP2 SLOAD DUP2 PUSH20 0xFFFFFFFFFFFFFFFFFFFFFFFFFFFFFFFFFFFFFFFF MUL NOT AND SWAP1 DUP4 PUSH20 0xFFFFFFFFFFFFFFFFFFFFFFFFFFFFFFFFFFFFFFFF AND MUL OR SWAP1 SSTORE POP DUP1 PUSH1 0x5 PUSH1 0x0 PUSH1 0x4 PUSH1 0x0 SWAP1 SLOAD SWAP1 PUSH2 0x100 EXP SWAP1 DIV PUSH20 0xFFFFFFFFFFFFFFFFFFFFFFFFFFFFFFFFFFFFFFFF AND PUSH20 0xFFFFFFFFFFFFFFFFFFFFFFFFFFFFFFFFFFFFFFFF AND PUSH20 0xFFFFFFFFFFFFFFFFFFFFFFFFFFFFFFFFFFFFFFFF AND DUP2 MSTORE PUSH1 0x20 ADD SWAP1 DUP2 MSTORE PUSH1 0x20 ADD PUSH1 0x0 KECCAK256 DUP2 SWAP1 SSTORE POP DUP1 PUSH1 0x3 DUP2 SWAP1 SSTORE POP CALLER PUSH20 0xFFFFFFFFFFFFFFFFFFFFFFFFFFFFFFFFFFFFFFFF AND PUSH1 0x0 PUSH20 0xFFFFFFFFFFFFFFFFFFFFFFFFFFFFFFFFFFFFFFFF AND PUSH32 0xDDF252AD1BE2C89B69C2B068FC378DAA952BA7F163C4A11628F55A4DF523B3EF DUP4 PUSH1 0x40 MLOAD PUSH3 0x1E1 SWAP2 SWAP1 PUSH3 0x2B1 JUMP JUMPDEST PUSH1 0x40 MLOAD DUP1 SWAP2 SUB SWAP1 LOG3 POP PUSH3 0x33D JUMP JUMPDEST DUP3 DUP1 SLOAD PUSH3 0x1FE SWAP1 PUSH3 0x2D8 JUMP JUMPDEST SWAP1 PUSH1 0x0 MSTORE PUSH1 0x20 PUSH1 0x0 KECCAK256 SWAP1 PUSH1 0x1F ADD PUSH1 0x20 SWAP1 DIV DUP2 ADD SWAP3 DUP3 PUSH3 0x222 JUMPI PUSH1 0x0 DUP6 SSTORE PUSH3 0x26E JUMP JUMPDEST DUP3 PUSH1 0x1F LT PUSH3 0x23D JUMPI DUP1 MLOAD PUSH1 0xFF NOT AND DUP4 DUP1 ADD OR DUP6 SSTORE PUSH3 0x26E JUMP JUMPDEST DUP3 DUP1 ADD PUSH1 0x1 ADD DUP6 SSTORE DUP3 ISZERO PUSH3 0x26E JUMPI SWAP2 DUP3 ADD JUMPDEST DUP3 DUP2 GT ISZERO PUSH3 0x26D JUMPI DUP3 MLOAD DUP3 SSTORE SWAP2 PUSH1 0x20 ADD SWAP2 SWAP1 PUSH1 0x1 ADD SWAP1 PUSH3 0x250 JUMP JUMPDEST JUMPDEST POP SWAP1 POP PUSH3 0x27D SWAP2 SWAP1 PUSH3 0x281 JUMP JUMPDEST POP SWAP1 JUMP JUMPDEST JUMPDEST DUP1 DUP3 GT ISZERO PUSH3 0x29C JUMPI PUSH1 0x0 DUP2 PUSH1 0x0 SWAP1 SSTORE POP PUSH1 0x1 ADD PUSH3 0x282 JUMP JUMPDEST POP SWAP1 JUMP JUMPDEST PUSH3 0x2AB DUP2 PUSH3 0x2CE JUMP JUMPDEST DUP3 MSTORE POP POP JUMP JUMPDEST PUSH1 0x0 PUSH1 0x20 DUP3 ADD SWAP1 POP PUSH3 0x2C8 PUSH1 0x0 DUP4 ADD DUP5 PUSH3 0x2A0 JUMP JUMPDEST SWAP3 SWAP2 POP POP JUMP JUMPDEST PUSH1 0x0 DUP2 SWAP1 POP SWAP2 SWAP1 POP JUMP JUMPDEST PUSH1 0x0 PUSH1 0x2 DUP3 DIV SWAP1 POP PUSH1 0x1 DUP3 AND DUP1 PUSH3 0x2F1 JUMPI PUSH1 0x7F DUP3 AND SWAP2 POP JUMPDEST PUSH1 0x20 DUP3 LT DUP2 EQ ISZERO PUSH3 0x308 JUMPI PUSH3 0x307 PUSH3 0x30E JUMP JUMPDEST JUMPDEST POP SWAP2 SWAP1 POP JUMP JUMPDEST PUSH32 0x4E487B7100000000000000000000000000000000000000000000000000000000 PUSH1 0x0 MSTORE PUSH1 0x22 PUSH1 0x4 MSTORE PUSH1 0x24 PUSH1 0x0 REVERT JUMPDEST PUSH2 0x17D6 DUP1 PUSH3 0x34D PUSH1 0x0 CODECOPY PUSH1 0x0 RETURN INVALID PUSH1 0x80 PUSH1 0x40 MSTORE CALLVALUE DUP1 ISZERO PUSH2 0x10 JUMPI PUSH1 0x0 DUP1 REVERT JUMPDEST POP PUSH1 0x4 CALLDATASIZE LT PUSH2 0xCF JUMPI PUSH1 0x0 CALLDATALOAD PUSH1 0xE0 SHR DUP1 PUSH4 0x70A08231 GT PUSH2 0x8C JUMPI DUP1 PUSH4 0x95D89B41 GT PUSH2 0x66 JUMPI DUP1 PUSH4 0x95D89B41 EQ PUSH2 0x22A JUMPI DUP1 PUSH4 0xA0712D68 EQ PUSH2 0x248 JUMPI DUP1 PUSH4 0xA9059CBB EQ PUSH2 0x278 JUMPI DUP1 PUSH4 0xDD62ED3E EQ PUSH2 0x2A8 JUMPI PUSH2 0xCF JUMP JUMPDEST DUP1 PUSH4 0x70A08231 EQ PUSH2 0x1BE JUMPI DUP1 PUSH4 0x893D20E8 EQ PUSH2 0x1EE JUMPI DUP1 PUSH4 0x8DA5CB5B EQ PUSH2 0x20C JUMPI PUSH2 0xCF JUMP JUMPDEST DUP1 PUSH4 0x6FDDE03 EQ PUSH2 0xD4 JUMPI DUP1 PUSH4 0x95EA7B3 EQ PUSH2 0xF2 JUMPI DUP1 PUSH4 0x18160DDD EQ PUSH2 0x122 JUMPI DUP1 PUSH4 0x23B872DD EQ PUSH2 0x140 JUMPI DUP1 PUSH4 0x313CE567 EQ PUSH2 0x170 JUMPI DUP1 PUSH4 0x42966C68 EQ PUSH2 0x18E JUMPI JUMPDEST PUSH1 0x0 DUP1 REVERT JUMPDEST PUSH2 0xDC PUSH2 0x2D8 JUMP JUMPDEST PUSH1 0x40 MLOAD PUSH2 0xE9 SWAP2 SWAP1 PUSH2 0x12C6 JUMP JUMPDEST PUSH1 0x40 MLOAD DUP1 SWAP2 SUB SWAP1 RETURN JUMPDEST PUSH2 0x10C PUSH1 0x4 DUP1 CALLDATASIZE SUB DUP2 ADD SWAP1 PUSH2 0x107 SWAP2 SWAP1 PUSH2 0x106C JUMP JUMPDEST PUSH2 0x366 JUMP JUMPDEST PUSH1 0x40 MLOAD PUSH2 0x119 SWAP2 SWAP1 PUSH2 0x12AB JUMP JUMPDEST PUSH1 0x40 MLOAD DUP1 SWAP2 SUB SWAP1 RETURN JUMPDEST PUSH2 0x12A PUSH2 0x49A JUMP JUMPDEST PUSH1 0x40 MLOAD PUSH2 0x137 SWAP2 SWAP1 PUSH2 0x13E8 JUMP JUMPDEST PUSH1 0x40 MLOAD DUP1 SWAP2 SUB SWAP1 RETURN JUMPDEST PUSH2 0x15A PUSH1 0x4 DUP1 CALLDATASIZE SUB DUP2 ADD SWAP1 PUSH2 0x155 SWAP2 SWAP1 PUSH2 0x1019 JUMP JUMPDEST PUSH2 0x4A0 JUMP JUMPDEST PUSH1 0x40 MLOAD PUSH2 0x167 SWAP2 SWAP1 PUSH2 0x12AB JUMP JUMPDEST PUSH1 0x40 MLOAD DUP1 SWAP2 SUB SWAP1 RETURN JUMPDEST PUSH2 0x178 PUSH2 0x880 JUMP JUMPDEST PUSH1 0x40 MLOAD PUSH2 0x185 SWAP2 SWAP1 PUSH2 0x1403 JUMP JUMPDEST PUSH1 0x40 MLOAD DUP1 SWAP2 SUB SWAP1 RETURN JUMPDEST PUSH2 0x1A8 PUSH1 0x4 DUP1 CALLDATASIZE SUB DUP2 ADD SWAP1 PUSH2 0x1A3 SWAP2 SWAP1 PUSH2 0x10AC JUMP JUMPDEST PUSH2 0x893 JUMP JUMPDEST PUSH1 0x40 MLOAD PUSH2 0x1B5 SWAP2 SWAP1 PUSH2 0x12AB JUMP JUMPDEST PUSH1 0x40 MLOAD DUP1 SWAP2 SUB SWAP1 RETURN JUMPDEST PUSH2 0x1D8 PUSH1 0x4 DUP1 CALLDATASIZE SUB DUP2 ADD SWAP1 PUSH2 0x1D3 SWAP2 SWAP1 PUSH2 0xFAC JUMP JUMPDEST PUSH2 0xA69 JUMP JUMPDEST PUSH1 0x40 MLOAD PUSH2 0x1E5 SWAP2 SWAP1 PUSH2 0x13E8 JUMP JUMPDEST PUSH1 0x40 MLOAD DUP1 SWAP2 SUB SWAP1 RETURN JUMPDEST PUSH2 0x1F6 PUSH2 0xA81 JUMP JUMPDEST PUSH1 0x40 MLOAD PUSH2 0x203 SWAP2 SWAP1 PUSH2 0x1275 JUMP JUMPDEST PUSH1 0x40 MLOAD DUP1 SWAP2 SUB SWAP1 RETURN JUMPDEST PUSH2 0x214 PUSH2 0xAAB JUMP JUMPDEST PUSH1 0x40 MLOAD PUSH2 0x221 SWAP2 SWAP1 PUSH2 0x1290 JUMP JUMPDEST PUSH1 0x40 MLOAD DUP1 SWAP2 SUB SWAP1 RETURN JUMPDEST PUSH2 0x232 PUSH2 0xAD1 JUMP JUMPDEST PUSH1 0x40 MLOAD PUSH2 0x23F SWAP2 SWAP1 PUSH2 0x12C6 JUMP JUMPDEST PUSH1 0x40 MLOAD DUP1 SWAP2 SUB SWAP1 RETURN JUMPDEST PUSH2 0x262 PUSH1 0x4 DUP1 CALLDATASIZE SUB DUP2 ADD SWAP1 PUSH2 0x25D SWAP2 SWAP1 PUSH2 0x10AC JUMP JUMPDEST PUSH2 0xB5F JUMP JUMPDEST PUSH1 0x40 MLOAD PUSH2 0x26F SWAP2 SWAP1 PUSH2 0x12AB JUMP JUMPDEST PUSH1 0x40 MLOAD DUP1 SWAP2 SUB SWAP1 RETURN JUMPDEST PUSH2 0x292 PUSH1 0x4 DUP1 CALLDATASIZE SUB DUP2 ADD SWAP1 PUSH2 0x28D SWAP2 SWAP1 PUSH2 0x106C JUMP JUMPDEST PUSH2 0xCCF JUMP JUMPDEST PUSH1 0x40 MLOAD PUSH2 0x29F SWAP2 SWAP1 PUSH2 0x12AB JUMP JUMPDEST PUSH1 0x40 MLOAD DUP1 SWAP2 SUB SWAP1 RETURN JUMPDEST PUSH2 0x2C2 PUSH1 0x4 DUP1 CALLDATASIZE SUB DUP2 ADD SWAP1 PUSH2 0x2BD SWAP2 SWAP1 PUSH2 0xFD9 JUMP JUMPDEST PUSH2 0xF5D JUMP JUMPDEST PUSH1 0x40 MLOAD PUSH2 0x2CF SWAP2 SWAP1 PUSH2 0x13E8 JUMP JUMPDEST PUSH1 0x40 MLOAD DUP1 SWAP2 SUB SWAP1 RETURN JUMPDEST PUSH1 0x0 DUP1 SLOAD PUSH2 0x2E5 SWAP1 PUSH2 0x155E JUMP JUMPDEST DUP1 PUSH1 0x1F ADD PUSH1 0x20 DUP1 SWAP2 DIV MUL PUSH1 0x20 ADD PUSH1 0x40 MLOAD SWAP1 DUP2 ADD PUSH1 0x40 MSTORE DUP1 SWAP3 SWAP2 SWAP1 DUP2 DUP2 MSTORE PUSH1 0x20 ADD DUP3 DUP1 SLOAD PUSH2 0x311 SWAP1 PUSH2 0x155E JUMP JUMPDEST DUP1 ISZERO PUSH2 0x35E JUMPI DUP1 PUSH1 0x1F LT PUSH2 0x333 JUMPI PUSH2 0x100 DUP1 DUP4 SLOAD DIV MUL DUP4 MSTORE SWAP2 PUSH1 0x20 ADD SWAP2 PUSH2 0x35E JUMP JUMPDEST DUP3 ADD SWAP2 SWAP1 PUSH1 0x0 MSTORE PUSH1 0x20 PUSH1 0x0 KECCAK256 SWAP1 JUMPDEST DUP2 SLOAD DUP2 MSTORE SWAP1 PUSH1 0x1 ADD SWAP1 PUSH1 0x20 ADD DUP1 DUP4 GT PUSH2 0x341 JUMPI DUP3 SWAP1 SUB PUSH1 0x1F AND DUP3 ADD SWAP2 JUMPDEST POP POP POP POP POP DUP2 JUMP JUMPDEST PUSH1 0x0 DUP1 DUP3 GT PUSH2 0x3AA JUMPI PUSH1 0x40 MLOAD PUSH32 0x8C379A000000000000000000000000000000000000000000000000000000000 DUP2 MSTORE PUSH1 0x4 ADD PUSH2 0x3A1 SWAP1 PUSH2 0x1348 JUMP JUMPDEST PUSH1 0x40 MLOAD DUP1 SWAP2 SUB SWAP1 REVERT JUMPDEST DUP2 PUSH1 0x6 PUSH1 0x0 CALLER PUSH20 0xFFFFFFFFFFFFFFFFFFFFFFFFFFFFFFFFFFFFFFFF AND PUSH20 0xFFFFFFFFFFFFFFFFFFFFFFFFFFFFFFFFFFFFFFFF AND DUP2 MSTORE PUSH1 0x20 ADD SWAP1 DUP2 MSTORE PUSH1 0x20 ADD PUSH1 0x0 KECCAK256 PUSH1 0x0 DUP6 PUSH20 0xFFFFFFFFFFFFFFFFFFFFFFFFFFFFFFFFFFFFFFFF AND PUSH20 0xFFFFFFFFFFFFFFFFFFFFFFFFFFFFFFFFFFFFFFFF AND DUP2 MSTORE PUSH1 0x20 ADD SWAP1 DUP2 MSTORE PUSH1 0x20 ADD PUSH1 0x0 KECCAK256 DUP2 SWAP1 SSTORE POP DUP3 PUSH20 0xFFFFFFFFFFFFFFFFFFFFFFFFFFFFFFFFFFFFFFFF AND CALLER PUSH20 0xFFFFFFFFFFFFFFFFFFFFFFFFFFFFFFFFFFFFFFFF AND PUSH32 0x6E11FB1B7F119E3F2FA29896EF5FDF8B8A2D0D4DF6FE90BA8668E7D8B2FFA25E DUP5 PUSH1 0x40 MLOAD PUSH2 0x488 SWAP2 SWAP1 PUSH2 0x13E8 JUMP JUMPDEST PUSH1 0x40 MLOAD DUP1 SWAP2 SUB SWAP1 LOG3 PUSH1 0x1 SWAP1 POP SWAP3 SWAP2 POP POP JUMP JUMPDEST PUSH1 0x3 SLOAD DUP2 JUMP JUMPDEST PUSH1 0x0 DUP1 PUSH1 0x5 PUSH1 0x0 CALLER PUSH20 0xFFFFFFFFFFFFFFFFFFFFFFFFFFFFFFFFFFFFFFFF AND PUSH20 0xFFFFFFFFFFFFFFFFFFFFFFFFFFFFFFFFFFFFFFFF AND DUP2 MSTORE PUSH1 0x20 ADD SWAP1 DUP2 MSTORE PUSH1 0x20 ADD PUSH1 0x0 KECCAK256 SLOAD SWAP1 POP PUSH1 0x0 PUSH1 0x6 PUSH1 0x0 DUP8 PUSH20 0xFFFFFFFFFFFFFFFFFFFFFFFFFFFFFFFFFFFFFFFF AND PUSH20 0xFFFFFFFFFFFFFFFFFFFFFFFFFFFFFFFFFFFFFFFF AND DUP2 MSTORE PUSH1 0x20 ADD SWAP1 DUP2 MSTORE PUSH1 0x20 ADD PUSH1 0x0 KECCAK256 PUSH1 0x0 CALLER PUSH20 0xFFFFFFFFFFFFFFFFFFFFFFFFFFFFFFFFFFFFFFFF AND PUSH20 0xFFFFFFFFFFFFFFFFFFFFFFFFFFFFFFFFFFFFFFFF AND DUP2 MSTORE PUSH1 0x20 ADD SWAP1 DUP2 MSTORE PUSH1 0x20 ADD PUSH1 0x0 KECCAK256 SLOAD SWAP1 POP PUSH1 0x0 PUSH1 0x5 PUSH1 0x0 DUP8 PUSH20 0xFFFFFFFFFFFFFFFFFFFFFFFFFFFFFFFFFFFFFFFF AND PUSH20 0xFFFFFFFFFFFFFFFFFFFFFFFFFFFFFFFFFFFFFFFF AND DUP2 MSTORE PUSH1 0x20 ADD SWAP1 DUP2 MSTORE PUSH1 0x20 ADD PUSH1 0x0 KECCAK256 SLOAD SWAP1 POP PUSH1 0x0 PUSH20 0xFFFFFFFFFFFFFFFFFFFFFFFFFFFFFFFFFFFFFFFF AND DUP7 PUSH20 0xFFFFFFFFFFFFFFFFFFFFFFFFFFFFFFFFFFFFFFFF AND EQ ISZERO PUSH2 0x61A JUMPI PUSH1 0x40 MLOAD PUSH32 0x8C379A000000000000000000000000000000000000000000000000000000000 DUP2 MSTORE PUSH1 0x4 ADD PUSH2 0x611 SWAP1 PUSH2 0x1388 JUMP JUMPDEST PUSH1 0x40 MLOAD DUP1 SWAP2 SUB SWAP1 REVERT JUMPDEST PUSH1 0x0 DUP6 LT ISZERO PUSH2 0x65E JUMPI PUSH1 0x40 MLOAD PUSH32 0x8C379A000000000000000000000000000000000000000000000000000000000 DUP2 MSTORE PUSH1 0x4 ADD PUSH2 0x655 SWAP1 PUSH2 0x1308 JUMP JUMPDEST PUSH1 0x40 MLOAD DUP1 SWAP2 SUB SWAP1 REVERT JUMPDEST DUP5 DUP4 GT PUSH2 0x6A0 JUMPI PUSH1 0x40 MLOAD PUSH32 0x8C379A000000000000000000000000000000000000000000000000000000000 DUP2 MSTORE PUSH1 0x4 ADD PUSH2 0x697 SWAP1 PUSH2 0x1368 JUMP JUMPDEST PUSH1 0x40 MLOAD DUP1 SWAP2 SUB SWAP1 REVERT JUMPDEST DUP5 DUP3 LT ISZERO PUSH2 0x6E3 JUMPI PUSH1 0x40 MLOAD PUSH32 0x8C379A000000000000000000000000000000000000000000000000000000000 DUP2 MSTORE PUSH1 0x4 ADD PUSH2 0x6DA SWAP1 PUSH2 0x13C8 JUMP JUMPDEST PUSH1 0x40 MLOAD DUP1 SWAP2 SUB SWAP1 REVERT JUMPDEST DUP5 DUP4 PUSH2 0x6EF SWAP2 SWAP1 PUSH2 0x1490 JUMP JUMPDEST PUSH1 0x5 PUSH1 0x0 DUP10 PUSH20 0xFFFFFFFFFFFFFFFFFFFFFFFFFFFFFFFFFFFFFFFF AND PUSH20 0xFFFFFFFFFFFFFFFFFFFFFFFFFFFFFFFFFFFFFFFF AND DUP2 MSTORE PUSH1 0x20 ADD SWAP1 DUP2 MSTORE PUSH1 0x20 ADD PUSH1 0x0 KECCAK256 DUP2 SWAP1 SSTORE POP DUP5 DUP2 PUSH2 0x73E SWAP2 SWAP1 PUSH2 0x143A JUMP JUMPDEST PUSH1 0x5 PUSH1 0x0 DUP9 PUSH20 0xFFFFFFFFFFFFFFFFFFFFFFFFFFFFFFFFFFFFFFFF AND PUSH20 0xFFFFFFFFFFFFFFFFFFFFFFFFFFFFFFFFFFFFFFFF AND DUP2 MSTORE PUSH1 0x20 ADD SWAP1 DUP2 MSTORE PUSH1 0x20 ADD PUSH1 0x0 KECCAK256 DUP2 SWAP1 SSTORE POP DUP5 DUP3 PUSH2 0x78D SWAP2 SWAP1 PUSH2 0x1490 JUMP JUMPDEST PUSH1 0x6 PUSH1 0x0 DUP10 PUSH20 0xFFFFFFFFFFFFFFFFFFFFFFFFFFFFFFFFFFFFFFFF AND PUSH20 0xFFFFFFFFFFFFFFFFFFFFFFFFFFFFFFFFFFFFFFFF AND DUP2 MSTORE PUSH1 0x20 ADD SWAP1 DUP2 MSTORE PUSH1 0x20 ADD PUSH1 0x0 KECCAK256 PUSH1 0x0 CALLER PUSH20 0xFFFFFFFFFFFFFFFFFFFFFFFFFFFFFFFFFFFFFFFF AND PUSH20 0xFFFFFFFFFFFFFFFFFFFFFFFFFFFFFFFFFFFFFFFF AND DUP2 MSTORE PUSH1 0x20 ADD SWAP1 DUP2 MSTORE PUSH1 0x20 ADD PUSH1 0x0 KECCAK256 DUP2 SWAP1 SSTORE POP DUP6 PUSH20 0xFFFFFFFFFFFFFFFFFFFFFFFFFFFFFFFFFFFFFFFF AND DUP8 PUSH20 0xFFFFFFFFFFFFFFFFFFFFFFFFFFFFFFFFFFFFFFFF AND PUSH32 0xDDF252AD1BE2C89B69C2B068FC378DAA952BA7F163C4A11628F55A4DF523B3EF DUP8 PUSH1 0x40 MLOAD PUSH2 0x86A SWAP2 SWAP1 PUSH2 0x13E8 JUMP JUMPDEST PUSH1 0x40 MLOAD DUP1 SWAP2 SUB SWAP1 LOG3 PUSH1 0x1 SWAP4 POP POP POP POP SWAP4 SWAP3 POP POP POP JUMP JUMPDEST PUSH1 0x2 PUSH1 0x0 SWAP1 SLOAD SWAP1 PUSH2 0x100 EXP SWAP1 DIV PUSH1 0xFF AND DUP2 JUMP JUMPDEST PUSH1 0x0 DUP1 PUSH20 0xFFFFFFFFFFFFFFFFFFFFFFFFFFFFFFFFFFFFFFFF AND CALLER PUSH20 0xFFFFFFFFFFFFFFFFFFFFFFFFFFFFFFFFFFFFFFFF AND EQ ISZERO PUSH2 0x904 JUMPI PUSH1 0x40 MLOAD PUSH32 0x8C379A000000000000000000000000000000000000000000000000000000000 DUP2 MSTORE PUSH1 0x4 ADD PUSH2 0x8FB SWAP1 PUSH2 0x12E8 JUMP JUMPDEST PUSH1 0x40 MLOAD DUP1 SWAP2 SUB SWAP1 REVERT JUMPDEST PUSH1 0x0 PUSH1 0x5 PUSH1 0x0 CALLER PUSH20 0xFFFFFFFFFFFFFFFFFFFFFFFFFFFFFFFFFFFFFFFF AND PUSH20 0xFFFFFFFFFFFFFFFFFFFFFFFFFFFFFFFFFFFFFFFF AND DUP2 MSTORE PUSH1 0x20 ADD SWAP1 DUP2 MSTORE PUSH1 0x20 ADD PUSH1 0x0 KECCAK256 SLOAD SWAP1 POP DUP3 DUP2 GT PUSH2 0x98A JUMPI PUSH1 0x40 MLOAD PUSH32 0x8C379A000000000000000000000000000000000000000000000000000000000 DUP2 MSTORE PUSH1 0x4 ADD PUSH2 0x981 SWAP1 PUSH2 0x13A8 JUMP JUMPDEST PUSH1 0x40 MLOAD DUP1 SWAP2 SUB SWAP1 REVERT JUMPDEST DUP3 PUSH1 0x5 PUSH1 0x0 CALLER PUSH20 0xFFFFFFFFFFFFFFFFFFFFFFFFFFFFFFFFFFFFFFFF AND PUSH20 0xFFFFFFFFFFFFFFFFFFFFFFFFFFFFFFFFFFFFFFFF AND DUP2 MSTORE PUSH1 0x20 ADD SWAP1 DUP2 MSTORE PUSH1 0x20 ADD PUSH1 0x0 KECCAK256 PUSH1 0x0 DUP3 DUP3 SLOAD PUSH2 0x9D9 SWAP2 SWAP1 PUSH2 0x1490 JUMP JUMPDEST SWAP3 POP POP DUP2 SWAP1 SSTORE POP DUP3 PUSH1 0x3 PUSH1 0x0 DUP3 DUP3 SLOAD PUSH2 0x9F2 SWAP2 SWAP1 PUSH2 0x1490 JUMP JUMPDEST SWAP3 POP POP DUP2 SWAP1 SSTORE POP PUSH1 0x0 PUSH20 0xFFFFFFFFFFFFFFFFFFFFFFFFFFFFFFFFFFFFFFFF AND CALLER PUSH20 0xFFFFFFFFFFFFFFFFFFFFFFFFFFFFFFFFFFFFFFFF AND PUSH32 0xDDF252AD1BE2C89B69C2B068FC378DAA952BA7F163C4A11628F55A4DF523B3EF DUP6 PUSH1 0x40 MLOAD PUSH2 0xA57 SWAP2 SWAP1 PUSH2 0x13E8 JUMP JUMPDEST PUSH1 0x40 MLOAD DUP1 SWAP2 SUB SWAP1 LOG3 PUSH1 0x1 SWAP2 POP POP SWAP2 SWAP1 POP JUMP JUMPDEST PUSH1 0x5 PUSH1 0x20 MSTORE DUP1 PUSH1 0x0 MSTORE PUSH1 0x40 PUSH1 0x0 KECCAK256 PUSH1 0x0 SWAP2 POP SWAP1 POP SLOAD DUP2 JUMP JUMPDEST PUSH1 0x0 PUSH1 0x4 PUSH1 0x0 SWAP1 SLOAD SWAP1 PUSH2 0x100 EXP SWAP1 DIV PUSH20 0xFFFFFFFFFFFFFFFFFFFFFFFFFFFFFFFFFFFFFFFF AND SWAP1 POP SWAP1 JUMP JUMPDEST PUSH1 0x4 PUSH1 0x0 SWAP1 SLOAD SWAP1 PUSH2 0x100 EXP SWAP1 DIV PUSH20 0xFFFFFFFFFFFFFFFFFFFFFFFFFFFFFFFFFFFFFFFF AND DUP2 JUMP JUMPDEST PUSH1 0x1 DUP1 SLOAD PUSH2 0xADE SWAP1 PUSH2 0x155E JUMP JUMPDEST DUP1 PUSH1 0x1F ADD PUSH1 0x20 DUP1 SWAP2 DIV MUL PUSH1 0x20 ADD PUSH1 0x40 MLOAD SWAP1 DUP2 ADD PUSH1 0x40 MSTORE DUP1 SWAP3 SWAP2 SWAP1 DUP2 DUP2 MSTORE PUSH1 0x20 ADD DUP3 DUP1 SLOAD PUSH2 0xB0A SWAP1 PUSH2 0x155E JUMP JUMPDEST DUP1 ISZERO PUSH2 0xB57 JUMPI DUP1 PUSH1 0x1F LT PUSH2 0xB2C JUMPI PUSH2 0x100 DUP1 DUP4 SLOAD DIV MUL DUP4 MSTORE SWAP2 PUSH1 0x20 ADD SWAP2 PUSH2 0xB57 JUMP JUMPDEST DUP3 ADD SWAP2 SWAP1 PUSH1 0x0 MSTORE PUSH1 0x20 PUSH1 0x0 KECCAK256 SWAP1 JUMPDEST DUP2 SLOAD DUP2 MSTORE SWAP1 PUSH1 0x1 ADD SWAP1 PUSH1 0x20 ADD DUP1 DUP4 GT PUSH2 0xB3A JUMPI DUP3 SWAP1 SUB PUSH1 0x1F AND DUP3 ADD SWAP2 JUMPDEST POP POP POP POP POP DUP2 JUMP JUMPDEST PUSH1 0x0 PUSH1 0x4 PUSH1 0x0 SWAP1 SLOAD SWAP1 PUSH2 0x100 EXP SWAP1 DIV PUSH20 0xFFFFFFFFFFFFFFFFFFFFFFFFFFFFFFFFFFFFFFFF AND PUSH20 0xFFFFFFFFFFFFFFFFFFFFFFFFFFFFFFFFFFFFFFFF AND CALLER PUSH20 0xFFFFFFFFFFFFFFFFFFFFFFFFFFFFFFFFFFFFFFFF AND EQ PUSH2 0xBF1 JUMPI PUSH1 0x40 MLOAD PUSH32 0x8C379A000000000000000000000000000000000000000000000000000000000 DUP2 MSTORE PUSH1 0x4 ADD PUSH2 0xBE8 SWAP1 PUSH2 0x1328 JUMP JUMPDEST PUSH1 0x40 MLOAD DUP1 SWAP2 SUB SWAP1 REVERT JUMPDEST DUP2 PUSH1 0x3 PUSH1 0x0 DUP3 DUP3 SLOAD PUSH2 0xC03 SWAP2 SWAP1 PUSH2 0x143A JUMP JUMPDEST SWAP3 POP POP DUP2 SWAP1 SSTORE POP DUP2 PUSH1 0x5 PUSH1 0x0 CALLER PUSH20 0xFFFFFFFFFFFFFFFFFFFFFFFFFFFFFFFFFFFFFFFF AND PUSH20 0xFFFFFFFFFFFFFFFFFFFFFFFFFFFFFFFFFFFFFFFF AND DUP2 MSTORE PUSH1 0x20 ADD SWAP1 DUP2 MSTORE PUSH1 0x20 ADD PUSH1 0x0 KECCAK256 PUSH1 0x0 DUP3 DUP3 SLOAD PUSH2 0xC59 SWAP2 SWAP1 PUSH2 0x143A JUMP JUMPDEST SWAP3 POP POP DUP2 SWAP1 SSTORE POP CALLER PUSH20 0xFFFFFFFFFFFFFFFFFFFFFFFFFFFFFFFFFFFFFFFF AND PUSH1 0x0 PUSH20 0xFFFFFFFFFFFFFFFFFFFFFFFFFFFFFFFFFFFFFFFF AND PUSH32 0xDDF252AD1BE2C89B69C2B068FC378DAA952BA7F163C4A11628F55A4DF523B3EF DUP5 PUSH1 0x40 MLOAD PUSH2 0xCBE SWAP2 SWAP1 PUSH2 0x13E8 JUMP JUMPDEST PUSH1 0x40 MLOAD DUP1 SWAP2 SUB SWAP1 LOG3 PUSH1 0x1 SWAP1 POP SWAP2 SWAP1 POP JUMP JUMPDEST PUSH1 0x0 DUP1 PUSH1 0x5 PUSH1 0x0 CALLER PUSH20 0xFFFFFFFFFFFFFFFFFFFFFFFFFFFFFFFFFFFFFFFF AND PUSH20 0xFFFFFFFFFFFFFFFFFFFFFFFFFFFFFFFFFFFFFFFF AND DUP2 MSTORE PUSH1 0x20 ADD SWAP1 DUP2 MSTORE PUSH1 0x20 ADD PUSH1 0x0 KECCAK256 SLOAD SWAP1 POP PUSH1 0x0 PUSH1 0x5 PUSH1 0x0 DUP7 PUSH20 0xFFFFFFFFFFFFFFFFFFFFFFFFFFFFFFFFFFFFFFFF AND PUSH20 0xFFFFFFFFFFFFFFFFFFFFFFFFFFFFFFFFFFFFFFFF AND DUP2 MSTORE PUSH1 0x20 ADD SWAP1 DUP2 MSTORE PUSH1 0x20 ADD PUSH1 0x0 KECCAK256 SLOAD SWAP1 POP PUSH1 0x0 PUSH20 0xFFFFFFFFFFFFFFFFFFFFFFFFFFFFFFFFFFFFFFFF AND DUP6 PUSH20 0xFFFFFFFFFFFFFFFFFFFFFFFFFFFFFFFFFFFFFFFF AND EQ ISZERO PUSH2 0xDC8 JUMPI PUSH1 0x40 MLOAD PUSH32 0x8C379A000000000000000000000000000000000000000000000000000000000 DUP2 MSTORE PUSH1 0x4 ADD PUSH2 0xDBF SWAP1 PUSH2 0x1388 JUMP JUMPDEST PUSH1 0x40 MLOAD DUP1 SWAP2 SUB SWAP1 REVERT JUMPDEST PUSH1 0x0 DUP5 LT ISZERO PUSH2 0xE0C JUMPI PUSH1 0x40 MLOAD PUSH32 0x8C379A000000000000000000000000000000000000000000000000000000000 DUP2 MSTORE PUSH1 0x4 ADD PUSH2 0xE03 SWAP1 PUSH2 0x1308 JUMP JUMPDEST PUSH1 0x40 MLOAD DUP1 SWAP2 SUB SWAP1 REVERT JUMPDEST DUP4 DUP3 GT PUSH2 0xE4E JUMPI PUSH1 0x40 MLOAD PUSH32 0x8C379A000000000000000000000000000000000000000000000000000000000 DUP2 MSTORE PUSH1 0x4 ADD PUSH2 0xE45 SWAP1 PUSH2 0x1368 JUMP JUMPDEST PUSH1 0x40 MLOAD DUP1 SWAP2 SUB SWAP1 REVERT JUMPDEST DUP4 DUP3 PUSH2 0xE5A SWAP2 SWAP1 PUSH2 0x1490 JUMP JUMPDEST PUSH1 0x5 PUSH1 0x0 CALLER PUSH20 0xFFFFFFFFFFFFFFFFFFFFFFFFFFFFFFFFFFFFFFFF AND PUSH20 0xFFFFFFFFFFFFFFFFFFFFFFFFFFFFFFFFFFFFFFFF AND DUP2 MSTORE PUSH1 0x20 ADD SWAP1 DUP2 MSTORE PUSH1 0x20 ADD PUSH1 0x0 KECCAK256 DUP2 SWAP1 SSTORE POP DUP4 DUP2 PUSH2 0xEA9 SWAP2 SWAP1 PUSH2 0x143A JUMP JUMPDEST PUSH1 0x5 PUSH1 0x0 DUP8 PUSH20 0xFFFFFFFFFFFFFFFFFFFFFFFFFFFFFFFFFFFFFFFF AND PUSH20 0xFFFFFFFFFFFFFFFFFFFFFFFFFFFFFFFFFFFFFFFF AND DUP2 MSTORE PUSH1 0x20 ADD SWAP1 DUP2 MSTORE PUSH1 0x20 ADD PUSH1 0x0 KECCAK256 DUP2 SWAP1 SSTORE POP DUP5 PUSH20 0xFFFFFFFFFFFFFFFFFFFFFFFFFFFFFFFFFFFFFFFF AND CALLER PUSH20 0xFFFFFFFFFFFFFFFFFFFFFFFFFFFFFFFFFFFFFFFF AND PUSH32 0xDDF252AD1BE2C89B69C2B068FC378DAA952BA7F163C4A11628F55A4DF523B3EF DUP7 PUSH1 0x40 MLOAD PUSH2 0xF49 SWAP2 SWAP1 PUSH2 0x13E8 JUMP JUMPDEST PUSH1 0x40 MLOAD DUP1 SWAP2 SUB SWAP1 LOG3 PUSH1 0x1 SWAP3 POP POP POP SWAP3 SWAP2 POP POP JUMP JUMPDEST PUSH1 0x6 PUSH1 0x20 MSTORE DUP2 PUSH1 0x0 MSTORE PUSH1 0x40 PUSH1 0x0 KECCAK256 PUSH1 0x20 MSTORE DUP1 PUSH1 0x0 MSTORE PUSH1 0x40 PUSH1 0x0 KECCAK256 PUSH1 0x0 SWAP2 POP SWAP2 POP POP SLOAD DUP2 JUMP JUMPDEST PUSH1 0x0 DUP2 CALLDATALOAD SWAP1 POP PUSH2 0xF91 DUP2 PUSH2 0x1772 JUMP JUMPDEST SWAP3 SWAP2 POP POP JUMP JUMPDEST PUSH1 0x0 DUP2 CALLDATALOAD SWAP1 POP PUSH2 0xFA6 DUP2 PUSH2 0x1789 JUMP JUMPDEST SWAP3 SWAP2 POP POP JUMP JUMPDEST PUSH1 0x0 PUSH1 0x20 DUP3 DUP5 SUB SLT ISZERO PUSH2 0xFC2 JUMPI PUSH2 0xFC1 PUSH2 0x15EE JUMP JUMPDEST JUMPDEST PUSH1 0x0 PUSH2 0xFD0 DUP5 DUP3 DUP6 ADD PUSH2 0xF82 JUMP JUMPDEST SWAP2 POP POP SWAP3 SWAP2 POP POP JUMP JUMPDEST PUSH1 0x0 DUP1 PUSH1 0x40 DUP4 DUP6 SUB SLT ISZERO PUSH2 0xFF0 JUMPI PUSH2 0xFEF PUSH2 0x15EE JUMP JUMPDEST JUMPDEST PUSH1 0x0 PUSH2 0xFFE DUP6 DUP3 DUP7 ADD PUSH2 0xF82 JUMP JUMPDEST SWAP3 POP POP PUSH1 0x20 PUSH2 0x100F DUP6 DUP3 DUP7 ADD PUSH2 0xF82 JUMP JUMPDEST SWAP2 POP POP SWAP3 POP SWAP3 SWAP1 POP JUMP JUMPDEST PUSH1 0x0 DUP1 PUSH1 0x0 PUSH1 0x60 DUP5 DUP7 SUB SLT ISZERO PUSH2 0x1032 JUMPI PUSH2 0x1031 PUSH2 0x15EE JUMP JUMPDEST JUMPDEST PUSH1 0x0 PUSH2 0x1040 DUP7 DUP3 DUP8 ADD PUSH2 0xF82 JUMP JUMPDEST SWAP4 POP POP PUSH1 0x20 PUSH2 0x1051 DUP7 DUP3 DUP8 ADD PUSH2 0xF82 JUMP JUMPDEST SWAP3 POP POP PUSH1 0x40 PUSH2 0x1062 DUP7 DUP3 DUP8 ADD PUSH2 0xF97 JUMP JUMPDEST SWAP2 POP POP SWAP3 POP SWAP3 POP SWAP3 JUMP JUMPDEST PUSH1 0x0 DUP1 PUSH1 0x40 DUP4 DUP6 SUB SLT ISZERO PUSH2 0x1083 JUMPI PUSH2 0x1082 PUSH2 0x15EE JUMP JUMPDEST JUMPDEST PUSH1 0x0 PUSH2 0x1091 DUP6 DUP3 DUP7 ADD PUSH2 0xF82 JUMP JUMPDEST SWAP3 POP POP PUSH1 0x20 PUSH2 0x10A2 DUP6 DUP3 DUP7 ADD PUSH2 0xF97 JUMP JUMPDEST SWAP2 POP POP SWAP3 POP SWAP3 SWAP1 POP JUMP JUMPDEST PUSH1 0x0 PUSH1 0x20 DUP3 DUP5 SUB SLT ISZERO PUSH2 0x10C2 JUMPI PUSH2 0x10C1 PUSH2 0x15EE JUMP JUMPDEST JUMPDEST PUSH1 0x0 PUSH2 0x10D0 DUP5 DUP3 DUP6 ADD PUSH2 0xF97 JUMP JUMPDEST SWAP2 POP POP SWAP3 SWAP2 POP POP JUMP JUMPDEST PUSH2 0x10E2 DUP2 PUSH2 0x14D6 JUMP JUMPDEST DUP3 MSTORE POP POP JUMP JUMPDEST PUSH2 0x10F1 DUP2 PUSH2 0x14C4 JUMP JUMPDEST DUP3 MSTORE POP POP JUMP JUMPDEST PUSH2 0x1100 DUP2 PUSH2 0x14E8 JUMP JUMPDEST DUP3 MSTORE POP POP JUMP JUMPDEST PUSH1 0x0 PUSH2 0x1111 DUP3 PUSH2 0x141E JUMP JUMPDEST PUSH2 0x111B DUP2 DUP6 PUSH2 0x1429 JUMP JUMPDEST SWAP4 POP PUSH2 0x112B DUP2 DUP6 PUSH1 0x20 DUP7 ADD PUSH2 0x152B JUMP JUMPDEST PUSH2 0x1134 DUP2 PUSH2 0x15F3 JUMP JUMPDEST DUP5 ADD SWAP2 POP POP SWAP3 SWAP2 POP POP JUMP JUMPDEST PUSH1 0x0 PUSH2 0x114C PUSH1 0x16 DUP4 PUSH2 0x1429 JUMP JUMPDEST SWAP2 POP PUSH2 0x1157 DUP3 PUSH2 0x1604 JUMP JUMPDEST PUSH1 0x20 DUP3 ADD SWAP1 POP SWAP2 SWAP1 POP JUMP JUMPDEST PUSH1 0x0 PUSH2 0x116F PUSH1 0x23 DUP4 PUSH2 0x1429 JUMP JUMPDEST SWAP2 POP PUSH2 0x117A DUP3 PUSH2 0x162D JUMP JUMPDEST PUSH1 0x40 DUP3 ADD SWAP1 POP SWAP2 SWAP1 POP JUMP JUMPDEST PUSH1 0x0 PUSH2 0x1192 PUSH1 0x16 DUP4 PUSH2 0x1429 JUMP JUMPDEST SWAP2 POP PUSH2 0x119D DUP3 PUSH2 0x167C JUMP JUMPDEST PUSH1 0x20 DUP3 ADD SWAP1 POP SWAP2 SWAP1 POP JUMP JUMPDEST PUSH1 0x0 PUSH2 0x11B5 PUSH1 0x1C DUP4 PUSH2 0x1429 JUMP JUMPDEST SWAP2 POP PUSH2 0x11C0 DUP3 PUSH2 0x16A5 JUMP JUMPDEST PUSH1 0x20 DUP3 ADD SWAP1 POP SWAP2 SWAP1 POP JUMP JUMPDEST PUSH1 0x0 PUSH2 0x11D8 PUSH1 0x12 DUP4 PUSH2 0x1429 JUMP JUMPDEST SWAP2 POP PUSH2 0x11E3 DUP3 PUSH2 0x16CE JUMP JUMPDEST PUSH1 0x20 DUP3 ADD SWAP1 POP SWAP2 SWAP1 POP JUMP JUMPDEST PUSH1 0x0 PUSH2 0x11FB PUSH1 0x18 DUP4 PUSH2 0x1429 JUMP JUMPDEST SWAP2 POP PUSH2 0x1206 DUP3 PUSH2 0x16F7 JUMP JUMPDEST PUSH1 0x20 DUP3 ADD SWAP1 POP SWAP2 SWAP1 POP JUMP JUMPDEST PUSH1 0x0 PUSH2 0x121E PUSH1 0x1B DUP4 PUSH2 0x1429 JUMP JUMPDEST SWAP2 POP PUSH2 0x1229 DUP3 PUSH2 0x1720 JUMP JUMPDEST PUSH1 0x20 DUP3 ADD SWAP1 POP SWAP2 SWAP1 POP JUMP JUMPDEST PUSH1 0x0 PUSH2 0x1241 PUSH1 0x14 DUP4 PUSH2 0x1429 JUMP JUMPDEST SWAP2 POP PUSH2 0x124C DUP3 PUSH2 0x1749 JUMP JUMPDEST PUSH1 0x20 DUP3 ADD SWAP1 POP SWAP2 SWAP1 POP JUMP JUMPDEST PUSH2 0x1260 DUP2 PUSH2 0x1514 JUMP JUMPDEST DUP3 MSTORE POP POP JUMP JUMPDEST PUSH2 0x126F DUP2 PUSH2 0x151E JUMP JUMPDEST DUP3 MSTORE POP POP JUMP JUMPDEST PUSH1 0x0 PUSH1 0x20 DUP3 ADD SWAP1 POP PUSH2 0x128A PUSH1 0x0 DUP4 ADD DUP5 PUSH2 0x10E8 JUMP JUMPDEST SWAP3 SWAP2 POP POP JUMP JUMPDEST PUSH1 0x0 PUSH1 0x20 DUP3 ADD SWAP1 POP PUSH2 0x12A5 PUSH1 0x0 DUP4 ADD DUP5 PUSH2 0x10D9 JUMP JUMPDEST SWAP3 SWAP2 POP POP JUMP JUMPDEST PUSH1 0x0 PUSH1 0x20 DUP3 ADD SWAP1 POP PUSH2 0x12C0 PUSH1 0x0 DUP4 ADD DUP5 PUSH2 0x10F7 JUMP JUMPDEST SWAP3 SWAP2 POP POP JUMP JUMPDEST PUSH1 0x0 PUSH1 0x20 DUP3 ADD SWAP1 POP DUP2 DUP2 SUB PUSH1 0x0 DUP4 ADD MSTORE PUSH2 0x12E0 DUP2 DUP5 PUSH2 0x1106 JUMP JUMPDEST SWAP1 POP SWAP3 SWAP2 POP POP JUMP JUMPDEST PUSH1 0x0 PUSH1 0x20 DUP3 ADD SWAP1 POP DUP2 DUP2 SUB PUSH1 0x0 DUP4 ADD MSTORE PUSH2 0x1301 DUP2 PUSH2 0x113F JUMP JUMPDEST SWAP1 POP SWAP2 SWAP1 POP JUMP JUMPDEST PUSH1 0x0 PUSH1 0x20 DUP3 ADD SWAP1 POP DUP2 DUP2 SUB PUSH1 0x0 DUP4 ADD MSTORE PUSH2 0x1321 DUP2 PUSH2 0x1162 JUMP JUMPDEST SWAP1 POP SWAP2 SWAP1 POP JUMP JUMPDEST PUSH1 0x0 PUSH1 0x20 DUP3 ADD SWAP1 POP DUP2 DUP2 SUB PUSH1 0x0 DUP4 ADD MSTORE PUSH2 0x1341 DUP2 PUSH2 0x1185 JUMP JUMPDEST SWAP1 POP SWAP2 SWAP1 POP JUMP JUMPDEST PUSH1 0x0 PUSH1 0x20 DUP3 ADD SWAP1 POP DUP2 DUP2 SUB PUSH1 0x0 DUP4 ADD MSTORE PUSH2 0x1361 DUP2 PUSH2 0x11A8 JUMP JUMPDEST SWAP1 POP SWAP2 SWAP1 POP JUMP JUMPDEST PUSH1 0x0 PUSH1 0x20 DUP3 ADD SWAP1 POP DUP2 DUP2 SUB PUSH1 0x0 DUP4 ADD MSTORE PUSH2 0x1381 DUP2 PUSH2 0x11CB JUMP JUMPDEST SWAP1 POP SWAP2 SWAP1 POP JUMP JUMPDEST PUSH1 0x0 PUSH1 0x20 DUP3 ADD SWAP1 POP DUP2 DUP2 SUB PUSH1 0x0 DUP4 ADD MSTORE PUSH2 0x13A1 DUP2 PUSH2 0x11EE JUMP JUMPDEST SWAP1 POP SWAP2 SWAP1 POP JUMP JUMPDEST PUSH1 0x0 PUSH1 0x20 DUP3 ADD SWAP1 POP DUP2 DUP2 SUB PUSH1 0x0 DUP4 ADD MSTORE PUSH2 0x13C1 DUP2 PUSH2 0x1211 JUMP JUMPDEST SWAP1 POP SWAP2 SWAP1 POP JUMP JUMPDEST PUSH1 0x0 PUSH1 0x20 DUP3 ADD SWAP1 POP DUP2 DUP2 SUB PUSH1 0x0 DUP4 ADD MSTORE PUSH2 0x13E1 DUP2 PUSH2 0x1234 JUMP JUMPDEST SWAP1 POP SWAP2 SWAP1 POP JUMP JUMPDEST PUSH1 0x0 PUSH1 0x20 DUP3 ADD SWAP1 POP PUSH2 0x13FD PUSH1 0x0 DUP4 ADD DUP5 PUSH2 0x1257 JUMP JUMPDEST SWAP3 SWAP2 POP POP JUMP JUMPDEST PUSH1 0x0 PUSH1 0x20 DUP3 ADD SWAP1 POP PUSH2 0x1418 PUSH1 0x0 DUP4 ADD DUP5 PUSH2 0x1266 JUMP JUMPDEST SWAP3 SWAP2 POP POP JUMP JUMPDEST PUSH1 0x0 DUP2 MLOAD SWAP1 POP SWAP2 SWAP1 POP JUMP JUMPDEST PUSH1 0x0 DUP3 DUP3 MSTORE PUSH1 0x20 DUP3 ADD SWAP1 POP SWAP3 SWAP2 POP POP JUMP JUMPDEST PUSH1 0x0 PUSH2 0x1445 DUP3 PUSH2 0x1514 JUMP JUMPDEST SWAP2 POP PUSH2 0x1450 DUP4 PUSH2 0x1514 JUMP JUMPDEST SWAP3 POP DUP3 PUSH32 0xFFFFFFFFFFFFFFFFFFFFFFFFFFFFFFFFFFFFFFFFFFFFFFFFFFFFFFFFFFFFFFFF SUB DUP3 GT ISZERO PUSH2 0x1485 JUMPI PUSH2 0x1484 PUSH2 0x1590 JUMP JUMPDEST JUMPDEST DUP3 DUP3 ADD SWAP1 POP SWAP3 SWAP2 POP POP JUMP JUMPDEST PUSH1 0x0 PUSH2 0x149B DUP3 PUSH2 0x1514 JUMP JUMPDEST SWAP2 POP PUSH2 0x14A6 DUP4 PUSH2 0x1514 JUMP JUMPDEST SWAP3 POP DUP3 DUP3 LT ISZERO PUSH2 0x14B9 JUMPI PUSH2 0x14B8 PUSH2 0x1590 JUMP JUMPDEST JUMPDEST DUP3 DUP3 SUB SWAP1 POP SWAP3 SWAP2 POP POP JUMP JUMPDEST PUSH1 0x0 PUSH2 0x14CF DUP3 PUSH2 0x14F4 JUMP JUMPDEST SWAP1 POP SWAP2 SWAP1 POP JUMP JUMPDEST PUSH1 0x0 PUSH2 0x14E1 DUP3 PUSH2 0x14F4 JUMP JUMPDEST SWAP1 POP SWAP2 SWAP1 POP JUMP JUMPDEST PUSH1 0x0 DUP2 ISZERO ISZERO SWAP1 POP SWAP2 SWAP1 POP JUMP JUMPDEST PUSH1 0x0 PUSH20 0xFFFFFFFFFFFFFFFFFFFFFFFFFFFFFFFFFFFFFFFF DUP3 AND SWAP1 POP SWAP2 SWAP1 POP JUMP JUMPDEST PUSH1 0x0 DUP2 SWAP1 POP SWAP2 SWAP1 POP JUMP JUMPDEST PUSH1 0x0 PUSH1 0xFF DUP3 AND SWAP1 POP SWAP2 SWAP1 POP JUMP JUMPDEST PUSH1 0x0 JUMPDEST DUP4 DUP2 LT ISZERO PUSH2 0x1549 JUMPI DUP1 DUP3 ADD MLOAD DUP2 DUP5 ADD MSTORE PUSH1 0x20 DUP2 ADD SWAP1 POP PUSH2 0x152E JUMP JUMPDEST DUP4 DUP2 GT ISZERO PUSH2 0x1558 JUMPI PUSH1 0x0 DUP5 DUP5 ADD MSTORE JUMPDEST POP POP POP POP JUMP JUMPDEST PUSH1 0x0 PUSH1 0x2 DUP3 DIV SWAP1 POP PUSH1 0x1 DUP3 AND DUP1 PUSH2 0x1576 JUMPI PUSH1 0x7F DUP3 AND SWAP2 POP JUMPDEST PUSH1 0x20 DUP3 LT DUP2 EQ ISZERO PUSH2 0x158A JUMPI PUSH2 0x1589 PUSH2 0x15BF JUMP JUMPDEST JUMPDEST POP SWAP2 SWAP1 POP JUMP JUMPDEST PUSH32 0x4E487B7100000000000000000000000000000000000000000000000000000000 PUSH1 0x0 MSTORE PUSH1 0x11 PUSH1 0x4 MSTORE PUSH1 0x24 PUSH1 0x0 REVERT JUMPDEST PUSH32 0x4E487B7100000000000000000000000000000000000000000000000000000000 PUSH1 0x0 MSTORE PUSH1 0x22 PUSH1 0x4 MSTORE PUSH1 0x24 PUSH1 0x0 REVERT JUMPDEST PUSH1 0x0 DUP1 REVERT JUMPDEST PUSH1 0x0 PUSH1 0x1F NOT PUSH1 0x1F DUP4 ADD AND SWAP1 POP SWAP2 SWAP1 POP JUMP JUMPDEST PUSH32 0x496E76616C6964206275726E20726563697069656E7400000000000000000000 PUSH1 0x0 DUP3 ADD MSTORE POP JUMP JUMPDEST PUSH32 0x56616C7565206D7573742062652067726561746572206F7220657175616C2074 PUSH1 0x0 DUP3 ADD MSTORE PUSH32 0x6F20300000000000000000000000000000000000000000000000000000000000 PUSH1 0x20 DUP3 ADD MSTORE POP JUMP JUMPDEST PUSH32 0x4F7065726174696F6E20756E617574686F726973656400000000000000000000 PUSH1 0x0 DUP3 ADD MSTORE POP JUMP JUMPDEST PUSH32 0x56616C7565206D7573742062652067726561746572207468616E203000000000 PUSH1 0x0 DUP3 ADD MSTORE POP JUMP JUMPDEST PUSH32 0x4E6F7420656E6F7567682062616C616E63650000000000000000000000000000 PUSH1 0x0 DUP3 ADD MSTORE POP JUMP JUMPDEST PUSH32 0x5265636569766572206164647265737320696E76616C69640000000000000000 PUSH1 0x0 DUP3 ADD MSTORE POP JUMP JUMPDEST PUSH32 0x4275726E20616D6F756E7420657863656564732062616C616E63650000000000 PUSH1 0x0 DUP3 ADD MSTORE POP JUMP JUMPDEST PUSH32 0x4E6F7420656E6F75676820616C6C6F77616E6365000000000000000000000000 PUSH1 0x0 DUP3 ADD MSTORE POP JUMP JUMPDEST PUSH2 0x177B DUP2 PUSH2 0x14C4 JUMP JUMPDEST DUP2 EQ PUSH2 0x1786 JUMPI PUSH1 0x0 DUP1 REVERT JUMPDEST POP JUMP JUMPDEST PUSH2 0x1792 DUP2 PUSH2 0x1514 JUMP JUMPDEST DUP2 EQ PUSH2 0x179D JUMPI PUSH1 0x0 DUP1 REVERT JUMPDEST POP JUMP INVALID LOG2 PUSH5 0x6970667358 0x22 SLT KECCAK256 0xD0 NOT ADD PUSH1 0x0 0xD5 JUMPDEST CREATE2 PUSH22 0xC4F85A061DA619C6025749CB8AD36E68B4F195273019 ISZERO PUSH5 0x736F6C6343 STOP ADDMOD SMOD STOP CALLER "
				},
				"gasEstimates": {
					"creation": {
						"codeDepositCost": "1220400",
						"executionCost": "infinite",
						"totalCost": "infinite"
					},
					"external": {
						"allowance(address,address)": "infinite",
						"approve(address,uint256)": "infinite",
						"balanceOf(address)": "2837",
						"burn(uint256)": "infinite",
						"decimals()": "2560",
						"getOwner()": "2567",
						"mint(uint256)": "infinite",
						"name()": "infinite",
						"owner()": "2581",
						"symbol()": "infinite",
						"totalSupply()": "2474",
						"transfer(address,uint256)": "infinite",
						"transferFrom(address,address,uint256)": "infinite"
					}
				},
				"methodIdentifiers": {
					"allowance(address,address)": "dd62ed3e",
					"approve(address,uint256)": "095ea7b3",
					"balanceOf(address)": "70a08231",
					"burn(uint256)": "42966c68",
					"decimals()": "313ce567",
					"getOwner()": "893d20e8",
					"mint(uint256)": "a0712d68",
					"name()": "06fdde03",
					"owner()": "8da5cb5b",
					"symbol()": "95d89b41",
					"totalSupply()": "18160ddd",
					"transfer(address,uint256)": "a9059cbb",
					"transferFrom(address,address,uint256)": "23b872dd"
				}
			},
			"storageLayout": {
				"storage": [
					{
						"astId": 3,
						"contract": "contracts/Token.sol:Token",
						"label": "name",
						"offset": 0,
						"slot": "0",
						"type": "t_string_storage"
					},
					{
						"astId": 5,
						"contract": "contracts/Token.sol:Token",
						"label": "symbol",
						"offset": 0,
						"slot": "1",
						"type": "t_string_storage"
					},
					{
						"astId": 7,
						"contract": "contracts/Token.sol:Token",
						"label": "decimals",
						"offset": 0,
						"slot": "2",
						"type": "t_uint8"
					},
					{
						"astId": 9,
						"contract": "contracts/Token.sol:Token",
						"label": "totalSupply",
						"offset": 0,
						"slot": "3",
						"type": "t_uint256"
					},
					{
						"astId": 11,
						"contract": "contracts/Token.sol:Token",
						"label": "owner",
						"offset": 0,
						"slot": "4",
						"type": "t_address_payable"
					},
					{
						"astId": 15,
						"contract": "contracts/Token.sol:Token",
						"label": "balanceOf",
						"offset": 0,
						"slot": "5",
						"type": "t_mapping(t_address,t_uint256)"
					},
					{
						"astId": 21,
						"contract": "contracts/Token.sol:Token",
						"label": "allowance",
						"offset": 0,
						"slot": "6",
						"type": "t_mapping(t_address,t_mapping(t_address,t_uint256))"
					}
				],
				"types": {
					"t_address": {
						"encoding": "inplace",
						"label": "address",
						"numberOfBytes": "20"
					},
					"t_address_payable": {
						"encoding": "inplace",
						"label": "address payable",
						"numberOfBytes": "20"
					},
					"t_mapping(t_address,t_mapping(t_address,t_uint256))": {
						"encoding": "mapping",
						"key": "t_address",
						"label": "mapping(address => mapping(address => uint256))",
						"numberOfBytes": "32",
						"value": "t_mapping(t_address,t_uint256)"
					},
					"t_mapping(t_address,t_uint256)": {
						"encoding": "mapping",
						"key": "t_address",
						"label": "mapping(address => uint256)",
						"numberOfBytes": "32",
						"value": "t_uint256"
					},
					"t_string_storage": {
						"encoding": "bytes",
						"label": "string",
						"numberOfBytes": "32"
					},
					"t_uint256": {
						"encoding": "inplace",
						"label": "uint256",
						"numberOfBytes": "32"
					},
					"t_uint8": {
						"encoding": "inplace",
						"label": "uint8",
						"numberOfBytes": "1"
					}
				}
			},
			"userdoc": {
				"kind": "user",
				"methods": {},
				"version": 1
			}
		}
	}
}